{
  "contractName": "Crypto",
  "abi": [
    {
      "anonymous": false,
      "inputs": [
        {
          "indexed": false,
          "internalType": "address",
          "name": "_BuyerRegistered",
          "type": "address"
        },
        {
          "indexed": false,
          "internalType": "string",
          "name": "Name",
          "type": "string"
        },
        {
          "indexed": false,
          "internalType": "uint256",
          "name": "Age",
          "type": "uint256"
        },
        {
          "indexed": false,
          "internalType": "string",
          "name": "City",
          "type": "string"
        },
        {
          "indexed": false,
          "internalType": "string",
          "name": "Email",
          "type": "string"
        }
      ],
      "name": "BuyerRegistration",
      "type": "event"
    },
    {
      "anonymous": false,
      "inputs": [
        {
          "indexed": false,
          "internalType": "address",
          "name": "_SellerRegistered",
          "type": "address"
        },
        {
          "indexed": false,
          "internalType": "string",
          "name": "Name",
          "type": "string"
        },
        {
          "indexed": false,
          "internalType": "string",
          "name": "Email",
          "type": "string"
        },
        {
          "indexed": false,
          "internalType": "uint256",
          "name": "Phone",
          "type": "uint256"
        },
        {
          "indexed": false,
          "internalType": "string",
          "name": "Password",
          "type": "string"
        },
        {
          "indexed": false,
          "internalType": "string",
          "name": "Aadhaar",
          "type": "string"
        }
      ],
      "name": "SellerRegistration",
      "type": "event"
    },
    {
      "stateMutability": "payable",
      "type": "fallback"
    },
    {
      "inputs": [
        {
          "internalType": "address",
          "name": "",
          "type": "address"
        }
      ],
      "name": "BuyerMapping",
      "outputs": [
        {
          "internalType": "address",
          "name": "BuyerAddress",
          "type": "address"
        },
        {
          "internalType": "string",
          "name": "Name",
          "type": "string"
        },
        {
          "internalType": "uint256",
          "name": "Age",
          "type": "uint256"
        },
        {
          "internalType": "string",
          "name": "City",
          "type": "string"
        },
        {
          "internalType": "string",
          "name": "Email",
          "type": "string"
        },
        {
          "internalType": "bool",
          "name": "IsBuyerVerified",
          "type": "bool"
        }
      ],
      "stateMutability": "view",
      "type": "function"
    },
    {
      "inputs": [
        {
          "internalType": "uint256",
          "name": "",
          "type": "uint256"
        }
      ],
      "name": "PropertyMapping",
      "outputs": [
        {
          "internalType": "address payable",
          "name": "OwnerAddress",
          "type": "address"
        },
        {
          "internalType": "uint256",
          "name": "Rooms",
          "type": "uint256"
        },
        {
          "internalType": "string",
          "name": "Furnished",
          "type": "string"
        },
        {
          "internalType": "string",
          "name": "RentOrSale",
          "type": "string"
        },
        {
          "internalType": "uint256",
          "name": "Area",
          "type": "uint256"
        },
        {
          "internalType": "string",
          "name": "City",
          "type": "string"
        },
        {
          "internalType": "string",
          "name": "State",
          "type": "string"
        },
        {
          "internalType": "uint256",
          "name": "PropertyPrice",
          "type": "uint256"
        },
        {
          "internalType": "uint256",
          "name": "PropertyPID",
          "type": "uint256"
        },
        {
          "internalType": "bool",
          "name": "IsPropertyVerified",
          "type": "bool"
        }
      ],
      "stateMutability": "view",
      "type": "function"
    },
    {
      "inputs": [
        {
          "internalType": "address",
          "name": "",
          "type": "address"
        }
      ],
      "name": "SellerMapping",
      "outputs": [
        {
          "internalType": "address",
          "name": "SellerAddress",
          "type": "address"
        },
        {
          "internalType": "string",
          "name": "Name",
          "type": "string"
        },
        {
          "internalType": "string",
          "name": "Email",
          "type": "string"
        },
        {
          "internalType": "uint256",
          "name": "Phone",
          "type": "uint256"
        },
        {
          "internalType": "string",
          "name": "Password",
          "type": "string"
        },
        {
          "internalType": "string",
          "name": "Aadhaar",
          "type": "string"
        }
      ],
      "stateMutability": "view",
      "type": "function"
    },
    {
      "stateMutability": "payable",
      "type": "receive"
    },
    {
      "inputs": [
        {
          "internalType": "string",
          "name": "SellerAddress",
          "type": "string"
        },
        {
          "internalType": "string",
          "name": "Name",
          "type": "string"
        },
        {
          "internalType": "string",
          "name": "Email",
          "type": "string"
        },
        {
          "internalType": "uint256",
          "name": "Phone",
          "type": "uint256"
        },
        {
          "internalType": "string",
          "name": "Password",
          "type": "string"
        },
        {
          "internalType": "string",
          "name": "Aadhaar",
          "type": "string"
        }
      ],
      "name": "RegisterSeller",
      "outputs": [],
      "stateMutability": "nonpayable",
      "type": "function"
    },
    {
      "inputs": [
        {
          "internalType": "address",
          "name": "SellerAddress",
          "type": "address"
        }
      ],
      "name": "GetSellerDetails",
      "outputs": [
        {
          "internalType": "string",
          "name": "",
          "type": "string"
        },
        {
          "internalType": "string",
          "name": "",
          "type": "string"
        },
        {
          "internalType": "uint256",
          "name": "",
          "type": "uint256"
        },
        {
          "internalType": "string",
          "name": "",
          "type": "string"
        },
        {
          "internalType": "string",
          "name": "",
          "type": "string"
        }
      ],
      "stateMutability": "view",
      "type": "function"
    },
    {
      "inputs": [
        {
          "internalType": "string",
          "name": "SellerAddress",
          "type": "string"
        },
        {
          "internalType": "string",
          "name": "_Name",
          "type": "string"
        },
        {
          "internalType": "string",
          "name": "_Email",
          "type": "string"
        },
        {
          "internalType": "uint256",
          "name": "_Phone",
          "type": "uint256"
        },
        {
          "internalType": "string",
          "name": "_Password",
          "type": "string"
        },
        {
          "internalType": "string",
          "name": "_Aadhaar",
          "type": "string"
        }
      ],
      "name": "UpdateSellerDetails",
      "outputs": [],
      "stateMutability": "nonpayable",
      "type": "function"
    },
    {
      "inputs": [
        {
          "internalType": "string",
          "name": "BuyerAddress",
          "type": "string"
        },
        {
          "internalType": "string",
          "name": "Name",
          "type": "string"
        },
        {
          "internalType": "uint256",
          "name": "Age",
          "type": "uint256"
        },
        {
          "internalType": "string",
          "name": "City",
          "type": "string"
        },
        {
          "internalType": "string",
          "name": "Email",
          "type": "string"
        }
      ],
      "name": "RegisterBuyer",
      "outputs": [],
      "stateMutability": "nonpayable",
      "type": "function"
    },
    {
      "inputs": [
        {
          "internalType": "address",
          "name": "BuyerAddress",
          "type": "address"
        }
      ],
      "name": "GetBuyerDetails",
      "outputs": [
        {
          "internalType": "string",
          "name": "",
          "type": "string"
        },
        {
          "internalType": "uint256",
          "name": "",
          "type": "uint256"
        },
        {
          "internalType": "string",
          "name": "",
          "type": "string"
        },
        {
          "internalType": "string",
          "name": "",
          "type": "string"
        }
      ],
      "stateMutability": "view",
      "type": "function"
    },
    {
      "inputs": [
        {
          "internalType": "string",
          "name": "BuyerAddress",
          "type": "string"
        },
        {
          "internalType": "string",
          "name": "_Name",
          "type": "string"
        },
        {
          "internalType": "uint256",
          "name": "_Age",
          "type": "uint256"
        },
        {
          "internalType": "string",
          "name": "_City",
          "type": "string"
        },
        {
          "internalType": "string",
          "name": "_Email",
          "type": "string"
        }
      ],
      "name": "UpdateBuyerDetails",
      "outputs": [],
      "stateMutability": "nonpayable",
      "type": "function"
    },
    {
      "inputs": [
        {
          "internalType": "uint256",
          "name": "PropertyId",
          "type": "uint256"
        },
        {
          "internalType": "address payable",
          "name": "OwnerAddress",
          "type": "address"
        },
        {
          "internalType": "uint256",
          "name": "Rooms",
          "type": "uint256"
        },
        {
          "internalType": "string",
          "name": "Furnished",
          "type": "string"
        },
        {
          "internalType": "string",
          "name": "RentOrSale",
          "type": "string"
        },
        {
          "internalType": "uint256",
          "name": "Area",
          "type": "uint256"
        },
        {
          "internalType": "string",
          "name": "City",
          "type": "string"
        },
        {
          "internalType": "string",
          "name": "State",
          "type": "string"
        },
        {
          "internalType": "uint256",
          "name": "PropertyPrice",
          "type": "uint256"
        },
        {
          "internalType": "uint256",
          "name": "PropertyPID",
          "type": "uint256"
        }
      ],
      "name": "RegisterProperty",
      "outputs": [],
      "stateMutability": "nonpayable",
      "type": "function"
    },
    {
      "inputs": [
        {
          "internalType": "uint256",
          "name": "_GetPropertyCity",
          "type": "uint256"
        }
      ],
      "name": "GetPropertyCity",
      "outputs": [
        {
          "internalType": "string",
          "name": "",
          "type": "string"
        }
      ],
      "stateMutability": "view",
      "type": "function"
    },
    {
      "inputs": [
        {
          "internalType": "uint256",
          "name": "_GetPropertyPrice",
          "type": "uint256"
        }
      ],
      "name": "GetPropertyPrice",
      "outputs": [
        {
          "internalType": "uint256",
          "name": "",
          "type": "uint256"
        }
      ],
      "stateMutability": "view",
      "type": "function"
    },
    {
      "inputs": [
        {
          "internalType": "uint256",
          "name": "_GetPropertyArea",
          "type": "uint256"
        }
      ],
      "name": "GetPropertyArea",
      "outputs": [
        {
          "internalType": "uint256",
          "name": "",
          "type": "uint256"
        }
      ],
      "stateMutability": "view",
      "type": "function"
    },
    {
      "inputs": [
        {
          "internalType": "uint256",
          "name": "PropertyId",
          "type": "uint256"
        }
      ],
      "name": "CurrentPropertyOwner",
      "outputs": [
        {
          "internalType": "address",
          "name": "",
          "type": "address"
        }
      ],
      "stateMutability": "view",
      "type": "function"
    },
    {
      "inputs": [
        {
          "internalType": "uint256",
          "name": "PropertyId",
          "type": "uint256"
        }
      ],
      "name": "BuyProperty",
      "outputs": [
        {
          "internalType": "uint256",
          "name": "",
          "type": "uint256"
        }
      ],
      "stateMutability": "payable",
      "type": "function"
    },
    {
      "inputs": [
        {
          "internalType": "uint256",
          "name": "PropertyId",
          "type": "uint256"
        },
        {
          "internalType": "address payable",
          "name": "NewOwnerAddress",
          "type": "address"
        }
      ],
      "name": "TransferOwnerShip",
      "outputs": [],
      "stateMutability": "nonpayable",
      "type": "function"
    },
    {
      "inputs": [
        {
          "internalType": "address",
          "name": "_address",
          "type": "address"
        }
      ],
      "name": "ShowBalance",
      "outputs": [
        {
          "internalType": "uint256",
          "name": "",
          "type": "uint256"
        }
      ],
      "stateMutability": "view",
      "type": "function"
    }
  ],
  "bytecode": "0x608060405234801561001057600080fd5b506137b4806100206000396000f3fe6080604052600436106101025760003560e01c806371ae0e4e11610095578063d260dca611610064578063d260dca61461042f578063d6ff91271461046c578063dec091ad146104ad578063e54bd53e146104ef578063f60b57b21461052c5761015d565b806371ae0e4e14610372578063ab06c9b01461039b578063ab517074146103c4578063ada393e9146104065761015d565b806338b176bd116100d157806338b176bd146102865780635e9c582f146102c65780636059fd951461030c5780636bd25c8e146103495761015d565b8063060d4f0b146101b35780630aa6fcba146101f057806321c48c0d1461021957806325a59600146102565761015d565b3661015d57346000803373ffffffffffffffffffffffffffffffffffffffff1673ffffffffffffffffffffffffffffffffffffffff16815260200190815260200160002060008282546101559190612465565b925050819055005b346000803373ffffffffffffffffffffffffffffffffffffffff1673ffffffffffffffffffffffffffffffffffffffff16815260200190815260200160002060008282546101ab9190612465565b925050819055005b3480156101bf57600080fd5b506101da60048036038101906101d591906124d9565b610555565b6040516101e79190612596565b60405180910390f35b3480156101fc57600080fd5b50610217600480360381019061021291906126ed565b6105fd565b005b34801561022557600080fd5b50610240600480360381019061023b9190612836565b6107fa565b60405161024d9190612872565b60405180910390f35b610270600480360381019061026b91906124d9565b61081b565b60405161027d9190612872565b60405180910390f35b34801561029257600080fd5b506102ad60048036038101906102a89190612836565b6109ca565b6040516102bd949392919061288d565b60405180910390f35b3480156102d257600080fd5b506102ed60048036038101906102e891906124d9565b610c8d565b6040516103039a99989796959493929190612923565b60405180910390f35b34801561031857600080fd5b50610333600480360381019061032e91906124d9565b610f2e565b6040516103409190612872565b60405180910390f35b34801561035557600080fd5b50610370600480360381019061036b91906126ed565b610f4e565b005b34801561037e57600080fd5b5061039960048036038101906103949190612a07565b611108565b005b3480156103a757600080fd5b506103c260048036038101906103bd9190612b56565b6112e0565b005b3480156103d057600080fd5b506103eb60048036038101906103e69190612836565b6114ed565b6040516103fd96959493929190612ba5565b60405180910390f35b34801561041257600080fd5b5061042d60048036038101906104289190612c1b565b6116ee565b005b34801561043b57600080fd5b50610456600480360381019061045191906124d9565b6118f9565b6040516104639190612872565b60405180910390f35b34801561047857600080fd5b50610493600480360381019061048e9190612836565b611919565b6040516104a4959493929190612d34565b60405180910390f35b3480156104b957600080fd5b506104d460048036038101906104cf9190612836565b611caf565b6040516104e696959493929190612da3565b60405180910390f35b3480156104fb57600080fd5b50610516600480360381019061051191906124d9565b611f2b565b6040516105239190612e20565b60405180910390f35b34801561053857600080fd5b50610553600480360381019061054e9190612c1b565b611f6b565b005b606060016000838152602001908152602001600020600501805461057890612e6a565b80601f01602080910402602001604051908101604052809291908181526020018280546105a490612e6a565b80156105f15780601f106105c6576101008083540402835291602001916105f1565b820191906000526020600020905b8154815290600101906020018083116105d457829003601f168201915b50505050509050919050565b60006106088661215e565b90503373ffffffffffffffffffffffffffffffffffffffff168173ffffffffffffffffffffffffffffffffffffffff1614610678576040517f08c379a000000000000000000000000000000000000000000000000000000000815260040161066f90612f0d565b60405180910390fd5b6040518060c001604052803373ffffffffffffffffffffffffffffffffffffffff16815260200186815260200185815260200184815260200183815260200160001515815250600360008373ffffffffffffffffffffffffffffffffffffffff1673ffffffffffffffffffffffffffffffffffffffff16815260200190815260200160002060008201518160000160006101000a81548173ffffffffffffffffffffffffffffffffffffffff021916908373ffffffffffffffffffffffffffffffffffffffff160217905550602082015181600101908161075991906130d9565b5060408201518160020155606082015181600301908161077991906130d9565b50608082015181600401908161078f91906130d9565b5060a08201518160050160006101000a81548160ff0219169083151502179055509050507f9495c6c4c5cf6ee53917b75724efb219b9e359716e778aa4826a1e1ee996ed5033868686866040516107ea9594939291906131ab565b60405180910390a1505050505050565b60008173ffffffffffffffffffffffffffffffffffffffff16319050919050565b60003373ffffffffffffffffffffffffffffffffffffffff16600360003373ffffffffffffffffffffffffffffffffffffffff1673ffffffffffffffffffffffffffffffffffffffff16815260200190815260200160002060000160009054906101000a900473ffffffffffffffffffffffffffffffffffffffff1673ffffffffffffffffffffffffffffffffffffffff16146108ed576040517f08c379a00000000000000000000000000000000000000000000000000000000081526004016108e490613285565b60405180910390fd5b60016000838152602001908152602001600020600701543414610945576040517f08c379a000000000000000000000000000000000000000000000000000000000815260040161093c90613317565b60405180910390fd5b6001600083815260200190815260200160002060000160009054906101000a900473ffffffffffffffffffffffffffffffffffffffff1673ffffffffffffffffffffffffffffffffffffffff166108fc349081150290604051600060405180830381858888f193505050501580156109c1573d6000803e3d6000fd5b50349050919050565b60606000606080600360008673ffffffffffffffffffffffffffffffffffffffff1673ffffffffffffffffffffffffffffffffffffffff168152602001908152602001600020600101600360008773ffffffffffffffffffffffffffffffffffffffff1673ffffffffffffffffffffffffffffffffffffffff16815260200190815260200160002060020154600360008873ffffffffffffffffffffffffffffffffffffffff1673ffffffffffffffffffffffffffffffffffffffff168152602001908152602001600020600301600360008973ffffffffffffffffffffffffffffffffffffffff1673ffffffffffffffffffffffffffffffffffffffff168152602001908152602001600020600401838054610ae690612e6a565b80601f0160208091040260200160405190810160405280929190818152602001828054610b1290612e6a565b8015610b5f5780601f10610b3457610100808354040283529160200191610b5f565b820191906000526020600020905b815481529060010190602001808311610b4257829003601f168201915b50505050509350818054610b7290612e6a565b80601f0160208091040260200160405190810160405280929190818152602001828054610b9e90612e6a565b8015610beb5780601f10610bc057610100808354040283529160200191610beb565b820191906000526020600020905b815481529060010190602001808311610bce57829003601f168201915b50505050509150808054610bfe90612e6a565b80601f0160208091040260200160405190810160405280929190818152602001828054610c2a90612e6a565b8015610c775780601f10610c4c57610100808354040283529160200191610c77565b820191906000526020600020905b815481529060010190602001808311610c5a57829003601f168201915b5050505050905093509350935093509193509193565b60016020528060005260406000206000915090508060000160009054906101000a900473ffffffffffffffffffffffffffffffffffffffff1690806001015490806002018054610cdc90612e6a565b80601f0160208091040260200160405190810160405280929190818152602001828054610d0890612e6a565b8015610d555780601f10610d2a57610100808354040283529160200191610d55565b820191906000526020600020905b815481529060010190602001808311610d3857829003601f168201915b505050505090806003018054610d6a90612e6a565b80601f0160208091040260200160405190810160405280929190818152602001828054610d9690612e6a565b8015610de35780601f10610db857610100808354040283529160200191610de3565b820191906000526020600020905b815481529060010190602001808311610dc657829003601f168201915b505050505090806004015490806005018054610dfe90612e6a565b80601f0160208091040260200160405190810160405280929190818152602001828054610e2a90612e6a565b8015610e775780601f10610e4c57610100808354040283529160200191610e77565b820191906000526020600020905b815481529060010190602001808311610e5a57829003601f168201915b505050505090806006018054610e8c90612e6a565b80601f0160208091040260200160405190810160405280929190818152602001828054610eb890612e6a565b8015610f055780601f10610eda57610100808354040283529160200191610f05565b820191906000526020600020905b815481529060010190602001808311610ee857829003601f168201915b5050505050908060070154908060080154908060090160009054906101000a900460ff1690508a565b600060016000838152602001908152602001600020600401549050919050565b6000610f598661215e565b90503373ffffffffffffffffffffffffffffffffffffffff168173ffffffffffffffffffffffffffffffffffffffff1614610fc9576040517f08c379a0000000000000000000000000000000000000000000000000000000008152600401610fc0906133a9565b60405180910390fd5b84600360008373ffffffffffffffffffffffffffffffffffffffff1673ffffffffffffffffffffffffffffffffffffffff168152602001908152602001600020600101908161101891906130d9565b5083600360008373ffffffffffffffffffffffffffffffffffffffff1673ffffffffffffffffffffffffffffffffffffffff1681526020019081526020016000206002018190555082600360008373ffffffffffffffffffffffffffffffffffffffff1673ffffffffffffffffffffffffffffffffffffffff16815260200190815260200160002060030190816110af91906130d9565b5081600360008373ffffffffffffffffffffffffffffffffffffffff1673ffffffffffffffffffffffffffffffffffffffff16815260200190815260200160002060040190816110ff91906130d9565b50505050505050565b3373ffffffffffffffffffffffffffffffffffffffff168973ffffffffffffffffffffffffffffffffffffffff1614611176576040517f08c379a000000000000000000000000000000000000000000000000000000000815260040161116d9061343b565b60405180910390fd5b6040518061014001604052808a73ffffffffffffffffffffffffffffffffffffffff16815260200189815260200188815260200187815260200186815260200185815260200184815260200183815260200182815260200160001515815250600160008c815260200190815260200160002060008201518160000160006101000a81548173ffffffffffffffffffffffffffffffffffffffff021916908373ffffffffffffffffffffffffffffffffffffffff16021790555060208201518160010155604082015181600201908161124e91906130d9565b50606082015181600301908161126491906130d9565b506080820151816004015560a082015181600501908161128491906130d9565b5060c082015181600601908161129a91906130d9565b5060e0820151816007015561010082015181600801556101208201518160090160006101000a81548160ff02191690831515021790555090505050505050505050505050565b600180600084815260200190815260200160002060090160006101000a81548160ff021916908315150217905561134c576040517f08c379a0000000000000000000000000000000000000000000000000000000008152600401611343906134cd565b60405180910390fd5b3373ffffffffffffffffffffffffffffffffffffffff166001600084815260200190815260200160002060000160009054906101000a900473ffffffffffffffffffffffffffffffffffffffff1673ffffffffffffffffffffffffffffffffffffffff16146113f0576040517f08c379a00000000000000000000000000000000000000000000000000000000081526004016113e79061355f565b60405180910390fd5b8073ffffffffffffffffffffffffffffffffffffffff166001600084815260200190815260200160002060000160009054906101000a900473ffffffffffffffffffffffffffffffffffffffff1673ffffffffffffffffffffffffffffffffffffffff1603611494576040517f08c379a000000000000000000000000000000000000000000000000000000000815260040161148b906135cb565b60405180910390fd5b806001600084815260200190815260200160002060000160006101000a81548173ffffffffffffffffffffffffffffffffffffffff021916908373ffffffffffffffffffffffffffffffffffffffff1602179055505050565b60036020528060005260406000206000915090508060000160009054906101000a900473ffffffffffffffffffffffffffffffffffffffff169080600101805461153690612e6a565b80601f016020809104026020016040519081016040528092919081815260200182805461156290612e6a565b80156115af5780601f10611584576101008083540402835291602001916115af565b820191906000526020600020905b81548152906001019060200180831161159257829003601f168201915b5050505050908060020154908060030180546115ca90612e6a565b80601f01602080910402602001604051908101604052809291908181526020018280546115f690612e6a565b80156116435780601f1061161857610100808354040283529160200191611643565b820191906000526020600020905b81548152906001019060200180831161162657829003601f168201915b50505050509080600401805461165890612e6a565b80601f016020809104026020016040519081016040528092919081815260200182805461168490612e6a565b80156116d15780601f106116a6576101008083540402835291602001916116d1565b820191906000526020600020905b8154815290600101906020018083116116b457829003601f168201915b5050505050908060050160009054906101000a900460ff16905086565b60006116f98761215e565b90503373ffffffffffffffffffffffffffffffffffffffff168173ffffffffffffffffffffffffffffffffffffffff1614611769576040517f08c379a00000000000000000000000000000000000000000000000000000000081526004016117609061365d565b60405180910390fd5b85600260008373ffffffffffffffffffffffffffffffffffffffff1673ffffffffffffffffffffffffffffffffffffffff16815260200190815260200160002060010190816117b891906130d9565b5084600260008373ffffffffffffffffffffffffffffffffffffffff1673ffffffffffffffffffffffffffffffffffffffff168152602001908152602001600020600201908161180891906130d9565b5083600260008373ffffffffffffffffffffffffffffffffffffffff1673ffffffffffffffffffffffffffffffffffffffff1681526020019081526020016000206003018190555082600260008373ffffffffffffffffffffffffffffffffffffffff1673ffffffffffffffffffffffffffffffffffffffff168152602001908152602001600020600401908161189f91906130d9565b5081600260008373ffffffffffffffffffffffffffffffffffffffff1673ffffffffffffffffffffffffffffffffffffffff16815260200190815260200160002060050190816118ef91906130d9565b5050505050505050565b600060016000838152602001908152602001600020600701549050919050565b6060806000606080600260008773ffffffffffffffffffffffffffffffffffffffff1673ffffffffffffffffffffffffffffffffffffffff168152602001908152602001600020600101600260008873ffffffffffffffffffffffffffffffffffffffff1673ffffffffffffffffffffffffffffffffffffffff168152602001908152602001600020600201600260008973ffffffffffffffffffffffffffffffffffffffff1673ffffffffffffffffffffffffffffffffffffffff16815260200190815260200160002060030154600260008a73ffffffffffffffffffffffffffffffffffffffff1673ffffffffffffffffffffffffffffffffffffffff168152602001908152602001600020600401600260008b73ffffffffffffffffffffffffffffffffffffffff1673ffffffffffffffffffffffffffffffffffffffff168152602001908152602001600020600501848054611a7890612e6a565b80601f0160208091040260200160405190810160405280929190818152602001828054611aa490612e6a565b8015611af15780601f10611ac657610100808354040283529160200191611af1565b820191906000526020600020905b815481529060010190602001808311611ad457829003601f168201915b50505050509450838054611b0490612e6a565b80601f0160208091040260200160405190810160405280929190818152602001828054611b3090612e6a565b8015611b7d5780601f10611b5257610100808354040283529160200191611b7d565b820191906000526020600020905b815481529060010190602001808311611b6057829003601f168201915b50505050509350818054611b9090612e6a565b80601f0160208091040260200160405190810160405280929190818152602001828054611bbc90612e6a565b8015611c095780601f10611bde57610100808354040283529160200191611c09565b820191906000526020600020905b815481529060010190602001808311611bec57829003601f168201915b50505050509150808054611c1c90612e6a565b80601f0160208091040260200160405190810160405280929190818152602001828054611c4890612e6a565b8015611c955780601f10611c6a57610100808354040283529160200191611c95565b820191906000526020600020905b815481529060010190602001808311611c7857829003601f168201915b505050505090509450945094509450945091939590929450565b60026020528060005260406000206000915090508060000160009054906101000a900473ffffffffffffffffffffffffffffffffffffffff1690806001018054611cf890612e6a565b80601f0160208091040260200160405190810160405280929190818152602001828054611d2490612e6a565b8015611d715780601f10611d4657610100808354040283529160200191611d71565b820191906000526020600020905b815481529060010190602001808311611d5457829003601f168201915b505050505090806002018054611d8690612e6a565b80601f0160208091040260200160405190810160405280929190818152602001828054611db290612e6a565b8015611dff5780601f10611dd457610100808354040283529160200191611dff565b820191906000526020600020905b815481529060010190602001808311611de257829003601f168201915b505050505090806003015490806004018054611e1a90612e6a565b80601f0160208091040260200160405190810160405280929190818152602001828054611e4690612e6a565b8015611e935780601f10611e6857610100808354040283529160200191611e93565b820191906000526020600020905b815481529060010190602001808311611e7657829003601f168201915b505050505090806005018054611ea890612e6a565b80601f0160208091040260200160405190810160405280929190818152602001828054611ed490612e6a565b8015611f215780601f10611ef657610100808354040283529160200191611f21565b820191906000526020600020905b815481529060010190602001808311611f0457829003601f168201915b5050505050905086565b60006001600083815260200190815260200160002060000160009054906101000a900473ffffffffffffffffffffffffffffffffffffffff169050919050565b6000611f768761215e565b90503373ffffffffffffffffffffffffffffffffffffffff168173ffffffffffffffffffffffffffffffffffffffff1614611fe6576040517f08c379a0000000000000000000000000000000000000000000000000000000008152600401611fdd9061365d565b60405180910390fd5b6040518060c001604052803373ffffffffffffffffffffffffffffffffffffffff16815260200187815260200186815260200185815260200184815260200183815250600260008373ffffffffffffffffffffffffffffffffffffffff1673ffffffffffffffffffffffffffffffffffffffff16815260200190815260200160002060008201518160000160006101000a81548173ffffffffffffffffffffffffffffffffffffffff021916908373ffffffffffffffffffffffffffffffffffffffff16021790555060208201518160010190816120c491906130d9565b5060408201518160020190816120da91906130d9565b506060820151816003015560808201518160040190816120fa91906130d9565b5060a082015181600501908161211091906130d9565b509050507f75fca7cd7adde0f74d59342bfaff949b86ac689eeaf6ebfe2e74edba96f002c133878787878760405161214d96959493929190612da3565b60405180910390a150505050505050565b600080829050600080806000600290505b602a81101561241f5761010084612186919061367d565b935084818151811061219b5761219a6136bf565b5b602001015160f81c60f81b60f81c60ff169250846001826121bc9190612465565b815181106121cd576121cc6136bf565b5b602001015160f81c60f81b60f81c60ff16915060618373ffffffffffffffffffffffffffffffffffffffff161015801561221e575060668373ffffffffffffffffffffffffffffffffffffffff1611155b156122375760578361223091906136ee565b92506122e3565b60418373ffffffffffffffffffffffffffffffffffffffff1610158015612275575060468373ffffffffffffffffffffffffffffffffffffffff1611155b1561228e5760378361228791906136ee565b92506122e2565b60308373ffffffffffffffffffffffffffffffffffffffff16101580156122cc575060398373ffffffffffffffffffffffffffffffffffffffff1611155b156122e1576030836122de91906136ee565b92505b5b5b60618273ffffffffffffffffffffffffffffffffffffffff1610158015612321575060668273ffffffffffffffffffffffffffffffffffffffff1611155b1561233a5760578261233391906136ee565b91506123e6565b60418273ffffffffffffffffffffffffffffffffffffffff1610158015612378575060468273ffffffffffffffffffffffffffffffffffffffff1611155b156123915760378261238a91906136ee565b91506123e5565b60308273ffffffffffffffffffffffffffffffffffffffff16101580156123cf575060398273ffffffffffffffffffffffffffffffffffffffff1611155b156123e4576030826123e191906136ee565b91505b5b5b816010846123f4919061367d565b6123fe9190613736565b846124099190613736565b93506002816124189190612465565b905061216f565b5082945050505050919050565b6000819050919050565b7f4e487b7100000000000000000000000000000000000000000000000000000000600052601160045260246000fd5b60006124708261242c565b915061247b8361242c565b925082820190508082111561249357612492612436565b5b92915050565b6000604051905090565b600080fd5b600080fd5b6124b68161242c565b81146124c157600080fd5b50565b6000813590506124d3816124ad565b92915050565b6000602082840312156124ef576124ee6124a3565b5b60006124fd848285016124c4565b91505092915050565b600081519050919050565b600082825260208201905092915050565b60005b83811015612540578082015181840152602081019050612525565b60008484015250505050565b6000601f19601f8301169050919050565b600061256882612506565b6125728185612511565b9350612582818560208601612522565b61258b8161254c565b840191505092915050565b600060208201905081810360008301526125b0818461255d565b905092915050565b600080fd5b600080fd5b7f4e487b7100000000000000000000000000000000000000000000000000000000600052604160045260246000fd5b6125fa8261254c565b810181811067ffffffffffffffff82111715612619576126186125c2565b5b80604052505050565b600061262c612499565b905061263882826125f1565b919050565b600067ffffffffffffffff821115612658576126576125c2565b5b6126618261254c565b9050602081019050919050565b82818337600083830152505050565b600061269061268b8461263d565b612622565b9050828152602081018484840111156126ac576126ab6125bd565b5b6126b784828561266e565b509392505050565b600082601f8301126126d4576126d36125b8565b5b81356126e484826020860161267d565b91505092915050565b600080600080600060a08688031215612709576127086124a3565b5b600086013567ffffffffffffffff811115612727576127266124a8565b5b612733888289016126bf565b955050602086013567ffffffffffffffff811115612754576127536124a8565b5b612760888289016126bf565b9450506040612771888289016124c4565b935050606086013567ffffffffffffffff811115612792576127916124a8565b5b61279e888289016126bf565b925050608086013567ffffffffffffffff8111156127bf576127be6124a8565b5b6127cb888289016126bf565b9150509295509295909350565b600073ffffffffffffffffffffffffffffffffffffffff82169050919050565b6000612803826127d8565b9050919050565b612813816127f8565b811461281e57600080fd5b50565b6000813590506128308161280a565b92915050565b60006020828403121561284c5761284b6124a3565b5b600061285a84828501612821565b91505092915050565b61286c8161242c565b82525050565b60006020820190506128876000830184612863565b92915050565b600060808201905081810360008301526128a7818761255d565b90506128b66020830186612863565b81810360408301526128c8818561255d565b905081810360608301526128dc818461255d565b905095945050505050565b60006128f2826127d8565b9050919050565b612902816128e7565b82525050565b60008115159050919050565b61291d81612908565b82525050565b600061014082019050612939600083018d6128f9565b612946602083018c612863565b8181036040830152612958818b61255d565b9050818103606083015261296c818a61255d565b905061297b6080830189612863565b81810360a083015261298d818861255d565b905081810360c08301526129a1818761255d565b90506129b060e0830186612863565b6129be610100830185612863565b6129cc610120830184612914565b9b9a5050505050505050505050565b6129e4816128e7565b81146129ef57600080fd5b50565b600081359050612a01816129db565b92915050565b6000806000806000806000806000806101408b8d031215612a2b57612a2a6124a3565b5b6000612a398d828e016124c4565b9a50506020612a4a8d828e016129f2565b9950506040612a5b8d828e016124c4565b98505060608b013567ffffffffffffffff811115612a7c57612a7b6124a8565b5b612a888d828e016126bf565b97505060808b013567ffffffffffffffff811115612aa957612aa86124a8565b5b612ab58d828e016126bf565b96505060a0612ac68d828e016124c4565b95505060c08b013567ffffffffffffffff811115612ae757612ae66124a8565b5b612af38d828e016126bf565b94505060e08b013567ffffffffffffffff811115612b1457612b136124a8565b5b612b208d828e016126bf565b935050610100612b328d828e016124c4565b925050610120612b448d828e016124c4565b9150509295989b9194979a5092959850565b60008060408385031215612b6d57612b6c6124a3565b5b6000612b7b858286016124c4565b9250506020612b8c858286016129f2565b9150509250929050565b612b9f816127f8565b82525050565b600060c082019050612bba6000830189612b96565b8181036020830152612bcc818861255d565b9050612bdb6040830187612863565b8181036060830152612bed818661255d565b90508181036080830152612c01818561255d565b9050612c1060a0830184612914565b979650505050505050565b60008060008060008060c08789031215612c3857612c376124a3565b5b600087013567ffffffffffffffff811115612c5657612c556124a8565b5b612c6289828a016126bf565b965050602087013567ffffffffffffffff811115612c8357612c826124a8565b5b612c8f89828a016126bf565b955050604087013567ffffffffffffffff811115612cb057612caf6124a8565b5b612cbc89828a016126bf565b9450506060612ccd89828a016124c4565b935050608087013567ffffffffffffffff811115612cee57612ced6124a8565b5b612cfa89828a016126bf565b92505060a087013567ffffffffffffffff811115612d1b57612d1a6124a8565b5b612d2789828a016126bf565b9150509295509295509295565b600060a0820190508181036000830152612d4e818861255d565b90508181036020830152612d62818761255d565b9050612d716040830186612863565b8181036060830152612d83818561255d565b90508181036080830152612d97818461255d565b90509695505050505050565b600060c082019050612db86000830189612b96565b8181036020830152612dca818861255d565b90508181036040830152612dde818761255d565b9050612ded6060830186612863565b8181036080830152612dff818561255d565b905081810360a0830152612e13818461255d565b9050979650505050505050565b6000602082019050612e356000830184612b96565b92915050565b7f4e487b7100000000000000000000000000000000000000000000000000000000600052602260045260246000fd5b60006002820490506001821680612e8257607f821691505b602082108103612e9557612e94612e3b565b5b50919050565b7f54686973206164647265737320697320616c726561647920726567697374657260008201527f6564000000000000000000000000000000000000000000000000000000000000602082015250565b6000612ef7602283612511565b9150612f0282612e9b565b604082019050919050565b60006020820190508181036000830152612f2681612eea565b9050919050565b60008190508160005260206000209050919050565b60006020601f8301049050919050565b600082821b905092915050565b600060088302612f8f7fffffffffffffffffffffffffffffffffffffffffffffffffffffffffffffffff82612f52565b612f998683612f52565b95508019841693508086168417925050509392505050565b6000819050919050565b6000612fd6612fd1612fcc8461242c565b612fb1565b61242c565b9050919050565b6000819050919050565b612ff083612fbb565b613004612ffc82612fdd565b848454612f5f565b825550505050565b600090565b61301961300c565b613024818484612fe7565b505050565b5b818110156130485761303d600082613011565b60018101905061302a565b5050565b601f82111561308d5761305e81612f2d565b61306784612f42565b81016020851015613076578190505b61308a61308285612f42565b830182613029565b50505b505050565b600082821c905092915050565b60006130b060001984600802613092565b1980831691505092915050565b60006130c9838361309f565b9150826002028217905092915050565b6130e282612506565b67ffffffffffffffff8111156130fb576130fa6125c2565b5b6131058254612e6a565b61311082828561304c565b600060209050601f8311600181146131435760008415613131578287015190505b61313b85826130bd565b8655506131a3565b601f19841661315186612f2d565b60005b8281101561317957848901518255600182019150602085019450602081019050613154565b868310156131965784890151613192601f89168261309f565b8355505b6001600288020188555050505b505050505050565b600060a0820190506131c06000830188612b96565b81810360208301526131d2818761255d565b90506131e16040830186612863565b81810360608301526131f3818561255d565b90508181036080830152613207818461255d565b90509695505050505050565b7f4f6e6c7920627579657220697320616c6c6f77656420746f206275792050726f60008201527f7065727479000000000000000000000000000000000000000000000000000000602082015250565b600061326f602583612511565b915061327a82613213565b604082019050919050565b6000602082019050818103600083015261329e81613262565b9050919050565b7f204e6f7420656e6f7567682065746865722c206974206d75737420626520657160008201527f75616c20746f2050726f70657274795072696365200000000000000000000000602082015250565b6000613301603583612511565b915061330c826132a5565b604082019050919050565b60006020820190508181036000830152613330816132f4565b9050919050565b7f54686973206164647265737320697320616c726561647920726567697374657260008201527f65642061732073656c6c6572206f722062757965720000000000000000000000602082015250565b6000613393603583612511565b915061339e82613337565b604082019050919050565b600060208201905081810360008301526133c281613386565b9050919050565b7f53656c6c65722061646472657373206d75737420626520746865204f776e657260008201527f4164647265737300000000000000000000000000000000000000000000000000602082015250565b6000613425602783612511565b9150613430826133c9565b604082019050919050565b6000602082019050818103600083015261345481613418565b9050919050565b7f50726f7065727479206d7573742062652076657269666965642062792050726f60008201527f7065727479696e73706563746f72000000000000000000000000000000000000602082015250565b60006134b7602e83612511565b91506134c28261345b565b604082019050919050565b600060208201905081810360008301526134e6816134aa565b9050919050565b7f594f5520415245204e4f5420544845204f574e4552204f46205448495320505260008201527f4f50455254590000000000000000000000000000000000000000000000000000602082015250565b6000613549602683612511565b9150613554826134ed565b604082019050919050565b600060208201905081810360008301526135788161353c565b9050919050565b7f4e65774f776e65722061646472657373206d75737420626520756e6971756500600082015250565b60006135b5601f83612511565b91506135c08261357f565b602082019050919050565b600060208201905081810360008301526135e4816135a8565b9050919050565b7f54686973206164647265737320697320616c726561647920726567697374657260008201527f656420617320616e6f746865722053656c6c6572206f72204275796572000000602082015250565b6000613647603d83612511565b9150613652826135eb565b604082019050919050565b600060208201905081810360008301526136768161363a565b9050919050565b6000613688826127d8565b9150613693836127d8565b92508282026136a1816127d8565b915082820484148315176136b8576136b7612436565b5b5092915050565b7f4e487b7100000000000000000000000000000000000000000000000000000000600052603260045260246000fd5b60006136f9826127d8565b9150613704836127d8565b9250828203905073ffffffffffffffffffffffffffffffffffffffff8111156137305761372f612436565b5b92915050565b6000613741826127d8565b915061374c836127d8565b9250828201905073ffffffffffffffffffffffffffffffffffffffff81111561377857613777612436565b5b9291505056fea264697066735822122006fed8a8804799429766ad3eefa37b2e3020459cefeb561818e3eff1646dcd2e64736f6c63430008110033",
  "immutableReferences": {},
  "source": "// pragma solidity ^0.8.10;\r\n\r\n// contract Crypto {\r\n\r\n    \r\n//     struct SellerDetails{\r\n\r\n//         string SellerAddress;\r\n//         string Name;\r\n//         string Email; \r\n//         uint Phone;\r\n//         string CurrentAdd;\r\n//         string Password;\r\n//         string Aadhaar;\r\n//         // bool IsSellerVerified;\r\n    \r\n//     }\r\n\r\n//     mapping(string => SellerDetails) public SellerMapping;\r\n\r\n\r\n//     event SellerRegistration(\r\n//         string SellerRegistered,\r\n//         string Name, \r\n//         string Email, \r\n//         uint Phone,\r\n//         string CurrentAdd,\r\n//         string Password,\r\n//         string Aadhaar);\r\n    \r\n    \r\n\r\n//     /*\r\n\r\n//     /////////////////// Register Seller ///////////////\r\n//     /////// Seller will register with his details\r\n//     /////// PropertyInspector can either verify that seller or reject that seller\r\n//     /////// We can also update the seller details\r\n//     /////// We can check if seller is verified or not\r\n\r\n\r\n//     */    \r\n//     function RegisterSeller(\r\n\r\n//         string memory SellerAddress,\r\n//         string memory Name, \r\n//         string memory Email, \r\n//         uint Phone,\r\n//         string memory CurrentAdd,\r\n//         string memory Password,\r\n//         string memory Aadhaar)  \r\n//         public\r\n//     {\r\n \r\n//     // require(SellerAddress==msg.sender,\r\n//     //     \"This address is already registered as another Seller or Buyer\");\r\n           \r\n//         // SellerMapping[SellerAddress] = SellerDetails(\r\n//         // msg.sender, \r\n//         // Name, Email, Phone, CurrentAdd, Password, Aadhaar,\r\n//         // false);\r\n\r\n//         SellerMapping[SellerAddress].SellerAddress = SellerAddress;\r\n//         SellerMapping[SellerAddress].Name = Name;\r\n//         SellerMapping[SellerAddress].Email = Email;\r\n//         SellerMapping[SellerAddress].Phone = Phone;\r\n//         SellerMapping[SellerAddress].CurrentAdd = CurrentAdd;\r\n//         SellerMapping[SellerAddress].Password = Password;\r\n//         SellerMapping[SellerAddress].Aadhaar = Aadhaar;\r\n\r\n     \r\n//     emit SellerRegistration(\r\n//        SellerAddress,\r\n//         Name, Email, Phone, CurrentAdd, Password, Aadhaar);\r\n\r\n//     }\r\n\r\n\r\n\r\n   \r\n//     /*\r\n\r\n//     /////////////////// Register Buyer ////////////////\r\n//     //////// we will register Buyer with Buyer details\r\n//     //////// If Buyer is registered then PropertyInpector either verify that Buyer \r\n//     //////// or reject that buyer\r\n//     //////// We can also update the Buyer details \r\n//     //////// We can check if Buyer is verified or not\r\n    \r\n    \r\n//     */  \r\n    \r\n   \r\n// }\r\n\r\n\r\n\r\n// ------------------------------------------------------- \r\n\r\n// SPDX-License-Identifier: GPL-3.0\r\npragma solidity ^0.8.10;\r\n\r\n\r\ncontract Crypto {\r\n\r\n    mapping(address => uint) _balance;\r\n\r\n    fallback() payable external {\r\n        _balance[msg.sender] += msg.value;\r\n    }\r\n\r\n    receive() payable external {\r\n        _balance[msg.sender] += msg.value;\r\n    }\r\n\r\n    struct PropertyRegistry{   \r\n        \r\n        address payable OwnerAddress;\r\n        uint Rooms;\r\n        string Furnished;\r\n        string RentOrSale;\r\n        uint Area; \r\n        string City; \r\n        string State; \r\n        uint PropertyPrice; \r\n        uint PropertyPID;\r\n        bool IsPropertyVerified;\r\n    \r\n    }\r\n\r\n    struct BuyerDetails{\r\n        \r\n        address BuyerAddress;\r\n        string Name;\r\n        uint Age; \r\n        string City;  \r\n        string Email;\r\n        bool IsBuyerVerified;\r\n        \r\n    }\r\n    \r\n    struct SellerDetails{\r\n\r\n        address SellerAddress;\r\n        string Name;\r\n        string Email; \r\n        uint Phone;\r\n        // string CurrentAdd;\r\n        string Password;\r\n        string Aadhaar;\r\n    \r\n    }\r\n\r\n    mapping(uint => PropertyRegistry) public PropertyMapping; \r\n    mapping(address => SellerDetails) public SellerMapping;\r\n    mapping(address => BuyerDetails) public BuyerMapping; \r\n\r\n\r\n    event SellerRegistration(\r\n        address _SellerRegistered,\r\n        string Name, \r\n        string Email, \r\n        uint Phone,\r\n        string Password,\r\n        string Aadhaar);\r\n    \r\n    event BuyerRegistration(\r\n        address _BuyerRegistered,\r\n        string Name, \r\n        uint Age,\r\n        string City,\r\n        string Email);\r\n    \r\n    // event Verified(address _Id);\r\n    \r\n    // event Rejected(address _Id);\r\n\r\n    /*\r\n\r\n    /////////////////// Register Seller ///////////////\r\n    /////// Seller will register with his details\r\n    /////// PropertyInspector can either verify that seller or reject that seller\r\n    /////// We can also update the seller details\r\n    /////// We can check if seller is verified or not\r\n\r\n\r\n    */   \r\n\r\n    function parseAddr(string memory _a) internal pure returns (address _parsedAddress) {\r\n    bytes memory tmp = bytes(_a);\r\n    uint160 iaddr = 0;\r\n    uint160 b1;\r\n    uint160 b2;\r\n    for (uint i = 2; i < 2 + 2 * 20; i += 2) {\r\n        iaddr *= 256;\r\n        b1 = uint160(uint8(tmp[i]));\r\n        b2 = uint160(uint8(tmp[i + 1]));\r\n        if ((b1 >= 97) && (b1 <= 102)) {\r\n            b1 -= 87;\r\n        } else if ((b1 >= 65) && (b1 <= 70)) {\r\n            b1 -= 55;\r\n        } else if ((b1 >= 48) && (b1 <= 57)) {\r\n            b1 -= 48;\r\n        }\r\n        if ((b2 >= 97) && (b2 <= 102)) {\r\n            b2 -= 87;\r\n        } else if ((b2 >= 65) && (b2 <= 70)) {\r\n            b2 -= 55;\r\n        } else if ((b2 >= 48) && (b2 <= 57)) {\r\n            b2 -= 48;\r\n        }\r\n        iaddr += (b1 * 16 + b2);\r\n    }\r\n    return address(iaddr);\r\n} \r\n\r\n\r\n    function RegisterSeller(\r\n\r\n        string memory SellerAddress,\r\n        string memory Name, \r\n        string memory Email, \r\n        uint Phone,\r\n        // string memory CurrentAdd,\r\n        string memory Password,\r\n        string memory Aadhaar)  \r\n        external\r\n    {\r\n \r\n    \r\n\r\n    address a= parseAddr(SellerAddress);\r\n    require(a==msg.sender,\r\n        \"This address is already registered as another Seller or Buyer\");\r\n\r\n        SellerMapping[a]=SellerDetails(\r\n        msg.sender,\r\n        Name, \r\n        Email,\r\n        Phone,\r\n        // CurrentAdd,\r\n        Password,\r\n        Aadhaar);\r\n     \r\n    emit SellerRegistration(\r\n        msg.sender,\r\n        Name, \r\n        Email,\r\n        Phone,\r\n        // CurrentAdd,\r\n        Password,\r\n        Aadhaar);\r\n\r\n    }\r\n\r\n    function GetSellerDetails(address SellerAddress) \r\n        \r\n        public view returns(\r\n        string memory, \r\n        string memory, \r\n        uint,\r\n        // string memory,\r\n        string memory,\r\n        string memory) \r\n    { \r\n        return(\r\n        SellerMapping[SellerAddress].Name,\r\n        SellerMapping[SellerAddress].Email,\r\n        SellerMapping[SellerAddress].Phone,\r\n        // SellerMapping[SellerAddress].CurrentAdd,\r\n        SellerMapping[SellerAddress].Password,\r\n        SellerMapping[SellerAddress].Aadhaar);\r\n        \r\n        \r\n    }\r\n\r\n   \r\n\r\n\r\n    function UpdateSellerDetails(\r\n\r\n        string memory SellerAddress, \r\n        string memory _Name, \r\n        string memory _Email, \r\n        uint _Phone, \r\n        // string memory _CurrentAdd, \r\n        string memory _Password, \r\n        string memory _Aadhaar) external \r\n    {\r\n\r\n    address b= parseAddr(SellerAddress);\r\n    require(b==msg.sender,\r\n        \"This address is already registered as another Seller or Buyer\");\r\n   \r\n        SellerMapping[b].Name = _Name;\r\n        SellerMapping[b].Email = _Email;\r\n        SellerMapping[b].Phone = _Phone;\r\n        // SellerMapping[b].CurrentAdd = _CurrentAdd;\r\n        SellerMapping[b].Password = _Password;\r\n        SellerMapping[b].Aadhaar = _Aadhaar;\r\n\r\n    }\r\n\r\n   \r\n    /*\r\n\r\n    /////////////////// Register Buyer ////////////////\r\n    //////// we will register Buyer with Buyer details\r\n    //////// If Buyer is registered then PropertyInpector either verify that Buyer \r\n    //////// or reject that buyer\r\n    //////// We can also update the Buyer details \r\n    //////// We can check if Buyer is verified or not\r\n    \r\n    \r\n    */  \r\n    \r\n   function RegisterBuyer(\r\n\r\n        string memory BuyerAddress,\r\n        string memory Name,\r\n        uint Age,\r\n        string memory City,\r\n        string memory Email) \r\n        external \r\n    {\r\n    \r\n    address c= parseAddr(BuyerAddress);\r\n    require(c==msg.sender,\r\n        \"This address is already registered\");\r\n    \r\n        BuyerMapping[c]=BuyerDetails(\r\n        msg.sender,\r\n        Name,\r\n        Age,\r\n        City, \r\n        Email,\r\n        false);\r\n\r\n    emit BuyerRegistration(\r\n        msg.sender,\r\n        Name, \r\n        Age,\r\n        City,\r\n        Email);\r\n        \r\n    }\r\n\r\n    function GetBuyerDetails(address BuyerAddress)\r\n        \r\n        external view returns(\r\n        string memory, \r\n        uint,\r\n        string memory,\r\n        string memory) \r\n    { \r\n        return(\r\n        BuyerMapping[BuyerAddress].Name,\r\n        BuyerMapping[BuyerAddress].Age,\r\n        BuyerMapping[BuyerAddress].City,\r\n        BuyerMapping[BuyerAddress].Email);\r\n\r\n    }\r\n\r\n    function UpdateBuyerDetails(\r\n        \r\n        string memory BuyerAddress, \r\n        string memory _Name, \r\n        uint _Age, \r\n        string memory _City, \r\n        string memory _Email) \r\n        external \r\n    {\r\n    \r\n    address d= parseAddr(BuyerAddress);\r\n    require(d==msg.sender,\r\n        \"This address is already registered as seller or buyer\");\r\n\r\n        BuyerMapping[d].Name = _Name;\r\n        BuyerMapping[d].Age = _Age;\r\n        BuyerMapping[d].City = _City;\r\n        BuyerMapping[d].Email = _Email;\r\n\r\n    }\r\n   \r\n    /*\r\n     \r\n    ///////////////////////// Add Property Details //////////////////\r\n    /////// If seller is verified then seller upload Property details\r\n    /////// if seller is not verified by PropertyInspector they cannot add the Property details.  \r\n    /////// PropertyInspector will also verify the Property added by seller by PropertyID \r\n    /////// We can get Property details by PropertyID\r\n    /////// We can check who is the owner of this Property by PropertyID \r\n    //////// We can check who is the current owner of this Property. \r\n    \r\n    */\r\n     \r\n    function RegisterProperty(\r\n        \r\n        uint PropertyId,\r\n        address payable OwnerAddress,\r\n        uint Rooms,\r\n        string memory Furnished,\r\n        string memory RentOrSale,\r\n        uint Area,\r\n        string memory City,\r\n        string memory State,\r\n        uint PropertyPrice,\r\n        uint PropertyPID) \r\n        external  \r\n    {\r\n \r\n    require(OwnerAddress==msg.sender,\r\n        \"Seller address must be the OwnerAddress\");\r\n    \r\n   \r\n        PropertyMapping[PropertyId]= PropertyRegistry( \r\n        OwnerAddress, \r\n        Rooms,\r\n        Furnished,\r\n        RentOrSale,\r\n        Area, \r\n        City, \r\n        State, \r\n        PropertyPrice, \r\n        PropertyPID, \r\n        false);\r\n\r\n    }\r\n\r\n    function GetPropertyDetails(uint PropertyId) \r\n        \r\n        internal view returns(\r\n        address,\r\n        uint,\r\n        string memory, \r\n        string memory,\r\n        uint,\r\n        string memory, \r\n        string memory,\r\n        uint,\r\n        uint)\r\n    {\r\n        return(\r\n\r\n        PropertyMapping[PropertyId].OwnerAddress,\r\n        PropertyMapping[PropertyId].Rooms,\r\n        PropertyMapping[PropertyId].Furnished,\r\n        PropertyMapping[PropertyId].RentOrSale,\r\n        PropertyMapping[PropertyId].Area,\r\n        PropertyMapping[PropertyId].City,\r\n        PropertyMapping[PropertyId].State,\r\n        PropertyMapping[PropertyId].PropertyPrice,\r\n        PropertyMapping[PropertyId].PropertyPID);\r\n    \r\n    }\r\n   \r\n    function GetPropertyCity(uint  _GetPropertyCity)\r\n        public view returns(\r\n        string memory)\r\n    {\r\n        return \r\n        PropertyMapping[_GetPropertyCity].City;\r\n\r\n    }\r\n\r\n    function GetPropertyPrice(uint  _GetPropertyPrice) \r\n        public view returns(uint)\r\n    {\r\n        return \r\n        PropertyMapping[_GetPropertyPrice].PropertyPrice;\r\n\r\n    }\r\n\r\n    function GetPropertyArea(uint  _GetPropertyArea)\r\n        public view returns(uint)\r\n    {\r\n        return \r\n        PropertyMapping[_GetPropertyArea].Area;\r\n\r\n    }\r\n\r\n    function CurrentPropertyOwner(uint PropertyId)\r\n        public view returns(\r\n        address)\r\n    {\r\n        return \r\n        PropertyMapping[PropertyId].OwnerAddress;\r\n    \r\n    }\r\n\r\n    /*\r\n\r\n    ////////////////////////////////// Buy Property //////////////////////\r\n    //////// Buyer can buy the Property only if buyer and Property both is verified\r\n    //////// buyer need to give the  amount and Propertyid that they wants to buy \r\n    \r\n    */\r\n\r\n    function BuyProperty(\r\n         \r\n        uint PropertyId) \r\n        public payable returns(uint)\r\n    {\r\n    // require(PropertyMapping[PropertyId].IsPropertyVerified=true, \r\n    //     \"Property is not verified by PropertyInspector\");\r\n\r\n    require(BuyerMapping[msg.sender].BuyerAddress == msg.sender,\r\n        \"Only buyer is allowed to buy Property\");\r\n\r\n    require(msg.value == PropertyMapping[PropertyId].PropertyPrice,\r\n        \" Not enough ether, it must be equal to PropertyPrice \");\r\n    \r\n        PropertyMapping[PropertyId].OwnerAddress.transfer(msg.value);\r\n    return\r\n    msg.value;\r\n    }\r\n\r\n    /*\r\n    \r\n    ////////////////////// TransferOwnership /////////////////////\r\n    //////// Owenrship will change to current owner to newOnwer.\r\n    //////// Owner of the Property can transfer their Property to any address if \r\n    //////// the is Property is verified by  PropertyInspector \r\n\r\n    */\r\n    \r\n    function TransferOwnerShip(\r\n        \r\n        uint PropertyId, \r\n        address payable NewOwnerAddress) \r\n        public \r\n    {\r\n    \r\n    require(PropertyMapping[PropertyId].IsPropertyVerified=true,\r\n        \"Property must be verified by Propertyinspector\");\r\n   \r\n    require(PropertyMapping[PropertyId].OwnerAddress == msg.sender,\r\n        \"YOU ARE NOT THE OWNER OF THIS PROPERTY\");\r\n   \r\n    require(PropertyMapping[PropertyId].OwnerAddress != NewOwnerAddress,\r\n        \"NewOwner address must be unique\"); \r\n   \r\n        PropertyMapping[PropertyId].OwnerAddress=NewOwnerAddress;\r\n    }\r\n\r\n    /*\r\n    ////////////// Check buyer and seller account balance to \r\n    ////////////// confirm transaction\r\n    */\r\n    \r\n    function ShowBalance(\r\n        \r\n        address _address) \r\n        external view returns(uint)\r\n    {\r\n        return address(_address).balance;\r\n    }\r\n}",
  "sourcePath": "D:\\OLX\\contracts\\Crypto.sol",
  "compiler": {
    "name": "solc",
    "version": "0.8.17+commit.8df45f5f.Emscripten.clang"
  },
  "schemaVersion": "3.4.11",
  "updatedAt": "2023-04-05T08:22:09.920Z",
  "devdoc": {
    "kind": "dev",
    "methods": {},
    "version": 1
  },
  "userdoc": {
    "kind": "user",
    "methods": {},
    "version": 1
  }
}