{
  "contractName": "NextStage",
  "abi": [
    {
      "anonymous": false,
      "inputs": [
        {
          "indexed": false,
          "internalType": "address",
          "name": "_BuyerRegistered",
          "type": "address"
        },
        {
          "indexed": false,
          "internalType": "string",
          "name": "Name",
          "type": "string"
        },
        {
          "indexed": false,
          "internalType": "uint256",
          "name": "Age",
          "type": "uint256"
        },
        {
          "indexed": false,
          "internalType": "string",
          "name": "City",
          "type": "string"
        },
        {
          "indexed": false,
          "internalType": "string",
          "name": "Email",
          "type": "string"
        }
      ],
      "name": "BuyerRegistration",
      "type": "event"
    },
    {
      "anonymous": false,
      "inputs": [
        {
          "indexed": false,
          "internalType": "address",
          "name": "_Id",
          "type": "address"
        }
      ],
      "name": "Rejected",
      "type": "event"
    },
    {
      "anonymous": false,
      "inputs": [
        {
          "indexed": false,
          "internalType": "address",
          "name": "_SellerRegistered",
          "type": "address"
        },
        {
          "indexed": false,
          "internalType": "string",
          "name": "Name",
          "type": "string"
        },
        {
          "indexed": false,
          "internalType": "string",
          "name": "Email",
          "type": "string"
        },
        {
          "indexed": false,
          "internalType": "uint256",
          "name": "Phone",
          "type": "uint256"
        },
        {
          "indexed": false,
          "internalType": "string",
          "name": "Password",
          "type": "string"
        },
        {
          "indexed": false,
          "internalType": "string",
          "name": "Aadhaar",
          "type": "string"
        }
      ],
      "name": "SellerRegistration",
      "type": "event"
    },
    {
      "anonymous": false,
      "inputs": [
        {
          "indexed": false,
          "internalType": "address",
          "name": "_Id",
          "type": "address"
        }
      ],
      "name": "Verified",
      "type": "event"
    },
    {
      "stateMutability": "payable",
      "type": "fallback"
    },
    {
      "inputs": [
        {
          "internalType": "address",
          "name": "",
          "type": "address"
        }
      ],
      "name": "BuyerMapping",
      "outputs": [
        {
          "internalType": "address",
          "name": "BuyerAddress",
          "type": "address"
        },
        {
          "internalType": "string",
          "name": "Name",
          "type": "string"
        },
        {
          "internalType": "uint256",
          "name": "Age",
          "type": "uint256"
        },
        {
          "internalType": "string",
          "name": "City",
          "type": "string"
        },
        {
          "internalType": "string",
          "name": "Email",
          "type": "string"
        },
        {
          "internalType": "bool",
          "name": "IsBuyerVerified",
          "type": "bool"
        }
      ],
      "stateMutability": "view",
      "type": "function"
    },
    {
      "inputs": [
        {
          "internalType": "uint256",
          "name": "",
          "type": "uint256"
        }
      ],
      "name": "PropertyMapping",
      "outputs": [
        {
          "internalType": "address payable",
          "name": "OwnerAddress",
          "type": "address"
        },
        {
          "internalType": "uint256",
          "name": "Rooms",
          "type": "uint256"
        },
        {
          "internalType": "string",
          "name": "Furnished",
          "type": "string"
        },
        {
          "internalType": "string",
          "name": "RentOrSale",
          "type": "string"
        },
        {
          "internalType": "uint256",
          "name": "Area",
          "type": "uint256"
        },
        {
          "internalType": "string",
          "name": "City",
          "type": "string"
        },
        {
          "internalType": "string",
          "name": "State",
          "type": "string"
        },
        {
          "internalType": "uint256",
          "name": "PropertyPrice",
          "type": "uint256"
        },
        {
          "internalType": "uint256",
          "name": "PropertyPID",
          "type": "uint256"
        },
        {
          "internalType": "bool",
          "name": "IsPropertyVerified",
          "type": "bool"
        }
      ],
      "stateMutability": "view",
      "type": "function"
    },
    {
      "inputs": [
        {
          "internalType": "address",
          "name": "",
          "type": "address"
        }
      ],
      "name": "SellerMapping",
      "outputs": [
        {
          "internalType": "address",
          "name": "SellerAddress",
          "type": "address"
        },
        {
          "internalType": "string",
          "name": "Name",
          "type": "string"
        },
        {
          "internalType": "string",
          "name": "Email",
          "type": "string"
        },
        {
          "internalType": "uint256",
          "name": "Phone",
          "type": "uint256"
        },
        {
          "internalType": "string",
          "name": "Password",
          "type": "string"
        },
        {
          "internalType": "string",
          "name": "Aadhaar",
          "type": "string"
        },
        {
          "internalType": "bool",
          "name": "IsSellerVerified",
          "type": "bool"
        }
      ],
      "stateMutability": "view",
      "type": "function"
    },
    {
      "stateMutability": "payable",
      "type": "receive"
    },
    {
      "inputs": [
        {
          "internalType": "address",
          "name": "SellerAddress",
          "type": "address"
        },
        {
          "internalType": "string",
          "name": "Name",
          "type": "string"
        },
        {
          "internalType": "string",
          "name": "Email",
          "type": "string"
        },
        {
          "internalType": "uint256",
          "name": "Phone",
          "type": "uint256"
        },
        {
          "internalType": "string",
          "name": "Password",
          "type": "string"
        },
        {
          "internalType": "string",
          "name": "Aadhaar",
          "type": "string"
        }
      ],
      "name": "RegisterSeller",
      "outputs": [],
      "stateMutability": "nonpayable",
      "type": "function"
    },
    {
      "inputs": [
        {
          "internalType": "address",
          "name": "SellerAddress",
          "type": "address"
        }
      ],
      "name": "GetSellerDetails",
      "outputs": [
        {
          "internalType": "string",
          "name": "",
          "type": "string"
        },
        {
          "internalType": "string",
          "name": "",
          "type": "string"
        },
        {
          "internalType": "uint256",
          "name": "",
          "type": "uint256"
        },
        {
          "internalType": "string",
          "name": "",
          "type": "string"
        },
        {
          "internalType": "string",
          "name": "",
          "type": "string"
        }
      ],
      "stateMutability": "view",
      "type": "function"
    },
    {
      "inputs": [
        {
          "internalType": "address",
          "name": "SellerAddress",
          "type": "address"
        },
        {
          "internalType": "string",
          "name": "_Name",
          "type": "string"
        },
        {
          "internalType": "string",
          "name": "_Email",
          "type": "string"
        },
        {
          "internalType": "uint256",
          "name": "_Phone",
          "type": "uint256"
        },
        {
          "internalType": "string",
          "name": "_Password",
          "type": "string"
        },
        {
          "internalType": "string",
          "name": "_Aadhaar",
          "type": "string"
        }
      ],
      "name": "UpdateSellerDetails",
      "outputs": [],
      "stateMutability": "nonpayable",
      "type": "function"
    },
    {
      "inputs": [
        {
          "internalType": "address",
          "name": "BuyerAddress",
          "type": "address"
        },
        {
          "internalType": "string",
          "name": "Name",
          "type": "string"
        },
        {
          "internalType": "uint256",
          "name": "Age",
          "type": "uint256"
        },
        {
          "internalType": "string",
          "name": "City",
          "type": "string"
        },
        {
          "internalType": "string",
          "name": "Email",
          "type": "string"
        }
      ],
      "name": "RegisterBuyer",
      "outputs": [],
      "stateMutability": "nonpayable",
      "type": "function"
    },
    {
      "inputs": [
        {
          "internalType": "address",
          "name": "BuyerAddress",
          "type": "address"
        }
      ],
      "name": "GetBuyerDetails",
      "outputs": [
        {
          "internalType": "string",
          "name": "",
          "type": "string"
        },
        {
          "internalType": "uint256",
          "name": "",
          "type": "uint256"
        },
        {
          "internalType": "string",
          "name": "",
          "type": "string"
        },
        {
          "internalType": "string",
          "name": "",
          "type": "string"
        }
      ],
      "stateMutability": "view",
      "type": "function"
    },
    {
      "inputs": [
        {
          "internalType": "address",
          "name": "BuyerAddress",
          "type": "address"
        },
        {
          "internalType": "string",
          "name": "_Name",
          "type": "string"
        },
        {
          "internalType": "uint256",
          "name": "_Age",
          "type": "uint256"
        },
        {
          "internalType": "string",
          "name": "_City",
          "type": "string"
        },
        {
          "internalType": "string",
          "name": "_Email",
          "type": "string"
        }
      ],
      "name": "UpdateBuyerDetails",
      "outputs": [],
      "stateMutability": "nonpayable",
      "type": "function"
    },
    {
      "inputs": [
        {
          "internalType": "uint256",
          "name": "PropertyId",
          "type": "uint256"
        },
        {
          "internalType": "address payable",
          "name": "OwnerAddress",
          "type": "address"
        },
        {
          "internalType": "uint256",
          "name": "Rooms",
          "type": "uint256"
        },
        {
          "internalType": "string",
          "name": "Furnished",
          "type": "string"
        },
        {
          "internalType": "string",
          "name": "RentOrSale",
          "type": "string"
        },
        {
          "internalType": "uint256",
          "name": "Area",
          "type": "uint256"
        },
        {
          "internalType": "string",
          "name": "City",
          "type": "string"
        },
        {
          "internalType": "string",
          "name": "State",
          "type": "string"
        },
        {
          "internalType": "uint256",
          "name": "PropertyPrice",
          "type": "uint256"
        },
        {
          "internalType": "uint256",
          "name": "PropertyPID",
          "type": "uint256"
        }
      ],
      "name": "RegisterProperty",
      "outputs": [],
      "stateMutability": "nonpayable",
      "type": "function"
    },
    {
      "inputs": [
        {
          "internalType": "uint256",
          "name": "_GetPropertyCity",
          "type": "uint256"
        }
      ],
      "name": "GetPropertyCity",
      "outputs": [
        {
          "internalType": "string",
          "name": "",
          "type": "string"
        }
      ],
      "stateMutability": "view",
      "type": "function"
    },
    {
      "inputs": [
        {
          "internalType": "uint256",
          "name": "_GetPropertyPrice",
          "type": "uint256"
        }
      ],
      "name": "GetPropertyPrice",
      "outputs": [
        {
          "internalType": "uint256",
          "name": "",
          "type": "uint256"
        }
      ],
      "stateMutability": "view",
      "type": "function"
    },
    {
      "inputs": [
        {
          "internalType": "uint256",
          "name": "_GetPropertyArea",
          "type": "uint256"
        }
      ],
      "name": "GetPropertyArea",
      "outputs": [
        {
          "internalType": "uint256",
          "name": "",
          "type": "uint256"
        }
      ],
      "stateMutability": "view",
      "type": "function"
    },
    {
      "inputs": [
        {
          "internalType": "uint256",
          "name": "PropertyId",
          "type": "uint256"
        }
      ],
      "name": "CurrentPropertyOwner",
      "outputs": [
        {
          "internalType": "address",
          "name": "",
          "type": "address"
        }
      ],
      "stateMutability": "view",
      "type": "function"
    },
    {
      "inputs": [
        {
          "internalType": "uint256",
          "name": "PropertyId",
          "type": "uint256"
        }
      ],
      "name": "BuyProperty",
      "outputs": [
        {
          "internalType": "uint256",
          "name": "",
          "type": "uint256"
        }
      ],
      "stateMutability": "payable",
      "type": "function"
    },
    {
      "inputs": [
        {
          "internalType": "uint256",
          "name": "PropertyId",
          "type": "uint256"
        },
        {
          "internalType": "address payable",
          "name": "NewOwnerAddress",
          "type": "address"
        }
      ],
      "name": "TransferOwnerShip",
      "outputs": [],
      "stateMutability": "nonpayable",
      "type": "function"
    },
    {
      "inputs": [
        {
          "internalType": "address",
          "name": "_address",
          "type": "address"
        }
      ],
      "name": "ShowBalance",
      "outputs": [
        {
          "internalType": "uint256",
          "name": "",
          "type": "uint256"
        }
      ],
      "stateMutability": "view",
      "type": "function"
    }
  ],
  "bytecode": "0x608060405234801561001057600080fd5b5061367f806100206000396000f3fe6080604052600436106101025760003560e01c8063777904a811610095578063d260dca611610064578063d260dca61461042f578063d6ff91271461046c578063dec091ad146104ad578063e54bd53e146104f0578063ed3f60761461052d5761015d565b8063777904a814610372578063939c41d41461039b578063ab06c9b0146103c4578063ab517074146103ed5761015d565b806342a8b53e116100d157806342a8b53e1461029d5780635e9c582f146102c65780636059fd951461030c57806371ae0e4e146103495761015d565b8063060d4f0b146101b357806321c48c0d146101f057806325a596001461022d57806338b176bd1461025d5761015d565b3661015d57346000803373ffffffffffffffffffffffffffffffffffffffff1673ffffffffffffffffffffffffffffffffffffffff1681526020019081526020016000206000828254610155919061234c565b925050819055005b346000803373ffffffffffffffffffffffffffffffffffffffff1673ffffffffffffffffffffffffffffffffffffffff16815260200190815260200160002060008282546101ab919061234c565b925050819055005b3480156101bf57600080fd5b506101da60048036038101906101d591906123c0565b610556565b6040516101e7919061247d565b60405180910390f35b3480156101fc57600080fd5b50610217600480360381019061021291906124fd565b6105fe565b6040516102249190612539565b60405180910390f35b610247600480360381019061024291906123c0565b61061f565b6040516102549190612539565b60405180910390f35b34801561026957600080fd5b50610284600480360381019061027f91906124fd565b61083b565b6040516102949493929190612554565b60405180910390f35b3480156102a957600080fd5b506102c460048036038101906102bf91906126e3565b610afe565b005b3480156102d257600080fd5b506102ed60048036038101906102e891906123c0565b610caa565b6040516103039a999897969594939291906127ee565b60405180910390f35b34801561031857600080fd5b50610333600480360381019061032e91906123c0565b610f4b565b6040516103409190612539565b60405180910390f35b34801561035557600080fd5b50610370600480360381019061036b91906128d2565b610f6b565b005b34801561037e57600080fd5b50610399600480360381019061039491906126e3565b611143565b005b3480156103a757600080fd5b506103c260048036038101906103bd9190612a21565b611332565b005b3480156103d057600080fd5b506103eb60048036038101906103e69190612b1e565b61152f565b005b3480156103f957600080fd5b50610414600480360381019061040f91906124fd565b61173d565b60405161042696959493929190612b6d565b60405180910390f35b34801561043b57600080fd5b50610456600480360381019061045191906123c0565b61193e565b6040516104639190612539565b60405180910390f35b34801561047857600080fd5b50610493600480360381019061048e91906124fd565b61195e565b6040516104a4959493929190612be3565b60405180910390f35b3480156104b957600080fd5b506104d460048036038101906104cf91906124fd565b611cf4565b6040516104e79796959493929190612c52565b60405180910390f35b3480156104fc57600080fd5b50610517600480360381019061051291906123c0565b611f83565b6040516105249190612cdd565b60405180910390f35b34801561053957600080fd5b50610554600480360381019061054f9190612a21565b611fc3565b005b606060026000838152602001908152602001600020600501805461057990612d27565b80601f01602080910402602001604051908101604052809291908181526020018280546105a590612d27565b80156105f25780601f106105c7576101008083540402835291602001916105f2565b820191906000526020600020905b8154815290600101906020018083116105d557829003601f168201915b50505050509050919050565b60008173ffffffffffffffffffffffffffffffffffffffff16319050919050565b600060016002600084815260200190815260200160002060090160006101000a81548160ff021916908315150217905561068e576040517f08c379a000000000000000000000000000000000000000000000000000000000815260040161068590612dca565b60405180910390fd5b3373ffffffffffffffffffffffffffffffffffffffff16600460003373ffffffffffffffffffffffffffffffffffffffff1673ffffffffffffffffffffffffffffffffffffffff16815260200190815260200160002060000160009054906101000a900473ffffffffffffffffffffffffffffffffffffffff1673ffffffffffffffffffffffffffffffffffffffff161461075e576040517f08c379a000000000000000000000000000000000000000000000000000000000815260040161075590612e5c565b60405180910390fd5b600260008381526020019081526020016000206007015434146107b6576040517f08c379a00000000000000000000000000000000000000000000000000000000081526004016107ad90612eee565b60405180910390fd5b6002600083815260200190815260200160002060000160009054906101000a900473ffffffffffffffffffffffffffffffffffffffff1673ffffffffffffffffffffffffffffffffffffffff166108fc349081150290604051600060405180830381858888f19350505050158015610832573d6000803e3d6000fd5b50349050919050565b60606000606080600460008673ffffffffffffffffffffffffffffffffffffffff1673ffffffffffffffffffffffffffffffffffffffff168152602001908152602001600020600101600460008773ffffffffffffffffffffffffffffffffffffffff1673ffffffffffffffffffffffffffffffffffffffff16815260200190815260200160002060020154600460008873ffffffffffffffffffffffffffffffffffffffff1673ffffffffffffffffffffffffffffffffffffffff168152602001908152602001600020600301600460008973ffffffffffffffffffffffffffffffffffffffff1673ffffffffffffffffffffffffffffffffffffffff16815260200190815260200160002060040183805461095790612d27565b80601f016020809104026020016040519081016040528092919081815260200182805461098390612d27565b80156109d05780601f106109a5576101008083540402835291602001916109d0565b820191906000526020600020905b8154815290600101906020018083116109b357829003601f168201915b505050505093508180546109e390612d27565b80601f0160208091040260200160405190810160405280929190818152602001828054610a0f90612d27565b8015610a5c5780601f10610a3157610100808354040283529160200191610a5c565b820191906000526020600020905b815481529060010190602001808311610a3f57829003601f168201915b50505050509150808054610a6f90612d27565b80601f0160208091040260200160405190810160405280929190818152602001828054610a9b90612d27565b8015610ae85780601f10610abd57610100808354040283529160200191610ae8565b820191906000526020600020905b815481529060010190602001808311610acb57829003601f168201915b5050505050905093509350935093509193509193565b3373ffffffffffffffffffffffffffffffffffffffff168573ffffffffffffffffffffffffffffffffffffffff1614610b6c576040517f08c379a0000000000000000000000000000000000000000000000000000000008152600401610b6390612f80565b60405180910390fd5b83600460008773ffffffffffffffffffffffffffffffffffffffff1673ffffffffffffffffffffffffffffffffffffffff1681526020019081526020016000206001019081610bbb919061314c565b5082600460008773ffffffffffffffffffffffffffffffffffffffff1673ffffffffffffffffffffffffffffffffffffffff1681526020019081526020016000206002018190555081600460008773ffffffffffffffffffffffffffffffffffffffff1673ffffffffffffffffffffffffffffffffffffffff1681526020019081526020016000206003019081610c52919061314c565b5080600460008773ffffffffffffffffffffffffffffffffffffffff1673ffffffffffffffffffffffffffffffffffffffff1681526020019081526020016000206004019081610ca2919061314c565b505050505050565b60026020528060005260406000206000915090508060000160009054906101000a900473ffffffffffffffffffffffffffffffffffffffff1690806001015490806002018054610cf990612d27565b80601f0160208091040260200160405190810160405280929190818152602001828054610d2590612d27565b8015610d725780601f10610d4757610100808354040283529160200191610d72565b820191906000526020600020905b815481529060010190602001808311610d5557829003601f168201915b505050505090806003018054610d8790612d27565b80601f0160208091040260200160405190810160405280929190818152602001828054610db390612d27565b8015610e005780601f10610dd557610100808354040283529160200191610e00565b820191906000526020600020905b815481529060010190602001808311610de357829003601f168201915b505050505090806004015490806005018054610e1b90612d27565b80601f0160208091040260200160405190810160405280929190818152602001828054610e4790612d27565b8015610e945780601f10610e6957610100808354040283529160200191610e94565b820191906000526020600020905b815481529060010190602001808311610e7757829003601f168201915b505050505090806006018054610ea990612d27565b80601f0160208091040260200160405190810160405280929190818152602001828054610ed590612d27565b8015610f225780601f10610ef757610100808354040283529160200191610f22565b820191906000526020600020905b815481529060010190602001808311610f0557829003601f168201915b5050505050908060070154908060080154908060090160009054906101000a900460ff1690508a565b600060026000838152602001908152602001600020600401549050919050565b3373ffffffffffffffffffffffffffffffffffffffff168973ffffffffffffffffffffffffffffffffffffffff1614610fd9576040517f08c379a0000000000000000000000000000000000000000000000000000000008152600401610fd090613290565b60405180910390fd5b6040518061014001604052808a73ffffffffffffffffffffffffffffffffffffffff16815260200189815260200188815260200187815260200186815260200185815260200184815260200183815260200182815260200160001515815250600260008c815260200190815260200160002060008201518160000160006101000a81548173ffffffffffffffffffffffffffffffffffffffff021916908373ffffffffffffffffffffffffffffffffffffffff1602179055506020820151816001015560408201518160020190816110b1919061314c565b5060608201518160030190816110c7919061314c565b506080820151816004015560a08201518160050190816110e7919061314c565b5060c08201518160060190816110fd919061314c565b5060e0820151816007015561010082015181600801556101208201518160090160006101000a81548160ff02191690831515021790555090505050505050505050505050565b3373ffffffffffffffffffffffffffffffffffffffff168573ffffffffffffffffffffffffffffffffffffffff16146111b1576040517f08c379a00000000000000000000000000000000000000000000000000000000081526004016111a890613322565b60405180910390fd5b6040518060c001604052803373ffffffffffffffffffffffffffffffffffffffff16815260200185815260200184815260200183815260200182815260200160001515815250600460008773ffffffffffffffffffffffffffffffffffffffff1673ffffffffffffffffffffffffffffffffffffffff16815260200190815260200160002060008201518160000160006101000a81548173ffffffffffffffffffffffffffffffffffffffff021916908373ffffffffffffffffffffffffffffffffffffffff1602179055506020820151816001019081611292919061314c565b506040820151816002015560608201518160030190816112b2919061314c565b5060808201518160040190816112c8919061314c565b5060a08201518160050160006101000a81548160ff0219169083151502179055509050507f9495c6c4c5cf6ee53917b75724efb219b9e359716e778aa4826a1e1ee996ed503385858585604051611323959493929190613342565b60405180910390a15050505050565b3373ffffffffffffffffffffffffffffffffffffffff168673ffffffffffffffffffffffffffffffffffffffff16146113a0576040517f08c379a00000000000000000000000000000000000000000000000000000000081526004016113979061341c565b60405180910390fd5b84600360008873ffffffffffffffffffffffffffffffffffffffff1673ffffffffffffffffffffffffffffffffffffffff16815260200190815260200160002060010190816113ef919061314c565b5083600360008873ffffffffffffffffffffffffffffffffffffffff1673ffffffffffffffffffffffffffffffffffffffff168152602001908152602001600020600201908161143f919061314c565b5082600360008873ffffffffffffffffffffffffffffffffffffffff1673ffffffffffffffffffffffffffffffffffffffff1681526020019081526020016000206003018190555081600360008873ffffffffffffffffffffffffffffffffffffffff1673ffffffffffffffffffffffffffffffffffffffff16815260200190815260200160002060040190816114d6919061314c565b5080600360008873ffffffffffffffffffffffffffffffffffffffff1673ffffffffffffffffffffffffffffffffffffffff1681526020019081526020016000206005019081611526919061314c565b50505050505050565b60016002600084815260200190815260200160002060090160006101000a81548160ff021916908315150217905561159c576040517f08c379a0000000000000000000000000000000000000000000000000000000008152600401611593906134ae565b60405180910390fd5b3373ffffffffffffffffffffffffffffffffffffffff166002600084815260200190815260200160002060000160009054906101000a900473ffffffffffffffffffffffffffffffffffffffff1673ffffffffffffffffffffffffffffffffffffffff1614611640576040517f08c379a000000000000000000000000000000000000000000000000000000000815260040161163790613540565b60405180910390fd5b8073ffffffffffffffffffffffffffffffffffffffff166002600084815260200190815260200160002060000160009054906101000a900473ffffffffffffffffffffffffffffffffffffffff1673ffffffffffffffffffffffffffffffffffffffff16036116e4576040517f08c379a00000000000000000000000000000000000000000000000000000000081526004016116db906135ac565b60405180910390fd5b806002600084815260200190815260200160002060000160006101000a81548173ffffffffffffffffffffffffffffffffffffffff021916908373ffffffffffffffffffffffffffffffffffffffff1602179055505050565b60046020528060005260406000206000915090508060000160009054906101000a900473ffffffffffffffffffffffffffffffffffffffff169080600101805461178690612d27565b80601f01602080910402602001604051908101604052809291908181526020018280546117b290612d27565b80156117ff5780601f106117d4576101008083540402835291602001916117ff565b820191906000526020600020905b8154815290600101906020018083116117e257829003601f168201915b50505050509080600201549080600301805461181a90612d27565b80601f016020809104026020016040519081016040528092919081815260200182805461184690612d27565b80156118935780601f1061186857610100808354040283529160200191611893565b820191906000526020600020905b81548152906001019060200180831161187657829003601f168201915b5050505050908060040180546118a890612d27565b80601f01602080910402602001604051908101604052809291908181526020018280546118d490612d27565b80156119215780601f106118f657610100808354040283529160200191611921565b820191906000526020600020905b81548152906001019060200180831161190457829003601f168201915b5050505050908060050160009054906101000a900460ff16905086565b600060026000838152602001908152602001600020600701549050919050565b6060806000606080600360008773ffffffffffffffffffffffffffffffffffffffff1673ffffffffffffffffffffffffffffffffffffffff168152602001908152602001600020600101600360008873ffffffffffffffffffffffffffffffffffffffff1673ffffffffffffffffffffffffffffffffffffffff168152602001908152602001600020600201600360008973ffffffffffffffffffffffffffffffffffffffff1673ffffffffffffffffffffffffffffffffffffffff16815260200190815260200160002060030154600360008a73ffffffffffffffffffffffffffffffffffffffff1673ffffffffffffffffffffffffffffffffffffffff168152602001908152602001600020600401600360008b73ffffffffffffffffffffffffffffffffffffffff1673ffffffffffffffffffffffffffffffffffffffff168152602001908152602001600020600501848054611abd90612d27565b80601f0160208091040260200160405190810160405280929190818152602001828054611ae990612d27565b8015611b365780601f10611b0b57610100808354040283529160200191611b36565b820191906000526020600020905b815481529060010190602001808311611b1957829003601f168201915b50505050509450838054611b4990612d27565b80601f0160208091040260200160405190810160405280929190818152602001828054611b7590612d27565b8015611bc25780601f10611b9757610100808354040283529160200191611bc2565b820191906000526020600020905b815481529060010190602001808311611ba557829003601f168201915b50505050509350818054611bd590612d27565b80601f0160208091040260200160405190810160405280929190818152602001828054611c0190612d27565b8015611c4e5780601f10611c2357610100808354040283529160200191611c4e565b820191906000526020600020905b815481529060010190602001808311611c3157829003601f168201915b50505050509150808054611c6190612d27565b80601f0160208091040260200160405190810160405280929190818152602001828054611c8d90612d27565b8015611cda5780601f10611caf57610100808354040283529160200191611cda565b820191906000526020600020905b815481529060010190602001808311611cbd57829003601f168201915b505050505090509450945094509450945091939590929450565b60036020528060005260406000206000915090508060000160009054906101000a900473ffffffffffffffffffffffffffffffffffffffff1690806001018054611d3d90612d27565b80601f0160208091040260200160405190810160405280929190818152602001828054611d6990612d27565b8015611db65780601f10611d8b57610100808354040283529160200191611db6565b820191906000526020600020905b815481529060010190602001808311611d9957829003601f168201915b505050505090806002018054611dcb90612d27565b80601f0160208091040260200160405190810160405280929190818152602001828054611df790612d27565b8015611e445780601f10611e1957610100808354040283529160200191611e44565b820191906000526020600020905b815481529060010190602001808311611e2757829003601f168201915b505050505090806003015490806004018054611e5f90612d27565b80601f0160208091040260200160405190810160405280929190818152602001828054611e8b90612d27565b8015611ed85780601f10611ead57610100808354040283529160200191611ed8565b820191906000526020600020905b815481529060010190602001808311611ebb57829003601f168201915b505050505090806005018054611eed90612d27565b80601f0160208091040260200160405190810160405280929190818152602001828054611f1990612d27565b8015611f665780601f10611f3b57610100808354040283529160200191611f66565b820191906000526020600020905b815481529060010190602001808311611f4957829003601f168201915b5050505050908060060160009054906101000a900460ff16905087565b60006002600083815260200190815260200160002060000160009054906101000a900473ffffffffffffffffffffffffffffffffffffffff169050919050565b3373ffffffffffffffffffffffffffffffffffffffff168673ffffffffffffffffffffffffffffffffffffffff1614612031576040517f08c379a00000000000000000000000000000000000000000000000000000000081526004016120289061341c565b60405180910390fd5b60016040518060e001604052808873ffffffffffffffffffffffffffffffffffffffff16815260200187815260200186815260200185815260200184815260200183815260200160001515815250908060018154018082558091505060019003906000526020600020906007020160009091909190915060008201518160000160006101000a81548173ffffffffffffffffffffffffffffffffffffffff021916908373ffffffffffffffffffffffffffffffffffffffff1602179055506020820151816001019081612104919061314c565b50604082015181600201908161211a919061314c565b5060608201518160030155608082015181600401908161213a919061314c565b5060a0820151816005019081612150919061314c565b5060c08201518160060160006101000a81548160ff02191690831515021790555050506040518060e001604052803373ffffffffffffffffffffffffffffffffffffffff16815260200186815260200185815260200184815260200183815260200182815260200160001515815250600360008873ffffffffffffffffffffffffffffffffffffffff1673ffffffffffffffffffffffffffffffffffffffff16815260200190815260200160002060008201518160000160006101000a81548173ffffffffffffffffffffffffffffffffffffffff021916908373ffffffffffffffffffffffffffffffffffffffff160217905550602082015181600101908161225a919061314c565b506040820151816002019081612270919061314c565b50606082015181600301556080820151816004019081612290919061314c565b5060a08201518160050190816122a6919061314c565b5060c08201518160060160006101000a81548160ff0219169083151502179055509050507f75fca7cd7adde0f74d59342bfaff949b86ac689eeaf6ebfe2e74edba96f002c1338686868686604051612303969594939291906135cc565b60405180910390a1505050505050565b6000819050919050565b7f4e487b7100000000000000000000000000000000000000000000000000000000600052601160045260246000fd5b600061235782612313565b915061236283612313565b925082820190508082111561237a5761237961231d565b5b92915050565b6000604051905090565b600080fd5b600080fd5b61239d81612313565b81146123a857600080fd5b50565b6000813590506123ba81612394565b92915050565b6000602082840312156123d6576123d561238a565b5b60006123e4848285016123ab565b91505092915050565b600081519050919050565b600082825260208201905092915050565b60005b8381101561242757808201518184015260208101905061240c565b60008484015250505050565b6000601f19601f8301169050919050565b600061244f826123ed565b61245981856123f8565b9350612469818560208601612409565b61247281612433565b840191505092915050565b600060208201905081810360008301526124978184612444565b905092915050565b600073ffffffffffffffffffffffffffffffffffffffff82169050919050565b60006124ca8261249f565b9050919050565b6124da816124bf565b81146124e557600080fd5b50565b6000813590506124f7816124d1565b92915050565b6000602082840312156125135761251261238a565b5b6000612521848285016124e8565b91505092915050565b61253381612313565b82525050565b600060208201905061254e600083018461252a565b92915050565b6000608082019050818103600083015261256e8187612444565b905061257d602083018661252a565b818103604083015261258f8185612444565b905081810360608301526125a38184612444565b905095945050505050565b600080fd5b600080fd5b7f4e487b7100000000000000000000000000000000000000000000000000000000600052604160045260246000fd5b6125f082612433565b810181811067ffffffffffffffff8211171561260f5761260e6125b8565b5b80604052505050565b6000612622612380565b905061262e82826125e7565b919050565b600067ffffffffffffffff82111561264e5761264d6125b8565b5b61265782612433565b9050602081019050919050565b82818337600083830152505050565b600061268661268184612633565b612618565b9050828152602081018484840111156126a2576126a16125b3565b5b6126ad848285612664565b509392505050565b600082601f8301126126ca576126c96125ae565b5b81356126da848260208601612673565b91505092915050565b600080600080600060a086880312156126ff576126fe61238a565b5b600061270d888289016124e8565b955050602086013567ffffffffffffffff81111561272e5761272d61238f565b5b61273a888289016126b5565b945050604061274b888289016123ab565b935050606086013567ffffffffffffffff81111561276c5761276b61238f565b5b612778888289016126b5565b925050608086013567ffffffffffffffff8111156127995761279861238f565b5b6127a5888289016126b5565b9150509295509295909350565b60006127bd8261249f565b9050919050565b6127cd816127b2565b82525050565b60008115159050919050565b6127e8816127d3565b82525050565b600061014082019050612804600083018d6127c4565b612811602083018c61252a565b8181036040830152612823818b612444565b90508181036060830152612837818a612444565b9050612846608083018961252a565b81810360a08301526128588188612444565b905081810360c083015261286c8187612444565b905061287b60e083018661252a565b61288961010083018561252a565b6128976101208301846127df565b9b9a5050505050505050505050565b6128af816127b2565b81146128ba57600080fd5b50565b6000813590506128cc816128a6565b92915050565b6000806000806000806000806000806101408b8d0312156128f6576128f561238a565b5b60006129048d828e016123ab565b9a505060206129158d828e016128bd565b99505060406129268d828e016123ab565b98505060608b013567ffffffffffffffff8111156129475761294661238f565b5b6129538d828e016126b5565b97505060808b013567ffffffffffffffff8111156129745761297361238f565b5b6129808d828e016126b5565b96505060a06129918d828e016123ab565b95505060c08b013567ffffffffffffffff8111156129b2576129b161238f565b5b6129be8d828e016126b5565b94505060e08b013567ffffffffffffffff8111156129df576129de61238f565b5b6129eb8d828e016126b5565b9350506101006129fd8d828e016123ab565b925050610120612a0f8d828e016123ab565b9150509295989b9194979a5092959850565b60008060008060008060c08789031215612a3e57612a3d61238a565b5b6000612a4c89828a016124e8565b965050602087013567ffffffffffffffff811115612a6d57612a6c61238f565b5b612a7989828a016126b5565b955050604087013567ffffffffffffffff811115612a9a57612a9961238f565b5b612aa689828a016126b5565b9450506060612ab789828a016123ab565b935050608087013567ffffffffffffffff811115612ad857612ad761238f565b5b612ae489828a016126b5565b92505060a087013567ffffffffffffffff811115612b0557612b0461238f565b5b612b1189828a016126b5565b9150509295509295509295565b60008060408385031215612b3557612b3461238a565b5b6000612b43858286016123ab565b9250506020612b54858286016128bd565b9150509250929050565b612b67816124bf565b82525050565b600060c082019050612b826000830189612b5e565b8181036020830152612b948188612444565b9050612ba3604083018761252a565b8181036060830152612bb58186612444565b90508181036080830152612bc98185612444565b9050612bd860a08301846127df565b979650505050505050565b600060a0820190508181036000830152612bfd8188612444565b90508181036020830152612c118187612444565b9050612c20604083018661252a565b8181036060830152612c328185612444565b90508181036080830152612c468184612444565b90509695505050505050565b600060e082019050612c67600083018a612b5e565b8181036020830152612c798189612444565b90508181036040830152612c8d8188612444565b9050612c9c606083018761252a565b8181036080830152612cae8186612444565b905081810360a0830152612cc28185612444565b9050612cd160c08301846127df565b98975050505050505050565b6000602082019050612cf26000830184612b5e565b92915050565b7f4e487b7100000000000000000000000000000000000000000000000000000000600052602260045260246000fd5b60006002820490506001821680612d3f57607f821691505b602082108103612d5257612d51612cf8565b5b50919050565b7f50726f7065727479206973206e6f742076657269666965642062792050726f7060008201527f65727479496e73706563746f7200000000000000000000000000000000000000602082015250565b6000612db4602d836123f8565b9150612dbf82612d58565b604082019050919050565b60006020820190508181036000830152612de381612da7565b9050919050565b7f4f6e6c7920627579657220697320616c6c6f77656420746f206275792050726f60008201527f7065727479000000000000000000000000000000000000000000000000000000602082015250565b6000612e466025836123f8565b9150612e5182612dea565b604082019050919050565b60006020820190508181036000830152612e7581612e39565b9050919050565b7f204e6f7420656e6f7567682065746865722c206974206d75737420626520657160008201527f75616c20746f2050726f70657274795072696365200000000000000000000000602082015250565b6000612ed86035836123f8565b9150612ee382612e7c565b604082019050919050565b60006020820190508181036000830152612f0781612ecb565b9050919050565b7f54686973206164647265737320697320616c726561647920726567697374657260008201527f65642061732073656c6c6572206f722062757965720000000000000000000000602082015250565b6000612f6a6035836123f8565b9150612f7582612f0e565b604082019050919050565b60006020820190508181036000830152612f9981612f5d565b9050919050565b60008190508160005260206000209050919050565b60006020601f8301049050919050565b600082821b905092915050565b6000600883026130027fffffffffffffffffffffffffffffffffffffffffffffffffffffffffffffffff82612fc5565b61300c8683612fc5565b95508019841693508086168417925050509392505050565b6000819050919050565b600061304961304461303f84612313565b613024565b612313565b9050919050565b6000819050919050565b6130638361302e565b61307761306f82613050565b848454612fd2565b825550505050565b600090565b61308c61307f565b61309781848461305a565b505050565b5b818110156130bb576130b0600082613084565b60018101905061309d565b5050565b601f821115613100576130d181612fa0565b6130da84612fb5565b810160208510156130e9578190505b6130fd6130f585612fb5565b83018261309c565b50505b505050565b600082821c905092915050565b600061312360001984600802613105565b1980831691505092915050565b600061313c8383613112565b9150826002028217905092915050565b613155826123ed565b67ffffffffffffffff81111561316e5761316d6125b8565b5b6131788254612d27565b6131838282856130bf565b600060209050601f8311600181146131b657600084156131a4578287015190505b6131ae8582613130565b865550613216565b601f1984166131c486612fa0565b60005b828110156131ec578489015182556001820191506020850194506020810190506131c7565b868310156132095784890151613205601f891682613112565b8355505b6001600288020188555050505b505050505050565b7f53656c6c65722061646472657373206d75737420626520746865204f776e657260008201527f4164647265737300000000000000000000000000000000000000000000000000602082015250565b600061327a6027836123f8565b91506132858261321e565b604082019050919050565b600060208201905081810360008301526132a98161326d565b9050919050565b7f54686973206164647265737320697320616c726561647920726567697374657260008201527f6564000000000000000000000000000000000000000000000000000000000000602082015250565b600061330c6022836123f8565b9150613317826132b0565b604082019050919050565b6000602082019050818103600083015261333b816132ff565b9050919050565b600060a0820190506133576000830188612b5e565b81810360208301526133698187612444565b9050613378604083018661252a565b818103606083015261338a8185612444565b9050818103608083015261339e8184612444565b90509695505050505050565b7f54686973206164647265737320697320616c726561647920726567697374657260008201527f656420617320616e6f746865722053656c6c6572206f72204275796572000000602082015250565b6000613406603d836123f8565b9150613411826133aa565b604082019050919050565b60006020820190508181036000830152613435816133f9565b9050919050565b7f50726f7065727479206d7573742062652076657269666965642062792050726f60008201527f7065727479696e73706563746f72000000000000000000000000000000000000602082015250565b6000613498602e836123f8565b91506134a38261343c565b604082019050919050565b600060208201905081810360008301526134c78161348b565b9050919050565b7f594f5520415245204e4f5420544845204f574e4552204f46205448495320505260008201527f4f50455254590000000000000000000000000000000000000000000000000000602082015250565b600061352a6026836123f8565b9150613535826134ce565b604082019050919050565b600060208201905081810360008301526135598161351d565b9050919050565b7f4e65774f776e65722061646472657373206d75737420626520756e6971756500600082015250565b6000613596601f836123f8565b91506135a182613560565b602082019050919050565b600060208201905081810360008301526135c581613589565b9050919050565b600060c0820190506135e16000830189612b5e565b81810360208301526135f38188612444565b905081810360408301526136078187612444565b9050613616606083018661252a565b81810360808301526136288185612444565b905081810360a083015261363c8184612444565b905097965050505050505056fea2646970667358221220cb68599fde63a13fc587bb0ce8958fe7605bfcc5702d379fb7ae8865f3f87d8d64736f6c63430008110033",
  "immutableReferences": {},
  "source": "// SPDX-License-Identifier: MIT\r\npragma solidity ^0.8.10;\r\n\r\n\r\ncontract NextStage {\r\n\r\n    mapping(address => uint) _balance;\r\n\r\n    fallback() payable external {\r\n        _balance[msg.sender] += msg.value;\r\n    }\r\n\r\n    receive() payable external {\r\n        _balance[msg.sender] += msg.value;\r\n    }\r\n\r\n    struct PropertyRegistry{   \r\n        \r\n        address payable OwnerAddress;\r\n        uint Rooms;\r\n        string Furnished;\r\n        string RentOrSale;\r\n        uint Area; \r\n        string City; \r\n        string State; \r\n        uint PropertyPrice; \r\n        uint PropertyPID;\r\n        bool IsPropertyVerified;\r\n    \r\n    }\r\n\r\n    struct BuyerDetails{\r\n        \r\n        address BuyerAddress;\r\n        string Name;\r\n        uint Age; \r\n        string City;  \r\n        string Email;\r\n        bool IsBuyerVerified;\r\n        \r\n    }\r\n    \r\n    struct SellerDetails{\r\n\r\n        address SellerAddress;\r\n        string Name;\r\n        string Email;\r\n        uint Phone; \r\n        string Password;\r\n        string Aadhaar;\r\n        bool IsSellerVerified;\r\n    \r\n    }\r\n\r\n    SellerDetails[] sellers;\r\n\r\n    mapping(uint => PropertyRegistry) public PropertyMapping; \r\n    mapping(address => SellerDetails) public SellerMapping;\r\n    mapping(address => BuyerDetails) public BuyerMapping; \r\n\r\n\r\n    event SellerRegistration(\r\n        address _SellerRegistered,\r\n        string Name, \r\n        string Email,\r\n        uint Phone,\r\n        string Password,\r\n        string Aadhaar);\r\n    \r\n    event BuyerRegistration(\r\n        address _BuyerRegistered,\r\n        string Name, \r\n        uint Age,\r\n        string City,\r\n        string Email);\r\n    \r\n    event Verified(address _Id);\r\n    \r\n    event Rejected(address _Id);\r\n\r\n    /*\r\n\r\n    /////////////////// Register Seller ///////////////\r\n    /////// Seller will register with his details\r\n    /////// PropertyInspector can either verify that seller or reject that seller\r\n    /////// We can also update the seller details\r\n    /////// We can check if seller is verified or not\r\n\r\n\r\n    */    \r\n    function RegisterSeller(\r\n\r\n        address SellerAddress,\r\n        string memory Name, \r\n        string memory Email,\r\n        uint Phone,\r\n        string memory Password,\r\n        string memory Aadhaar)  \r\n        external\r\n    {\r\n \r\n    require(SellerAddress==msg.sender,\r\n        \"This address is already registered as another Seller or Buyer\");\r\n\r\n        sellers.push(SellerDetails(SellerAddress, Name, Email, Phone, Password, Aadhaar, false));\r\n           \r\n        SellerMapping[SellerAddress]=SellerDetails(\r\n        msg.sender,\r\n        Name, \r\n        Email,\r\n        Phone,\r\n        Password,\r\n        Aadhaar,\r\n        false);\r\n     \r\n    emit SellerRegistration(\r\n        msg.sender,\r\n        Name, \r\n        Email,\r\n        Phone,\r\n        Password,\r\n        Aadhaar);\r\n\r\n    }\r\n\r\n    function GetSellerDetails(address SellerAddress) \r\n        \r\n        public view returns(\r\n        string memory, \r\n        string memory, \r\n        uint,\r\n        string memory,\r\n        string memory) \r\n    { \r\n        return(\r\n        SellerMapping[SellerAddress].Name,\r\n        SellerMapping[SellerAddress].Email,\r\n        SellerMapping[SellerAddress].Phone,\r\n        SellerMapping[SellerAddress].Password,\r\n        SellerMapping[SellerAddress].Aadhaar);\r\n        \r\n        \r\n    }\r\n\r\n    function UpdateSellerDetails(\r\n\r\n        address SellerAddress, \r\n        string memory _Name,\r\n        string memory _Email,\r\n        uint _Phone,\r\n        string memory _Password,\r\n        string memory _Aadhaar) external \r\n    {\r\n    \r\n    require(SellerAddress==msg.sender,\r\n        \"This address is already registered as another Seller or Buyer\");\r\n   \r\n        SellerMapping[SellerAddress].Name = _Name;\r\n        SellerMapping[SellerAddress].Email = _Email;\r\n        SellerMapping[SellerAddress].Phone = _Phone;\r\n        SellerMapping[SellerAddress].Password = _Password;\r\n        SellerMapping[SellerAddress].Aadhaar = _Aadhaar;\r\n\r\n    }\r\n\r\n   \r\n    /*\r\n\r\n    /////////////////// Register Buyer ////////////////\r\n    //////// we will register Buyer with Buyer details\r\n    //////// If Buyer is registered then PropertyInpector either verify that Buyer \r\n    //////// or reject that buyer\r\n    //////// We can also update the Buyer details \r\n    //////// We can check if Buyer is verified or not\r\n    \r\n    \r\n    */  \r\n    \r\n   function RegisterBuyer(\r\n\r\n        address BuyerAddress,\r\n        string memory Name,\r\n        uint Age,\r\n        string memory City,\r\n        string memory Email) \r\n        external \r\n    {\r\n    \r\n    require(BuyerAddress==msg.sender,\r\n        \"This address is already registered\");\r\n    \r\n        BuyerMapping[BuyerAddress]=BuyerDetails(\r\n        msg.sender,\r\n        Name,\r\n        Age,\r\n        City, \r\n        Email,\r\n        false);\r\n\r\n    emit BuyerRegistration(\r\n        msg.sender,\r\n        Name, \r\n        Age,\r\n        City,\r\n        Email);\r\n        \r\n    }\r\n\r\n    function GetBuyerDetails(address BuyerAddress)\r\n        \r\n        external view returns(\r\n        string memory, \r\n        uint,\r\n        string memory,\r\n        string memory) \r\n    { \r\n        return(\r\n        BuyerMapping[BuyerAddress].Name,\r\n        BuyerMapping[BuyerAddress].Age,\r\n        BuyerMapping[BuyerAddress].City,\r\n        BuyerMapping[BuyerAddress].Email);\r\n\r\n    }\r\n\r\n    function UpdateBuyerDetails(\r\n        \r\n        address BuyerAddress, \r\n        string memory _Name, \r\n        uint _Age, \r\n        string memory _City, \r\n        string memory _Email) \r\n        external \r\n    {\r\n    \r\n    require(BuyerAddress==msg.sender,\r\n        \"This address is already registered as seller or buyer\");\r\n\r\n        BuyerMapping[BuyerAddress].Name = _Name;\r\n        BuyerMapping[BuyerAddress].Age = _Age;\r\n        BuyerMapping[BuyerAddress].City = _City;\r\n        BuyerMapping[BuyerAddress].Email = _Email;\r\n\r\n    }\r\n   \r\n    /*\r\n     \r\n    ///////////////////////// Add Property Details //////////////////\r\n    /////// If seller is verified then seller upload Property details\r\n    /////// if seller is not verified by PropertyInspector they cannot add the Property details.  \r\n    /////// PropertyInspector will also verify the Property added by seller by PropertyID \r\n    /////// We can get Property details by PropertyID\r\n    /////// We can check who is the owner of this Property by PropertyID \r\n    //////// We can check who is the current owner of this Property. \r\n    \r\n    */\r\n     \r\n    function RegisterProperty(\r\n        \r\n        uint PropertyId,\r\n        address payable OwnerAddress,\r\n        uint Rooms,\r\n        string memory Furnished,\r\n        string memory RentOrSale,\r\n        uint Area,\r\n        string memory City,\r\n        string memory State,\r\n        uint PropertyPrice,\r\n        uint PropertyPID) \r\n        external  \r\n    {\r\n \r\n    require(OwnerAddress==msg.sender,\r\n        \"Seller address must be the OwnerAddress\");\r\n    \r\n   \r\n        PropertyMapping[PropertyId]= PropertyRegistry( \r\n        OwnerAddress, \r\n        Rooms,\r\n        Furnished,\r\n        RentOrSale,\r\n        Area, \r\n        City, \r\n        State, \r\n        PropertyPrice, \r\n        PropertyPID, \r\n        false);\r\n\r\n    }\r\n\r\n    function GetPropertyDetails(uint PropertyId) \r\n        \r\n        internal view returns(\r\n        address,\r\n        uint,\r\n        string memory, \r\n        string memory,\r\n        uint,\r\n        string memory, \r\n        string memory,\r\n        uint,\r\n        uint)\r\n    {\r\n        return(\r\n\r\n        PropertyMapping[PropertyId].OwnerAddress,\r\n        PropertyMapping[PropertyId].Rooms,\r\n        PropertyMapping[PropertyId].Furnished,\r\n        PropertyMapping[PropertyId].RentOrSale,\r\n        PropertyMapping[PropertyId].Area,\r\n        PropertyMapping[PropertyId].City,\r\n        PropertyMapping[PropertyId].State,\r\n        PropertyMapping[PropertyId].PropertyPrice,\r\n        PropertyMapping[PropertyId].PropertyPID);\r\n    \r\n    }\r\n   \r\n    function GetPropertyCity(uint  _GetPropertyCity)\r\n        public view returns(\r\n        string memory)\r\n    {\r\n        return \r\n        PropertyMapping[_GetPropertyCity].City;\r\n\r\n    }\r\n\r\n    function GetPropertyPrice(uint  _GetPropertyPrice) \r\n        public view returns(uint)\r\n    {\r\n        return \r\n        PropertyMapping[_GetPropertyPrice].PropertyPrice;\r\n\r\n    }\r\n\r\n    function GetPropertyArea(uint  _GetPropertyArea)\r\n        public view returns(uint)\r\n    {\r\n        return \r\n        PropertyMapping[_GetPropertyArea].Area;\r\n\r\n    }\r\n\r\n    function CurrentPropertyOwner(uint PropertyId)\r\n        public view returns(\r\n        address)\r\n    {\r\n        return \r\n        PropertyMapping[PropertyId].OwnerAddress;\r\n    \r\n    }\r\n\r\n    /*\r\n\r\n    ////////////////////////////////// Buy Property //////////////////////\r\n    //////// Buyer can buy the Property only if buyer and Property both is verified\r\n    //////// buyer need to give the  amount and Propertyid that they wants to buy \r\n    \r\n    */\r\n\r\n    function BuyProperty(\r\n         \r\n        uint PropertyId) \r\n        public payable returns(uint)\r\n    {\r\n    require(PropertyMapping[PropertyId].IsPropertyVerified=true, \r\n        \"Property is not verified by PropertyInspector\");\r\n\r\n    require(BuyerMapping[msg.sender].BuyerAddress == msg.sender,\r\n        \"Only buyer is allowed to buy Property\");\r\n\r\n    require(msg.value == PropertyMapping[PropertyId].PropertyPrice,\r\n        \" Not enough ether, it must be equal to PropertyPrice \");\r\n    \r\n        PropertyMapping[PropertyId].OwnerAddress.transfer(msg.value);\r\n    return\r\n    msg.value;\r\n    }\r\n\r\n    /*\r\n    \r\n    ////////////////////// TransferOwnership /////////////////////\r\n    //////// Owenrship will change to current owner to newOnwer.\r\n    //////// Owner of the Property can transfer their Property to any address if \r\n    //////// the is Property is verified by  PropertyInspector \r\n\r\n    */\r\n    \r\n    function TransferOwnerShip(\r\n        \r\n        uint PropertyId, \r\n        address payable NewOwnerAddress) \r\n        public \r\n    {\r\n    \r\n    require(PropertyMapping[PropertyId].IsPropertyVerified=true,\r\n        \"Property must be verified by Propertyinspector\");\r\n   \r\n    require(PropertyMapping[PropertyId].OwnerAddress == msg.sender,\r\n        \"YOU ARE NOT THE OWNER OF THIS PROPERTY\");\r\n   \r\n    require(PropertyMapping[PropertyId].OwnerAddress != NewOwnerAddress,\r\n        \"NewOwner address must be unique\"); \r\n   \r\n        PropertyMapping[PropertyId].OwnerAddress=NewOwnerAddress;\r\n    }\r\n\r\n    /*\r\n    ////////////// Check buyer and seller account balance to \r\n    ////////////// confirm transaction\r\n    */\r\n    \r\n    function ShowBalance(\r\n        \r\n        address _address) \r\n        external view returns(uint)\r\n    {\r\n        return address(_address).balance;\r\n    }\r\n}",
  "sourcePath": "D:\\OLX\\contracts\\NextStage.sol",
  "compiler": {
    "name": "solc",
    "version": "0.8.17+commit.8df45f5f.Emscripten.clang"
  },
  "schemaVersion": "3.4.11",
  "updatedAt": "2023-04-05T08:22:10.560Z",
  "devdoc": {
    "kind": "dev",
    "methods": {},
    "version": 1
  },
  "userdoc": {
    "kind": "user",
    "methods": {},
    "version": 1
  }
}