{
  "contractName": "Once",
  "abi": [
    {
      "inputs": [],
      "stateMutability": "payable",
      "type": "constructor",
      "payable": true
    },
    {
      "anonymous": false,
      "inputs": [
        {
          "indexed": false,
          "internalType": "address",
          "name": "_BuyerRegistered",
          "type": "address"
        },
        {
          "indexed": false,
          "internalType": "string",
          "name": "fullname",
          "type": "string"
        },
        {
          "indexed": false,
          "internalType": "string",
          "name": "email",
          "type": "string"
        },
        {
          "indexed": false,
          "internalType": "uint256",
          "name": "phone",
          "type": "uint256"
        },
        {
          "indexed": false,
          "internalType": "string",
          "name": "password",
          "type": "string"
        }
      ],
      "name": "BuyerRegistration",
      "type": "event"
    },
    {
      "anonymous": false,
      "inputs": [
        {
          "indexed": false,
          "internalType": "uint256",
          "name": "PropertyId",
          "type": "uint256"
        },
        {
          "indexed": false,
          "internalType": "string[]",
          "name": "imageArr",
          "type": "string[]"
        }
      ],
      "name": "PropertyImageRegistration",
      "type": "event"
    },
    {
      "anonymous": false,
      "inputs": [
        {
          "indexed": false,
          "internalType": "uint256",
          "name": "PropertyId",
          "type": "uint256"
        },
        {
          "indexed": false,
          "internalType": "address",
          "name": "OwnerAd",
          "type": "address"
        },
        {
          "indexed": false,
          "internalType": "string",
          "name": "City",
          "type": "string"
        },
        {
          "indexed": false,
          "internalType": "string",
          "name": "State",
          "type": "string"
        },
        {
          "indexed": false,
          "internalType": "uint256",
          "name": "PropertyPrice",
          "type": "uint256"
        }
      ],
      "name": "PropertyRegistration",
      "type": "event"
    },
    {
      "anonymous": false,
      "inputs": [
        {
          "indexed": false,
          "internalType": "address",
          "name": "_SellerRegistered",
          "type": "address"
        },
        {
          "indexed": false,
          "internalType": "string",
          "name": "fullname",
          "type": "string"
        },
        {
          "indexed": false,
          "internalType": "string",
          "name": "email",
          "type": "string"
        },
        {
          "indexed": false,
          "internalType": "uint256",
          "name": "phone",
          "type": "uint256"
        },
        {
          "indexed": false,
          "internalType": "string",
          "name": "password",
          "type": "string"
        }
      ],
      "name": "SellerRegistration",
      "type": "event"
    },
    {
      "stateMutability": "payable",
      "type": "fallback",
      "payable": true
    },
    {
      "inputs": [
        {
          "internalType": "uint256",
          "name": "",
          "type": "uint256"
        }
      ],
      "name": "PropertyMapping",
      "outputs": [
        {
          "internalType": "uint256",
          "name": "PropertyId",
          "type": "uint256"
        },
        {
          "internalType": "address payable",
          "name": "OwnerAddress",
          "type": "address"
        },
        {
          "internalType": "string",
          "name": "City",
          "type": "string"
        },
        {
          "internalType": "string",
          "name": "State",
          "type": "string"
        },
        {
          "internalType": "uint256",
          "name": "PropertyPrice",
          "type": "uint256"
        }
      ],
      "stateMutability": "view",
      "type": "function",
      "constant": true
    },
    {
      "inputs": [
        {
          "internalType": "uint256",
          "name": "",
          "type": "uint256"
        }
      ],
      "name": "propertyImgMap",
      "outputs": [
        {
          "internalType": "uint256",
          "name": "PropertyId",
          "type": "uint256"
        }
      ],
      "stateMutability": "view",
      "type": "function",
      "constant": true
    },
    {
      "stateMutability": "payable",
      "type": "receive",
      "payable": true
    },
    {
      "inputs": [
        {
          "internalType": "address",
          "name": "BuyerAddress",
          "type": "address"
        },
        {
          "internalType": "string",
          "name": "fullname",
          "type": "string"
        },
        {
          "internalType": "string",
          "name": "email",
          "type": "string"
        },
        {
          "internalType": "uint256",
          "name": "phone",
          "type": "uint256"
        },
        {
          "internalType": "string",
          "name": "password",
          "type": "string"
        }
      ],
      "name": "RegisterBuyer",
      "outputs": [],
      "stateMutability": "nonpayable",
      "type": "function"
    },
    {
      "inputs": [
        {
          "internalType": "address",
          "name": "BuyerAddress",
          "type": "address"
        }
      ],
      "name": "GetBuyerDetails",
      "outputs": [
        {
          "internalType": "string",
          "name": "",
          "type": "string"
        },
        {
          "internalType": "string",
          "name": "",
          "type": "string"
        },
        {
          "internalType": "uint256",
          "name": "",
          "type": "uint256"
        },
        {
          "internalType": "string",
          "name": "",
          "type": "string"
        }
      ],
      "stateMutability": "view",
      "type": "function",
      "constant": true
    },
    {
      "inputs": [
        {
          "internalType": "string",
          "name": "SellerAddress",
          "type": "string"
        },
        {
          "internalType": "string",
          "name": "fullname",
          "type": "string"
        },
        {
          "internalType": "string",
          "name": "email",
          "type": "string"
        },
        {
          "internalType": "uint256",
          "name": "phone",
          "type": "uint256"
        },
        {
          "internalType": "string",
          "name": "password",
          "type": "string"
        }
      ],
      "name": "RegisterSeller",
      "outputs": [],
      "stateMutability": "nonpayable",
      "type": "function"
    },
    {
      "inputs": [
        {
          "internalType": "address",
          "name": "SellerAddress",
          "type": "address"
        }
      ],
      "name": "GetSellerDetails",
      "outputs": [
        {
          "internalType": "string",
          "name": "",
          "type": "string"
        },
        {
          "internalType": "string",
          "name": "",
          "type": "string"
        },
        {
          "internalType": "uint256",
          "name": "",
          "type": "uint256"
        },
        {
          "internalType": "string",
          "name": "",
          "type": "string"
        }
      ],
      "stateMutability": "view",
      "type": "function",
      "constant": true
    },
    {
      "inputs": [
        {
          "internalType": "string",
          "name": "OwnerAddress",
          "type": "string"
        },
        {
          "internalType": "uint256",
          "name": "PropertyId",
          "type": "uint256"
        },
        {
          "internalType": "string",
          "name": "City",
          "type": "string"
        },
        {
          "internalType": "string",
          "name": "State",
          "type": "string"
        },
        {
          "internalType": "uint256",
          "name": "PropertyPrice",
          "type": "uint256"
        }
      ],
      "name": "RegisterProperty",
      "outputs": [],
      "stateMutability": "nonpayable",
      "type": "function"
    },
    {
      "inputs": [],
      "name": "GetCountOfProperties",
      "outputs": [
        {
          "internalType": "uint256",
          "name": "",
          "type": "uint256"
        }
      ],
      "stateMutability": "view",
      "type": "function",
      "constant": true
    },
    {
      "inputs": [
        {
          "internalType": "uint256",
          "name": "PropertyId",
          "type": "uint256"
        }
      ],
      "name": "GetPropertyDetails",
      "outputs": [
        {
          "internalType": "address",
          "name": "",
          "type": "address"
        },
        {
          "internalType": "string",
          "name": "",
          "type": "string"
        },
        {
          "internalType": "string",
          "name": "",
          "type": "string"
        },
        {
          "internalType": "uint256",
          "name": "",
          "type": "uint256"
        }
      ],
      "stateMutability": "view",
      "type": "function",
      "constant": true
    },
    {
      "inputs": [
        {
          "internalType": "uint256",
          "name": "PropertyId",
          "type": "uint256"
        },
        {
          "internalType": "string[]",
          "name": "imageArr",
          "type": "string[]"
        }
      ],
      "name": "SetPropertyImages",
      "outputs": [],
      "stateMutability": "nonpayable",
      "type": "function"
    },
    {
      "inputs": [
        {
          "internalType": "uint256",
          "name": "PropertyId",
          "type": "uint256"
        }
      ],
      "name": "GetPropertyImages",
      "outputs": [
        {
          "internalType": "string[]",
          "name": "",
          "type": "string[]"
        }
      ],
      "stateMutability": "view",
      "type": "function",
      "constant": true
    },
    {
      "inputs": [
        {
          "internalType": "uint256",
          "name": "PropertyId",
          "type": "uint256"
        },
        {
          "internalType": "address payable",
          "name": "NewOwnerAddress",
          "type": "address"
        }
      ],
      "name": "BuyProperty",
      "outputs": [],
      "stateMutability": "payable",
      "type": "function",
      "payable": true
    }
  ],
  "bytecode": "0x6080604052612985806100136000396000f3fe6080604052600436106100ab5760003560e01c80635e9c582f116100645780635e9c582f14610289578063610288e4146102ca57806381e88b7e146102f3578063b6b693c91461031c578063ca7aafa414610345578063d6ff91271461038257610106565b80631762e4e41461015c5780632c13e4271461019c57806332499ce0146101d957806338b176bd146102025780634af2f3da146102425780634e057fec1461026d57610106565b3661010657346000803373ffffffffffffffffffffffffffffffffffffffff1673ffffffffffffffffffffffffffffffffffffffff16815260200190815260200160002060008282546100fe9190611842565b925050819055005b346000803373ffffffffffffffffffffffffffffffffffffffff1673ffffffffffffffffffffffffffffffffffffffff16815260200190815260200160002060008282546101549190611842565b925050819055005b34801561016857600080fd5b50610183600480360381019061017e91906118b6565b6103c2565b60405161019394939291906119c3565b60405180910390f35b3480156101a857600080fd5b506101c360048036038101906101be91906118b6565b61056a565b6040516101d09190611a16565b60405180910390f35b3480156101e557600080fd5b5061020060048036038101906101fb9190611b66565b610588565b005b34801561020e57600080fd5b5061022960048036038101906102249190611c7d565b61075c565b6040516102399493929190611caa565b60405180910390f35b34801561024e57600080fd5b50610257610a1f565b6040516102649190611a16565b60405180910390f35b61028760048036038101906102829190611d42565b610a2c565b005b34801561029557600080fd5b506102b060048036038101906102ab91906118b6565b610b29565b6040516102c1959493929190611d91565b60405180910390f35b3480156102d657600080fd5b506102f160048036038101906102ec9190611df2565b610c8f565b005b3480156102ff57600080fd5b5061031a60048036038101906103159190611ec1565b610e55565b005b34801561032857600080fd5b50610343600480360381019061033e9190612076565b611020565b005b34801561035157600080fd5b5061036c600480360381019061036791906118b6565b6110af565b60405161037991906121de565b60405180910390f35b34801561038e57600080fd5b506103a960048036038101906103a49190611c7d565b61119e565b6040516103b99493929190611caa565b60405180910390f35b600060608060006001600086815260200190815260200160002060010160009054906101000a900473ffffffffffffffffffffffffffffffffffffffff166001600087815260200190815260200160002060020160016000888152602001908152602001600020600301600160008981526020019081526020016000206004015482805461044f9061222f565b80601f016020809104026020016040519081016040528092919081815260200182805461047b9061222f565b80156104c85780601f1061049d576101008083540402835291602001916104c8565b820191906000526020600020905b8154815290600101906020018083116104ab57829003601f168201915b505050505092508180546104db9061222f565b80601f01602080910402602001604051908101604052809291908181526020018280546105079061222f565b80156105545780601f1061052957610100808354040283529160200191610554565b820191906000526020600020905b81548152906001019060200180831161053757829003601f168201915b5050505050915093509350935093509193509193565b60046020528060005260406000206000915090508060000154905081565b600061059386611461565b90503373ffffffffffffffffffffffffffffffffffffffff168173ffffffffffffffffffffffffffffffffffffffff1614610603576040517f08c379a00000000000000000000000000000000000000000000000000000000081526004016105fa906122d2565b60405180910390fd5b6040518060a001604052803373ffffffffffffffffffffffffffffffffffffffff16815260200186815260200185815260200184815260200183815250600260008373ffffffffffffffffffffffffffffffffffffffff1673ffffffffffffffffffffffffffffffffffffffff16815260200190815260200160002060008201518160000160006101000a81548173ffffffffffffffffffffffffffffffffffffffff021916908373ffffffffffffffffffffffffffffffffffffffff16021790555060208201518160010190816106db919061249e565b5060408201518160020190816106f1919061249e565b50606082015181600301556080820151816004019081610711919061249e565b509050507f2265b3e5075a10f779d78acbd8f0b9dfed242f49fdf1c1243d10f21185fde041338686868660405161074c959493929190612570565b60405180910390a1505050505050565b60608060006060600360008673ffffffffffffffffffffffffffffffffffffffff1673ffffffffffffffffffffffffffffffffffffffff168152602001908152602001600020600101600360008773ffffffffffffffffffffffffffffffffffffffff1673ffffffffffffffffffffffffffffffffffffffff168152602001908152602001600020600201600360008873ffffffffffffffffffffffffffffffffffffffff1673ffffffffffffffffffffffffffffffffffffffff16815260200190815260200160002060030154600360008973ffffffffffffffffffffffffffffffffffffffff1673ffffffffffffffffffffffffffffffffffffffff1681526020019081526020016000206004018380546108789061222f565b80601f01602080910402602001604051908101604052809291908181526020018280546108a49061222f565b80156108f15780601f106108c6576101008083540402835291602001916108f1565b820191906000526020600020905b8154815290600101906020018083116108d457829003601f168201915b505050505093508280546109049061222f565b80601f01602080910402602001604051908101604052809291908181526020018280546109309061222f565b801561097d5780601f106109525761010080835404028352916020019161097d565b820191906000526020600020905b81548152906001019060200180831161096057829003601f168201915b505050505092508080546109909061222f565b80601f01602080910402602001604051908101604052809291908181526020018280546109bc9061222f565b8015610a095780601f106109de57610100808354040283529160200191610a09565b820191906000526020600020905b8154815290600101906020018083116109ec57829003601f168201915b5050505050905093509350935093509193509193565b6000600580549050905090565b8073ffffffffffffffffffffffffffffffffffffffff166001600084815260200190815260200160002060010160009054906101000a900473ffffffffffffffffffffffffffffffffffffffff1673ffffffffffffffffffffffffffffffffffffffff1603610ad0576040517f08c379a0000000000000000000000000000000000000000000000000000000008152600401610ac790612624565b60405180910390fd5b806001600084815260200190815260200160002060010160006101000a81548173ffffffffffffffffffffffffffffffffffffffff021916908373ffffffffffffffffffffffffffffffffffffffff1602179055505050565b60016020528060005260406000206000915090508060000154908060010160009054906101000a900473ffffffffffffffffffffffffffffffffffffffff1690806002018054610b789061222f565b80601f0160208091040260200160405190810160405280929190818152602001828054610ba49061222f565b8015610bf15780601f10610bc657610100808354040283529160200191610bf1565b820191906000526020600020905b815481529060010190602001808311610bd457829003601f168201915b505050505090806003018054610c069061222f565b80601f0160208091040260200160405190810160405280929190818152602001828054610c329061222f565b8015610c7f5780601f10610c5457610100808354040283529160200191610c7f565b820191906000526020600020905b815481529060010190602001808311610c6257829003601f168201915b5050505050908060040154905085565b3373ffffffffffffffffffffffffffffffffffffffff168573ffffffffffffffffffffffffffffffffffffffff1614610cfd576040517f08c379a0000000000000000000000000000000000000000000000000000000008152600401610cf4906126b6565b60405180910390fd5b6040518060a001604052803373ffffffffffffffffffffffffffffffffffffffff16815260200185815260200184815260200183815260200182815250600360008773ffffffffffffffffffffffffffffffffffffffff1673ffffffffffffffffffffffffffffffffffffffff16815260200190815260200160002060008201518160000160006101000a81548173ffffffffffffffffffffffffffffffffffffffff021916908373ffffffffffffffffffffffffffffffffffffffff1602179055506020820151816001019081610dd5919061249e565b506040820151816002019081610deb919061249e565b50606082015181600301556080820151816004019081610e0b919061249e565b509050507f4b3ee11dd3358a36c99c9f540e1f469847eeb9ab8464b3ea646bfa6418f825f93385858585604051610e46959493929190612570565b60405180910390a15050505050565b6000610e6086611461565b905060008190503373ffffffffffffffffffffffffffffffffffffffff168173ffffffffffffffffffffffffffffffffffffffff1614610ed5576040517f08c379a0000000000000000000000000000000000000000000000000000000008152600401610ecc90612748565b60405180910390fd5b6040518060a001604052808781526020018273ffffffffffffffffffffffffffffffffffffffff16815260200186815260200185815260200184815250600160008881526020019081526020016000206000820151816000015560208201518160010160006101000a81548173ffffffffffffffffffffffffffffffffffffffff021916908373ffffffffffffffffffffffffffffffffffffffff1602179055506040820151816002019081610f8b919061249e565b506060820151816003019081610fa1919061249e565b506080820151816004015590505060058690806001815401808255809150506001900390600052602060002001600090919091909150557fc667498d9e691a7106194f3a510c8384fa117cde15f7c0c60be7bd624e27c973868287878760405161100f9594939291906127bd565b60405180910390a150505050505050565b6040518060400160405280838152602001828152506004600084815260200190815260200160002060008201518160000155602082015181600101908051906020019061106e92919061172f565b509050507f3c230e257c079cdcb658bc0ae4ef8062c009a40ec2e556c188aa186b1a1a37d382826040516110a392919061281e565b60405180910390a15050565b606060046000838152602001908152602001600020600101805480602002602001604051908101604052809291908181526020016000905b828210156111935783829060005260206000200180546111069061222f565b80601f01602080910402602001604051908101604052809291908181526020018280546111329061222f565b801561117f5780601f106111545761010080835404028352916020019161117f565b820191906000526020600020905b81548152906001019060200180831161116257829003601f168201915b5050505050815260200190600101906110e7565b505050509050919050565b60608060006060600260008673ffffffffffffffffffffffffffffffffffffffff1673ffffffffffffffffffffffffffffffffffffffff168152602001908152602001600020600101600260008773ffffffffffffffffffffffffffffffffffffffff1673ffffffffffffffffffffffffffffffffffffffff168152602001908152602001600020600201600260008873ffffffffffffffffffffffffffffffffffffffff1673ffffffffffffffffffffffffffffffffffffffff16815260200190815260200160002060030154600260008973ffffffffffffffffffffffffffffffffffffffff1673ffffffffffffffffffffffffffffffffffffffff1681526020019081526020016000206004018380546112ba9061222f565b80601f01602080910402602001604051908101604052809291908181526020018280546112e69061222f565b80156113335780601f1061130857610100808354040283529160200191611333565b820191906000526020600020905b81548152906001019060200180831161131657829003601f168201915b505050505093508280546113469061222f565b80601f01602080910402602001604051908101604052809291908181526020018280546113729061222f565b80156113bf5780601f10611394576101008083540402835291602001916113bf565b820191906000526020600020905b8154815290600101906020018083116113a257829003601f168201915b505050505092508080546113d29061222f565b80601f01602080910402602001604051908101604052809291908181526020018280546113fe9061222f565b801561144b5780601f106114205761010080835404028352916020019161144b565b820191906000526020600020905b81548152906001019060200180831161142e57829003601f168201915b5050505050905093509350935093509193509193565b600080829050600080806000600290505b602a8110156117225761010084611489919061284e565b935084818151811061149e5761149d612890565b5b602001015160f81c60f81b60f81c60ff169250846001826114bf9190611842565b815181106114d0576114cf612890565b5b602001015160f81c60f81b60f81c60ff16915060618373ffffffffffffffffffffffffffffffffffffffff1610158015611521575060668373ffffffffffffffffffffffffffffffffffffffff1611155b1561153a5760578361153391906128bf565b92506115e6565b60418373ffffffffffffffffffffffffffffffffffffffff1610158015611578575060468373ffffffffffffffffffffffffffffffffffffffff1611155b156115915760378361158a91906128bf565b92506115e5565b60308373ffffffffffffffffffffffffffffffffffffffff16101580156115cf575060398373ffffffffffffffffffffffffffffffffffffffff1611155b156115e4576030836115e191906128bf565b92505b5b5b60618273ffffffffffffffffffffffffffffffffffffffff1610158015611624575060668273ffffffffffffffffffffffffffffffffffffffff1611155b1561163d5760578261163691906128bf565b91506116e9565b60418273ffffffffffffffffffffffffffffffffffffffff161015801561167b575060468273ffffffffffffffffffffffffffffffffffffffff1611155b156116945760378261168d91906128bf565b91506116e8565b60308273ffffffffffffffffffffffffffffffffffffffff16101580156116d2575060398273ffffffffffffffffffffffffffffffffffffffff1611155b156116e7576030826116e491906128bf565b91505b5b5b816010846116f7919061284e565b6117019190612907565b8461170c9190612907565b935060028161171b9190611842565b9050611472565b5082945050505050919050565b828054828255906000526020600020908101928215611777579160200282015b82811115611776578251829081611766919061249e565b509160200191906001019061174f565b5b5090506117849190611788565b5090565b5b808211156117a8576000818161179f91906117ac565b50600101611789565b5090565b5080546117b89061222f565b6000825580601f106117ca57506117e9565b601f0160209004906000526020600020908101906117e891906117ec565b5b50565b5b808211156118055760008160009055506001016117ed565b5090565b6000819050919050565b7f4e487b7100000000000000000000000000000000000000000000000000000000600052601160045260246000fd5b600061184d82611809565b915061185883611809565b92508282019050808211156118705761186f611813565b5b92915050565b6000604051905090565b600080fd5b600080fd5b61189381611809565b811461189e57600080fd5b50565b6000813590506118b08161188a565b92915050565b6000602082840312156118cc576118cb611880565b5b60006118da848285016118a1565b91505092915050565b600073ffffffffffffffffffffffffffffffffffffffff82169050919050565b600061190e826118e3565b9050919050565b61191e81611903565b82525050565b600081519050919050565b600082825260208201905092915050565b60005b8381101561195e578082015181840152602081019050611943565b60008484015250505050565b6000601f19601f8301169050919050565b600061198682611924565b611990818561192f565b93506119a0818560208601611940565b6119a98161196a565b840191505092915050565b6119bd81611809565b82525050565b60006080820190506119d86000830187611915565b81810360208301526119ea818661197b565b905081810360408301526119fe818561197b565b9050611a0d60608301846119b4565b95945050505050565b6000602082019050611a2b60008301846119b4565b92915050565b600080fd5b600080fd5b7f4e487b7100000000000000000000000000000000000000000000000000000000600052604160045260246000fd5b611a738261196a565b810181811067ffffffffffffffff82111715611a9257611a91611a3b565b5b80604052505050565b6000611aa5611876565b9050611ab18282611a6a565b919050565b600067ffffffffffffffff821115611ad157611ad0611a3b565b5b611ada8261196a565b9050602081019050919050565b82818337600083830152505050565b6000611b09611b0484611ab6565b611a9b565b905082815260208101848484011115611b2557611b24611a36565b5b611b30848285611ae7565b509392505050565b600082601f830112611b4d57611b4c611a31565b5b8135611b5d848260208601611af6565b91505092915050565b600080600080600060a08688031215611b8257611b81611880565b5b600086013567ffffffffffffffff811115611ba057611b9f611885565b5b611bac88828901611b38565b955050602086013567ffffffffffffffff811115611bcd57611bcc611885565b5b611bd988828901611b38565b945050604086013567ffffffffffffffff811115611bfa57611bf9611885565b5b611c0688828901611b38565b9350506060611c17888289016118a1565b925050608086013567ffffffffffffffff811115611c3857611c37611885565b5b611c4488828901611b38565b9150509295509295909350565b611c5a81611903565b8114611c6557600080fd5b50565b600081359050611c7781611c51565b92915050565b600060208284031215611c9357611c92611880565b5b6000611ca184828501611c68565b91505092915050565b60006080820190508181036000830152611cc4818761197b565b90508181036020830152611cd8818661197b565b9050611ce760408301856119b4565b8181036060830152611cf9818461197b565b905095945050505050565b6000611d0f826118e3565b9050919050565b611d1f81611d04565b8114611d2a57600080fd5b50565b600081359050611d3c81611d16565b92915050565b60008060408385031215611d5957611d58611880565b5b6000611d67858286016118a1565b9250506020611d7885828601611d2d565b9150509250929050565b611d8b81611d04565b82525050565b600060a082019050611da660008301886119b4565b611db36020830187611d82565b8181036040830152611dc5818661197b565b90508181036060830152611dd9818561197b565b9050611de860808301846119b4565b9695505050505050565b600080600080600060a08688031215611e0e57611e0d611880565b5b6000611e1c88828901611c68565b955050602086013567ffffffffffffffff811115611e3d57611e3c611885565b5b611e4988828901611b38565b945050604086013567ffffffffffffffff811115611e6a57611e69611885565b5b611e7688828901611b38565b9350506060611e87888289016118a1565b925050608086013567ffffffffffffffff811115611ea857611ea7611885565b5b611eb488828901611b38565b9150509295509295909350565b600080600080600060a08688031215611edd57611edc611880565b5b600086013567ffffffffffffffff811115611efb57611efa611885565b5b611f0788828901611b38565b9550506020611f18888289016118a1565b945050604086013567ffffffffffffffff811115611f3957611f38611885565b5b611f4588828901611b38565b935050606086013567ffffffffffffffff811115611f6657611f65611885565b5b611f7288828901611b38565b9250506080611f83888289016118a1565b9150509295509295909350565b600067ffffffffffffffff821115611fab57611faa611a3b565b5b602082029050602081019050919050565b600080fd5b6000611fd4611fcf84611f90565b611a9b565b90508083825260208201905060208402830185811115611ff757611ff6611fbc565b5b835b8181101561203e57803567ffffffffffffffff81111561201c5761201b611a31565b5b8086016120298982611b38565b85526020850194505050602081019050611ff9565b5050509392505050565b600082601f83011261205d5761205c611a31565b5b813561206d848260208601611fc1565b91505092915050565b6000806040838503121561208d5761208c611880565b5b600061209b858286016118a1565b925050602083013567ffffffffffffffff8111156120bc576120bb611885565b5b6120c885828601612048565b9150509250929050565b600081519050919050565b600082825260208201905092915050565b6000819050602082019050919050565b600082825260208201905092915050565b600061211a82611924565b61212481856120fe565b9350612134818560208601611940565b61213d8161196a565b840191505092915050565b6000612154838361210f565b905092915050565b6000602082019050919050565b6000612174826120d2565b61217e81856120dd565b935083602082028501612190856120ee565b8060005b858110156121cc57848403895281516121ad8582612148565b94506121b88361215c565b925060208a01995050600181019050612194565b50829750879550505050505092915050565b600060208201905081810360008301526121f88184612169565b905092915050565b7f4e487b7100000000000000000000000000000000000000000000000000000000600052602260045260246000fd5b6000600282049050600182168061224757607f821691505b60208210810361225a57612259612200565b5b50919050565b7f54686973206164647265737320697320616c726561647920726567697374657260008201527f656420617320616e6f746865722053656c6c6572000000000000000000000000602082015250565b60006122bc60348361192f565b91506122c782612260565b604082019050919050565b600060208201905081810360008301526122eb816122af565b9050919050565b60008190508160005260206000209050919050565b60006020601f8301049050919050565b600082821b905092915050565b6000600883026123547fffffffffffffffffffffffffffffffffffffffffffffffffffffffffffffffff82612317565b61235e8683612317565b95508019841693508086168417925050509392505050565b6000819050919050565b600061239b61239661239184611809565b612376565b611809565b9050919050565b6000819050919050565b6123b583612380565b6123c96123c1826123a2565b848454612324565b825550505050565b600090565b6123de6123d1565b6123e98184846123ac565b505050565b5b8181101561240d576124026000826123d6565b6001810190506123ef565b5050565b601f82111561245257612423816122f2565b61242c84612307565b8101602085101561243b578190505b61244f61244785612307565b8301826123ee565b50505b505050565b600082821c905092915050565b600061247560001984600802612457565b1980831691505092915050565b600061248e8383612464565b9150826002028217905092915050565b6124a782611924565b67ffffffffffffffff8111156124c0576124bf611a3b565b5b6124ca825461222f565b6124d5828285612411565b600060209050601f83116001811461250857600084156124f6578287015190505b6125008582612482565b865550612568565b601f198416612516866122f2565b60005b8281101561253e57848901518255600182019150602085019450602081019050612519565b8683101561255b5784890151612557601f891682612464565b8355505b6001600288020188555050505b505050505050565b600060a0820190506125856000830188611915565b8181036020830152612597818761197b565b905081810360408301526125ab818661197b565b90506125ba60608301856119b4565b81810360808301526125cc818461197b565b90509695505050505050565b7f4e65774f776e65722061646472657373206d75737420626520756e6971756500600082015250565b600061260e601f8361192f565b9150612619826125d8565b602082019050919050565b6000602082019050818103600083015261263d81612601565b9050919050565b7f54686973206164647265737320697320616c726561647920726567697374657260008201527f656420617320616e6f7468657220427579657200000000000000000000000000602082015250565b60006126a060338361192f565b91506126ab82612644565b604082019050919050565b600060208201905081810360008301526126cf81612693565b9050919050565b7f53656c6c65722061646472657373206d75737420626520746865204f776e657260008201527f4164647265737300000000000000000000000000000000000000000000000000602082015250565b600061273260278361192f565b915061273d826126d6565b604082019050919050565b6000602082019050818103600083015261276181612725565b9050919050565b600061278361277e612779846118e3565b612376565b6118e3565b9050919050565b600061279582612768565b9050919050565b60006127a78261278a565b9050919050565b6127b78161279c565b82525050565b600060a0820190506127d260008301886119b4565b6127df60208301876127ae565b81810360408301526127f1818661197b565b90508181036060830152612805818561197b565b905061281460808301846119b4565b9695505050505050565b600060408201905061283360008301856119b4565b81810360208301526128458184612169565b90509392505050565b6000612859826118e3565b9150612864836118e3565b9250828202612872816118e3565b9150828204841483151761288957612888611813565b5b5092915050565b7f4e487b7100000000000000000000000000000000000000000000000000000000600052603260045260246000fd5b60006128ca826118e3565b91506128d5836118e3565b9250828203905073ffffffffffffffffffffffffffffffffffffffff81111561290157612900611813565b5b92915050565b6000612912826118e3565b915061291d836118e3565b9250828201905073ffffffffffffffffffffffffffffffffffffffff81111561294957612948611813565b5b9291505056fea26469706673582212200d1c77bcdad887cd7628b8c4d9c0c4dd04701a0c9184f73916d489e3669d9f7564736f6c63430008110033",
  "immutableReferences": {},
  "source": "// SPDX-License-Identifier: MIT\r\npragma solidity ^0.8.10;\r\n\r\ncontract Once {\r\n\r\n    constructor () payable {\r\n    }\r\n\r\n    mapping(address => uint) _balance;\r\n\r\n    fallback() payable external {\r\n        _balance[msg.sender] += msg.value;\r\n    }\r\n\r\n    receive() payable external {\r\n        _balance[msg.sender] += msg.value;\r\n    }\r\n\r\n    // ------------- STRUCT --------------\r\n    struct seller {\r\n        address sellerAddress;\r\n        string fullname;\r\n        string email; \r\n        uint phone;\r\n        string password;\r\n    }\r\n\r\n    struct buyer {\r\n        address buyerAddress;\r\n        string fullname;\r\n        string email; \r\n        uint phone;\r\n        string password;\r\n    }\r\n\r\n    struct PropertyRegistry{   \r\n        uint PropertyId;\r\n        address payable OwnerAddress;\r\n        string City; \r\n        string State; \r\n        uint PropertyPrice; \r\n    }\r\n\r\n    struct PropertyImages {\r\n        uint PropertyId;\r\n        string[] imageArr;\r\n    }\r\n\r\n\r\n    // ------------- MAPPING --------------\r\n    mapping(uint => PropertyRegistry) public PropertyMapping; \r\n    mapping (address => seller) sellerMap;\r\n    mapping (address => buyer) buyerMap;\r\n    mapping (uint => PropertyImages) public propertyImgMap;\r\n\r\n    uint[] PropertyArray;\r\n\r\n\r\n    // ------------- EVENTS --------------\r\n    event BuyerRegistration(\r\n        address _BuyerRegistered,\r\n        string fullname,\r\n        string email,\r\n        uint phone,\r\n        string password\r\n    );\r\n\r\n    event SellerRegistration(\r\n        address _SellerRegistered,\r\n        string fullname,\r\n        string email,\r\n        uint phone,\r\n        string password\r\n    );\r\n\r\n    event PropertyRegistration(\r\n        uint PropertyId, \r\n        address OwnerAd, \r\n        string City, \r\n        string State, \r\n        uint PropertyPrice\r\n    );\r\n\r\n    event PropertyImageRegistration(\r\n        uint PropertyId,\r\n        string[] imageArr\r\n    );\r\n\r\n\r\n    // ------------- CONVERSION -----------\r\n    function parseAddr(string memory _a) internal pure returns (address _parsedAddress) {\r\n        bytes memory tmp = bytes(_a);\r\n        uint160 iaddr = 0;\r\n        uint160 b1;\r\n        uint160 b2;\r\n        for (uint i = 2; i < 2 + 2 * 20; i += 2) {\r\n            iaddr *= 256;\r\n            b1 = uint160(uint8(tmp[i]));\r\n            b2 = uint160(uint8(tmp[i + 1]));\r\n            if ((b1 >= 97) && (b1 <= 102)) {\r\n                b1 -= 87;\r\n            } else if ((b1 >= 65) && (b1 <= 70)) {\r\n                b1 -= 55;\r\n            } else if ((b1 >= 48) && (b1 <= 57)) {\r\n                b1 -= 48;\r\n            }\r\n            if ((b2 >= 97) && (b2 <= 102)) {\r\n                b2 -= 87;\r\n            } else if ((b2 >= 65) && (b2 <= 70)) {\r\n                b2 -= 55;\r\n            } else if ((b2 >= 48) && (b2 <= 57)) {\r\n                b2 -= 48;\r\n            }\r\n            iaddr += (b1 * 16 + b2);\r\n        }\r\n        return address(iaddr);\r\n    } \r\n\r\n\r\n    // ------------- BUYER --------------\r\n    function RegisterBuyer(\r\n\r\n        address BuyerAddress,\r\n        string memory fullname,\r\n        string memory email,\r\n        uint phone,\r\n        string memory password)  \r\n        external\r\n    {\r\n \r\n        require(BuyerAddress==msg.sender,\r\n            \"This address is already registered as another Buyer\");\r\n            \r\n            buyerMap[BuyerAddress]=buyer(\r\n            msg.sender,\r\n            fullname,\r\n            email,\r\n            phone,\r\n            password);\r\n        \r\n        emit BuyerRegistration(\r\n            msg.sender,\r\n            fullname,\r\n            email,\r\n            phone,\r\n            password\r\n            );\r\n\r\n    }\r\n\r\n    function GetBuyerDetails(address BuyerAddress)\r\n        \r\n        external view returns(\r\n        string memory, \r\n        string memory,\r\n        uint,\r\n        string memory) \r\n    { \r\n        return(\r\n        buyerMap[BuyerAddress].fullname,\r\n        buyerMap[BuyerAddress].email,\r\n        buyerMap[BuyerAddress].phone,\r\n        buyerMap[BuyerAddress].password);\r\n\r\n    }\r\n\r\n    // ------------- SELLER --------------\r\n    function RegisterSeller(\r\n\r\n        string memory SellerAddress,\r\n        string memory fullname,\r\n        string memory email,\r\n        uint phone,\r\n        string memory password )  \r\n        external\r\n    {\r\n        address SellerAdd = parseAddr(SellerAddress);\r\n \r\n        require(SellerAdd==msg.sender,\r\n            \"This address is already registered as another Seller\");\r\n            \r\n            sellerMap[SellerAdd]=seller(\r\n            msg.sender,\r\n            fullname,\r\n            email,\r\n            phone,\r\n            password\r\n            );\r\n        \r\n        emit SellerRegistration(\r\n            msg.sender,\r\n            fullname,\r\n            email,\r\n            phone,\r\n            password);\r\n\r\n    }\r\n\r\n    function GetSellerDetails(address SellerAddress) \r\n        \r\n        public view returns(\r\n        string memory, \r\n        string memory, \r\n        uint,\r\n        string memory) \r\n    { \r\n        return(\r\n        sellerMap[SellerAddress].fullname,\r\n        sellerMap[SellerAddress].email,\r\n        sellerMap[SellerAddress].phone,\r\n        sellerMap[SellerAddress].password);\r\n        \r\n        \r\n    }\r\n\r\n    // ------------- PROPERTY --------------\r\n    function RegisterProperty(\r\n        \r\n        string memory OwnerAddress,\r\n        uint PropertyId,\r\n        string memory City,\r\n        string memory State,\r\n        uint PropertyPrice) \r\n        external  \r\n    {\r\n        address OwnerAdd = parseAddr(OwnerAddress);\r\n        address payable OwnerAd = payable(address(OwnerAdd));\r\n \r\n        require(OwnerAd == msg.sender,\r\n            \"Seller address must be the OwnerAddress\");\r\n        \r\n            PropertyMapping[PropertyId]= PropertyRegistry(\r\n            PropertyId, \r\n            OwnerAd, \r\n            City, \r\n            State, \r\n            PropertyPrice);\r\n\r\n            PropertyArray.push(PropertyId);\r\n\r\n            emit PropertyRegistration(PropertyId, OwnerAd, City, State, PropertyPrice);\r\n\r\n    }\r\n\r\n\r\n    function GetCountOfProperties() public view returns(uint){\r\n        return PropertyArray.length;\r\n    }\r\n\r\n\r\n    function GetPropertyDetails(uint PropertyId) \r\n\r\n        view public returns(\r\n        address,\r\n        string memory, \r\n        string memory,\r\n        uint\r\n        // uint\r\n        // string[] memory\r\n        )\r\n    {\r\n        return(\r\n\r\n        PropertyMapping[PropertyId].OwnerAddress,\r\n        PropertyMapping[PropertyId].City,\r\n        PropertyMapping[PropertyId].State,\r\n        PropertyMapping[PropertyId].PropertyPrice\r\n        );\r\n    \r\n    }\r\n\r\n    function SetPropertyImages(\r\n        uint PropertyId,\r\n        string[] memory imageArr\r\n        ) external {\r\n            propertyImgMap[PropertyId] = PropertyImages(PropertyId, imageArr);\r\n            emit PropertyImageRegistration(PropertyId, imageArr);\r\n    }\r\n\r\n    function GetPropertyImages(uint PropertyId) \r\n        external view returns(\r\n            string[] memory\r\n        ) {\r\n            return(\r\n                propertyImgMap[PropertyId].imageArr\r\n            );\r\n        }\r\n\r\n\r\n    \r\n    // ------------- BUY && TRANSFER OWNERSHIP --------------\r\n    function BuyProperty(\r\n         \r\n        uint PropertyId,\r\n        address payable NewOwnerAddress) \r\n        public payable \r\n    {\r\n    \r\n    \r\n        require(PropertyMapping[PropertyId].OwnerAddress != NewOwnerAddress,\r\n            \"NewOwner address must be unique\"); \r\n    \r\n            PropertyMapping[PropertyId].OwnerAddress=NewOwnerAddress;\r\n        \r\n\r\n    }\r\n\r\n}",
  "sourcePath": "D:\\OLX\\contracts\\Once.sol",
  "compiler": {
    "name": "solc",
    "version": "0.8.17+commit.8df45f5f.Emscripten.clang"
  },
  "schemaVersion": "3.4.11",
  "updatedAt": "2023-04-05T11:02:00.404Z",
  "networkType": "ethereum",
  "devdoc": {
    "kind": "dev",
    "methods": {},
    "version": 1
  },
  "userdoc": {
    "kind": "user",
    "methods": {},
    "version": 1
  }
}