{
  "contractName": "PropertyRegistration",
  "abi": [
    {
      "anonymous": false,
      "inputs": [
        {
          "indexed": false,
          "internalType": "address",
          "name": "_BuyerRegistered",
          "type": "address"
        },
        {
          "indexed": false,
          "internalType": "string",
          "name": "Name",
          "type": "string"
        },
        {
          "indexed": false,
          "internalType": "uint256",
          "name": "Age",
          "type": "uint256"
        },
        {
          "indexed": false,
          "internalType": "string",
          "name": "City",
          "type": "string"
        },
        {
          "indexed": false,
          "internalType": "string",
          "name": "Email",
          "type": "string"
        }
      ],
      "name": "BuyerRegistration",
      "type": "event"
    },
    {
      "anonymous": false,
      "inputs": [
        {
          "indexed": false,
          "internalType": "address",
          "name": "_SellerRegistered",
          "type": "address"
        },
        {
          "indexed": false,
          "internalType": "string",
          "name": "Name",
          "type": "string"
        },
        {
          "indexed": false,
          "internalType": "uint256",
          "name": "Age",
          "type": "uint256"
        },
        {
          "indexed": false,
          "internalType": "string",
          "name": "City",
          "type": "string"
        },
        {
          "indexed": false,
          "internalType": "string",
          "name": "Email",
          "type": "string"
        }
      ],
      "name": "SellerRegistration",
      "type": "event"
    },
    {
      "stateMutability": "payable",
      "type": "fallback"
    },
    {
      "inputs": [
        {
          "internalType": "address",
          "name": "",
          "type": "address"
        }
      ],
      "name": "BuyerMapping",
      "outputs": [
        {
          "internalType": "address",
          "name": "BuyerAddress",
          "type": "address"
        },
        {
          "internalType": "string",
          "name": "Name",
          "type": "string"
        },
        {
          "internalType": "uint256",
          "name": "Age",
          "type": "uint256"
        },
        {
          "internalType": "string",
          "name": "City",
          "type": "string"
        },
        {
          "internalType": "string",
          "name": "Email",
          "type": "string"
        },
        {
          "internalType": "bool",
          "name": "IsBuyerVerified",
          "type": "bool"
        }
      ],
      "stateMutability": "view",
      "type": "function"
    },
    {
      "inputs": [
        {
          "internalType": "uint256",
          "name": "",
          "type": "uint256"
        }
      ],
      "name": "PropertyMapping",
      "outputs": [
        {
          "internalType": "address payable",
          "name": "OwnerAddress",
          "type": "address"
        },
        {
          "internalType": "uint256",
          "name": "Rooms",
          "type": "uint256"
        },
        {
          "internalType": "string",
          "name": "Furnished",
          "type": "string"
        },
        {
          "internalType": "string",
          "name": "RentOrSale",
          "type": "string"
        },
        {
          "internalType": "uint256",
          "name": "Area",
          "type": "uint256"
        },
        {
          "internalType": "string",
          "name": "City",
          "type": "string"
        },
        {
          "internalType": "string",
          "name": "State",
          "type": "string"
        },
        {
          "internalType": "uint256",
          "name": "PropertyPrice",
          "type": "uint256"
        },
        {
          "internalType": "uint256",
          "name": "PropertyPID",
          "type": "uint256"
        },
        {
          "internalType": "bool",
          "name": "IsPropertyVerified",
          "type": "bool"
        }
      ],
      "stateMutability": "view",
      "type": "function"
    },
    {
      "inputs": [
        {
          "internalType": "address",
          "name": "",
          "type": "address"
        }
      ],
      "name": "SellerMapping",
      "outputs": [
        {
          "internalType": "address",
          "name": "SellerAddress",
          "type": "address"
        },
        {
          "internalType": "string",
          "name": "Name",
          "type": "string"
        },
        {
          "internalType": "uint256",
          "name": "Age",
          "type": "uint256"
        },
        {
          "internalType": "string",
          "name": "City",
          "type": "string"
        },
        {
          "internalType": "string",
          "name": "Email",
          "type": "string"
        },
        {
          "internalType": "bool",
          "name": "IsSellerVerified",
          "type": "bool"
        }
      ],
      "stateMutability": "view",
      "type": "function"
    },
    {
      "stateMutability": "payable",
      "type": "receive"
    },
    {
      "inputs": [
        {
          "internalType": "string",
          "name": "SellerAddress",
          "type": "string"
        },
        {
          "internalType": "string",
          "name": "Name",
          "type": "string"
        },
        {
          "internalType": "uint256",
          "name": "Age",
          "type": "uint256"
        },
        {
          "internalType": "string",
          "name": "City",
          "type": "string"
        },
        {
          "internalType": "string",
          "name": "Email",
          "type": "string"
        }
      ],
      "name": "RegisterSeller",
      "outputs": [],
      "stateMutability": "nonpayable",
      "type": "function"
    },
    {
      "inputs": [
        {
          "internalType": "address",
          "name": "SellerAddress",
          "type": "address"
        }
      ],
      "name": "GetSellerDetails",
      "outputs": [
        {
          "internalType": "string",
          "name": "",
          "type": "string"
        },
        {
          "internalType": "uint256",
          "name": "",
          "type": "uint256"
        },
        {
          "internalType": "string",
          "name": "",
          "type": "string"
        },
        {
          "internalType": "string",
          "name": "",
          "type": "string"
        }
      ],
      "stateMutability": "view",
      "type": "function"
    },
    {
      "inputs": [
        {
          "internalType": "string",
          "name": "SellerAddress",
          "type": "string"
        },
        {
          "internalType": "string",
          "name": "_Name",
          "type": "string"
        },
        {
          "internalType": "uint256",
          "name": "_Age",
          "type": "uint256"
        },
        {
          "internalType": "string",
          "name": "_City",
          "type": "string"
        },
        {
          "internalType": "string",
          "name": "_Email",
          "type": "string"
        }
      ],
      "name": "UpdateSellerDetails",
      "outputs": [],
      "stateMutability": "nonpayable",
      "type": "function"
    },
    {
      "inputs": [
        {
          "internalType": "string",
          "name": "BuyerAddress",
          "type": "string"
        },
        {
          "internalType": "string",
          "name": "Name",
          "type": "string"
        },
        {
          "internalType": "uint256",
          "name": "Age",
          "type": "uint256"
        },
        {
          "internalType": "string",
          "name": "City",
          "type": "string"
        },
        {
          "internalType": "string",
          "name": "Email",
          "type": "string"
        }
      ],
      "name": "RegisterBuyer",
      "outputs": [],
      "stateMutability": "nonpayable",
      "type": "function"
    },
    {
      "inputs": [
        {
          "internalType": "address",
          "name": "BuyerAddress",
          "type": "address"
        }
      ],
      "name": "GetBuyerDetails",
      "outputs": [
        {
          "internalType": "string",
          "name": "",
          "type": "string"
        },
        {
          "internalType": "uint256",
          "name": "",
          "type": "uint256"
        },
        {
          "internalType": "string",
          "name": "",
          "type": "string"
        },
        {
          "internalType": "string",
          "name": "",
          "type": "string"
        }
      ],
      "stateMutability": "view",
      "type": "function"
    },
    {
      "inputs": [
        {
          "internalType": "string",
          "name": "BuyerAddress",
          "type": "string"
        },
        {
          "internalType": "string",
          "name": "_Name",
          "type": "string"
        },
        {
          "internalType": "uint256",
          "name": "_Age",
          "type": "uint256"
        },
        {
          "internalType": "string",
          "name": "_City",
          "type": "string"
        },
        {
          "internalType": "string",
          "name": "_Email",
          "type": "string"
        }
      ],
      "name": "UpdateBuyerDetails",
      "outputs": [],
      "stateMutability": "nonpayable",
      "type": "function"
    },
    {
      "inputs": [
        {
          "internalType": "uint256",
          "name": "PropertyId",
          "type": "uint256"
        },
        {
          "internalType": "address payable",
          "name": "OwnerAddress",
          "type": "address"
        },
        {
          "internalType": "uint256",
          "name": "Rooms",
          "type": "uint256"
        },
        {
          "internalType": "string",
          "name": "Furnished",
          "type": "string"
        },
        {
          "internalType": "string",
          "name": "RentOrSale",
          "type": "string"
        },
        {
          "internalType": "uint256",
          "name": "Area",
          "type": "uint256"
        },
        {
          "internalType": "string",
          "name": "City",
          "type": "string"
        },
        {
          "internalType": "string",
          "name": "State",
          "type": "string"
        },
        {
          "internalType": "uint256",
          "name": "PropertyPrice",
          "type": "uint256"
        },
        {
          "internalType": "uint256",
          "name": "PropertyPID",
          "type": "uint256"
        }
      ],
      "name": "RegisterProperty",
      "outputs": [],
      "stateMutability": "nonpayable",
      "type": "function"
    },
    {
      "inputs": [
        {
          "internalType": "uint256",
          "name": "_GetPropertyCity",
          "type": "uint256"
        }
      ],
      "name": "GetPropertyCity",
      "outputs": [
        {
          "internalType": "string",
          "name": "",
          "type": "string"
        }
      ],
      "stateMutability": "view",
      "type": "function"
    },
    {
      "inputs": [
        {
          "internalType": "uint256",
          "name": "_GetPropertyPrice",
          "type": "uint256"
        }
      ],
      "name": "GetPropertyPrice",
      "outputs": [
        {
          "internalType": "uint256",
          "name": "",
          "type": "uint256"
        }
      ],
      "stateMutability": "view",
      "type": "function"
    },
    {
      "inputs": [
        {
          "internalType": "uint256",
          "name": "_GetPropertyArea",
          "type": "uint256"
        }
      ],
      "name": "GetPropertyArea",
      "outputs": [
        {
          "internalType": "uint256",
          "name": "",
          "type": "uint256"
        }
      ],
      "stateMutability": "view",
      "type": "function"
    },
    {
      "inputs": [
        {
          "internalType": "uint256",
          "name": "PropertyId",
          "type": "uint256"
        }
      ],
      "name": "CurrentPropertyOwner",
      "outputs": [
        {
          "internalType": "address",
          "name": "",
          "type": "address"
        }
      ],
      "stateMutability": "view",
      "type": "function"
    },
    {
      "inputs": [
        {
          "internalType": "uint256",
          "name": "PropertyId",
          "type": "uint256"
        }
      ],
      "name": "BuyProperty",
      "outputs": [
        {
          "internalType": "uint256",
          "name": "",
          "type": "uint256"
        }
      ],
      "stateMutability": "payable",
      "type": "function"
    },
    {
      "inputs": [
        {
          "internalType": "uint256",
          "name": "PropertyId",
          "type": "uint256"
        },
        {
          "internalType": "address payable",
          "name": "NewOwnerAddress",
          "type": "address"
        }
      ],
      "name": "TransferOwnerShip",
      "outputs": [],
      "stateMutability": "nonpayable",
      "type": "function"
    },
    {
      "inputs": [
        {
          "internalType": "address",
          "name": "_address",
          "type": "address"
        }
      ],
      "name": "ShowBalance",
      "outputs": [
        {
          "internalType": "uint256",
          "name": "",
          "type": "uint256"
        }
      ],
      "stateMutability": "view",
      "type": "function"
    }
  ],
  "bytecode": "0x608060405234801561001057600080fd5b50613419806100206000396000f3fe6080604052600436106101025760003560e01c806371ae0e4e11610095578063ab51707411610064578063ab51707414610416578063d260dca614610458578063d6ff912714610495578063dec091ad146104d5578063e54bd53e146105175761015d565b806371ae0e4e146103725780637ae7b9f71461039b578063a8a8e0f5146103c4578063ab06c9b0146103ed5761015d565b806338b176bd116100d157806338b176bd146102865780635e9c582f146102c65780636059fd951461030c5780636bd25c8e146103495761015d565b8063060d4f0b146101b35780630aa6fcba146101f057806321c48c0d1461021957806325a59600146102565761015d565b3661015d57346000803373ffffffffffffffffffffffffffffffffffffffff1673ffffffffffffffffffffffffffffffffffffffff168152602001908152602001600020600082825461015591906122cf565b925050819055005b346000803373ffffffffffffffffffffffffffffffffffffffff1673ffffffffffffffffffffffffffffffffffffffff16815260200190815260200160002060008282546101ab91906122cf565b925050819055005b3480156101bf57600080fd5b506101da60048036038101906101d59190612343565b610554565b6040516101e79190612400565b60405180910390f35b3480156101fc57600080fd5b5061021760048036038101906102129190612557565b6105fc565b005b34801561022557600080fd5b50610240600480360381019061023b91906126a0565b6107f9565b60405161024d91906126dc565b60405180910390f35b610270600480360381019061026b9190612343565b61081a565b60405161027d91906126dc565b60405180910390f35b34801561029257600080fd5b506102ad60048036038101906102a891906126a0565b6109c9565b6040516102bd94939291906126f7565b60405180910390f35b3480156102d257600080fd5b506102ed60048036038101906102e89190612343565b610c8c565b6040516103039a9998979695949392919061278d565b60405180910390f35b34801561031857600080fd5b50610333600480360381019061032e9190612343565b610f2d565b60405161034091906126dc565b60405180910390f35b34801561035557600080fd5b50610370600480360381019061036b9190612557565b610f4d565b005b34801561037e57600080fd5b5061039960048036038101906103949190612871565b611107565b005b3480156103a757600080fd5b506103c260048036038101906103bd9190612557565b6112df565b005b3480156103d057600080fd5b506103eb60048036038101906103e69190612557565b611499565b005b3480156103f957600080fd5b50610414600480360381019061040f91906129c0565b611696565b005b34801561042257600080fd5b5061043d600480360381019061043891906126a0565b6118a3565b60405161044f96959493929190612a0f565b60405180910390f35b34801561046457600080fd5b5061047f600480360381019061047a9190612343565b611aa4565b60405161048c91906126dc565b60405180910390f35b3480156104a157600080fd5b506104bc60048036038101906104b791906126a0565b611ac4565b6040516104cc94939291906126f7565b60405180910390f35b3480156104e157600080fd5b506104fc60048036038101906104f791906126a0565b611d87565b60405161050e96959493929190612a0f565b60405180910390f35b34801561052357600080fd5b5061053e60048036038101906105399190612343565b611f88565b60405161054b9190612a85565b60405180910390f35b606060016000838152602001908152602001600020600501805461057790612acf565b80601f01602080910402602001604051908101604052809291908181526020018280546105a390612acf565b80156105f05780601f106105c5576101008083540402835291602001916105f0565b820191906000526020600020905b8154815290600101906020018083116105d357829003601f168201915b50505050509050919050565b600061060786611fc8565b90503373ffffffffffffffffffffffffffffffffffffffff168173ffffffffffffffffffffffffffffffffffffffff1614610677576040517f08c379a000000000000000000000000000000000000000000000000000000000815260040161066e90612b72565b60405180910390fd5b6040518060c001604052803373ffffffffffffffffffffffffffffffffffffffff16815260200186815260200185815260200184815260200183815260200160001515815250600360008373ffffffffffffffffffffffffffffffffffffffff1673ffffffffffffffffffffffffffffffffffffffff16815260200190815260200160002060008201518160000160006101000a81548173ffffffffffffffffffffffffffffffffffffffff021916908373ffffffffffffffffffffffffffffffffffffffff16021790555060208201518160010190816107589190612d3e565b506040820151816002015560608201518160030190816107789190612d3e565b50608082015181600401908161078e9190612d3e565b5060a08201518160050160006101000a81548160ff0219169083151502179055509050507f9495c6c4c5cf6ee53917b75724efb219b9e359716e778aa4826a1e1ee996ed5033868686866040516107e9959493929190612e10565b60405180910390a1505050505050565b60008173ffffffffffffffffffffffffffffffffffffffff16319050919050565b60003373ffffffffffffffffffffffffffffffffffffffff16600360003373ffffffffffffffffffffffffffffffffffffffff1673ffffffffffffffffffffffffffffffffffffffff16815260200190815260200160002060000160009054906101000a900473ffffffffffffffffffffffffffffffffffffffff1673ffffffffffffffffffffffffffffffffffffffff16146108ec576040517f08c379a00000000000000000000000000000000000000000000000000000000081526004016108e390612eea565b60405180910390fd5b60016000838152602001908152602001600020600701543414610944576040517f08c379a000000000000000000000000000000000000000000000000000000000815260040161093b90612f7c565b60405180910390fd5b6001600083815260200190815260200160002060000160009054906101000a900473ffffffffffffffffffffffffffffffffffffffff1673ffffffffffffffffffffffffffffffffffffffff166108fc349081150290604051600060405180830381858888f193505050501580156109c0573d6000803e3d6000fd5b50349050919050565b60606000606080600360008673ffffffffffffffffffffffffffffffffffffffff1673ffffffffffffffffffffffffffffffffffffffff168152602001908152602001600020600101600360008773ffffffffffffffffffffffffffffffffffffffff1673ffffffffffffffffffffffffffffffffffffffff16815260200190815260200160002060020154600360008873ffffffffffffffffffffffffffffffffffffffff1673ffffffffffffffffffffffffffffffffffffffff168152602001908152602001600020600301600360008973ffffffffffffffffffffffffffffffffffffffff1673ffffffffffffffffffffffffffffffffffffffff168152602001908152602001600020600401838054610ae590612acf565b80601f0160208091040260200160405190810160405280929190818152602001828054610b1190612acf565b8015610b5e5780601f10610b3357610100808354040283529160200191610b5e565b820191906000526020600020905b815481529060010190602001808311610b4157829003601f168201915b50505050509350818054610b7190612acf565b80601f0160208091040260200160405190810160405280929190818152602001828054610b9d90612acf565b8015610bea5780601f10610bbf57610100808354040283529160200191610bea565b820191906000526020600020905b815481529060010190602001808311610bcd57829003601f168201915b50505050509150808054610bfd90612acf565b80601f0160208091040260200160405190810160405280929190818152602001828054610c2990612acf565b8015610c765780601f10610c4b57610100808354040283529160200191610c76565b820191906000526020600020905b815481529060010190602001808311610c5957829003601f168201915b5050505050905093509350935093509193509193565b60016020528060005260406000206000915090508060000160009054906101000a900473ffffffffffffffffffffffffffffffffffffffff1690806001015490806002018054610cdb90612acf565b80601f0160208091040260200160405190810160405280929190818152602001828054610d0790612acf565b8015610d545780601f10610d2957610100808354040283529160200191610d54565b820191906000526020600020905b815481529060010190602001808311610d3757829003601f168201915b505050505090806003018054610d6990612acf565b80601f0160208091040260200160405190810160405280929190818152602001828054610d9590612acf565b8015610de25780601f10610db757610100808354040283529160200191610de2565b820191906000526020600020905b815481529060010190602001808311610dc557829003601f168201915b505050505090806004015490806005018054610dfd90612acf565b80601f0160208091040260200160405190810160405280929190818152602001828054610e2990612acf565b8015610e765780601f10610e4b57610100808354040283529160200191610e76565b820191906000526020600020905b815481529060010190602001808311610e5957829003601f168201915b505050505090806006018054610e8b90612acf565b80601f0160208091040260200160405190810160405280929190818152602001828054610eb790612acf565b8015610f045780601f10610ed957610100808354040283529160200191610f04565b820191906000526020600020905b815481529060010190602001808311610ee757829003601f168201915b5050505050908060070154908060080154908060090160009054906101000a900460ff1690508a565b600060016000838152602001908152602001600020600401549050919050565b6000610f5886611fc8565b90503373ffffffffffffffffffffffffffffffffffffffff168173ffffffffffffffffffffffffffffffffffffffff1614610fc8576040517f08c379a0000000000000000000000000000000000000000000000000000000008152600401610fbf9061300e565b60405180910390fd5b84600360008373ffffffffffffffffffffffffffffffffffffffff1673ffffffffffffffffffffffffffffffffffffffff16815260200190815260200160002060010190816110179190612d3e565b5083600360008373ffffffffffffffffffffffffffffffffffffffff1673ffffffffffffffffffffffffffffffffffffffff1681526020019081526020016000206002018190555082600360008373ffffffffffffffffffffffffffffffffffffffff1673ffffffffffffffffffffffffffffffffffffffff16815260200190815260200160002060030190816110ae9190612d3e565b5081600360008373ffffffffffffffffffffffffffffffffffffffff1673ffffffffffffffffffffffffffffffffffffffff16815260200190815260200160002060040190816110fe9190612d3e565b50505050505050565b3373ffffffffffffffffffffffffffffffffffffffff168973ffffffffffffffffffffffffffffffffffffffff1614611175576040517f08c379a000000000000000000000000000000000000000000000000000000000815260040161116c906130a0565b60405180910390fd5b6040518061014001604052808a73ffffffffffffffffffffffffffffffffffffffff16815260200189815260200188815260200187815260200186815260200185815260200184815260200183815260200182815260200160001515815250600160008c815260200190815260200160002060008201518160000160006101000a81548173ffffffffffffffffffffffffffffffffffffffff021916908373ffffffffffffffffffffffffffffffffffffffff16021790555060208201518160010155604082015181600201908161124d9190612d3e565b5060608201518160030190816112639190612d3e565b506080820151816004015560a08201518160050190816112839190612d3e565b5060c08201518160060190816112999190612d3e565b5060e0820151816007015561010082015181600801556101208201518160090160006101000a81548160ff02191690831515021790555090505050505050505050505050565b60006112ea86611fc8565b90503373ffffffffffffffffffffffffffffffffffffffff168173ffffffffffffffffffffffffffffffffffffffff161461135a576040517f08c379a000000000000000000000000000000000000000000000000000000000815260040161135190613132565b60405180910390fd5b84600260008373ffffffffffffffffffffffffffffffffffffffff1673ffffffffffffffffffffffffffffffffffffffff16815260200190815260200160002060010190816113a99190612d3e565b5083600260008373ffffffffffffffffffffffffffffffffffffffff1673ffffffffffffffffffffffffffffffffffffffff1681526020019081526020016000206002018190555082600260008373ffffffffffffffffffffffffffffffffffffffff1673ffffffffffffffffffffffffffffffffffffffff16815260200190815260200160002060030190816114409190612d3e565b5081600260008373ffffffffffffffffffffffffffffffffffffffff1673ffffffffffffffffffffffffffffffffffffffff16815260200190815260200160002060040190816114909190612d3e565b50505050505050565b60006114a486611fc8565b90503373ffffffffffffffffffffffffffffffffffffffff168173ffffffffffffffffffffffffffffffffffffffff1614611514576040517f08c379a000000000000000000000000000000000000000000000000000000000815260040161150b90613132565b60405180910390fd5b6040518060c001604052803373ffffffffffffffffffffffffffffffffffffffff16815260200186815260200185815260200184815260200183815260200160001515815250600260008373ffffffffffffffffffffffffffffffffffffffff1673ffffffffffffffffffffffffffffffffffffffff16815260200190815260200160002060008201518160000160006101000a81548173ffffffffffffffffffffffffffffffffffffffff021916908373ffffffffffffffffffffffffffffffffffffffff16021790555060208201518160010190816115f59190612d3e565b506040820151816002015560608201518160030190816116159190612d3e565b50608082015181600401908161162b9190612d3e565b5060a08201518160050160006101000a81548160ff0219169083151502179055509050507f6714468b07a54553b0db609f7d60835acf27999d4a3f46d3e49c2cf42ee7d3263386868686604051611686959493929190612e10565b60405180910390a1505050505050565b600180600084815260200190815260200160002060090160006101000a81548160ff0219169083151502179055611702576040517f08c379a00000000000000000000000000000000000000000000000000000000081526004016116f9906131c4565b60405180910390fd5b3373ffffffffffffffffffffffffffffffffffffffff166001600084815260200190815260200160002060000160009054906101000a900473ffffffffffffffffffffffffffffffffffffffff1673ffffffffffffffffffffffffffffffffffffffff16146117a6576040517f08c379a000000000000000000000000000000000000000000000000000000000815260040161179d90613256565b60405180910390fd5b8073ffffffffffffffffffffffffffffffffffffffff166001600084815260200190815260200160002060000160009054906101000a900473ffffffffffffffffffffffffffffffffffffffff1673ffffffffffffffffffffffffffffffffffffffff160361184a576040517f08c379a0000000000000000000000000000000000000000000000000000000008152600401611841906132c2565b60405180910390fd5b806001600084815260200190815260200160002060000160006101000a81548173ffffffffffffffffffffffffffffffffffffffff021916908373ffffffffffffffffffffffffffffffffffffffff1602179055505050565b60036020528060005260406000206000915090508060000160009054906101000a900473ffffffffffffffffffffffffffffffffffffffff16908060010180546118ec90612acf565b80601f016020809104026020016040519081016040528092919081815260200182805461191890612acf565b80156119655780601f1061193a57610100808354040283529160200191611965565b820191906000526020600020905b81548152906001019060200180831161194857829003601f168201915b50505050509080600201549080600301805461198090612acf565b80601f01602080910402602001604051908101604052809291908181526020018280546119ac90612acf565b80156119f95780601f106119ce576101008083540402835291602001916119f9565b820191906000526020600020905b8154815290600101906020018083116119dc57829003601f168201915b505050505090806004018054611a0e90612acf565b80601f0160208091040260200160405190810160405280929190818152602001828054611a3a90612acf565b8015611a875780601f10611a5c57610100808354040283529160200191611a87565b820191906000526020600020905b815481529060010190602001808311611a6a57829003601f168201915b5050505050908060050160009054906101000a900460ff16905086565b600060016000838152602001908152602001600020600701549050919050565b60606000606080600260008673ffffffffffffffffffffffffffffffffffffffff1673ffffffffffffffffffffffffffffffffffffffff168152602001908152602001600020600101600260008773ffffffffffffffffffffffffffffffffffffffff1673ffffffffffffffffffffffffffffffffffffffff16815260200190815260200160002060020154600260008873ffffffffffffffffffffffffffffffffffffffff1673ffffffffffffffffffffffffffffffffffffffff168152602001908152602001600020600301600260008973ffffffffffffffffffffffffffffffffffffffff1673ffffffffffffffffffffffffffffffffffffffff168152602001908152602001600020600401838054611be090612acf565b80601f0160208091040260200160405190810160405280929190818152602001828054611c0c90612acf565b8015611c595780601f10611c2e57610100808354040283529160200191611c59565b820191906000526020600020905b815481529060010190602001808311611c3c57829003601f168201915b50505050509350818054611c6c90612acf565b80601f0160208091040260200160405190810160405280929190818152602001828054611c9890612acf565b8015611ce55780601f10611cba57610100808354040283529160200191611ce5565b820191906000526020600020905b815481529060010190602001808311611cc857829003601f168201915b50505050509150808054611cf890612acf565b80601f0160208091040260200160405190810160405280929190818152602001828054611d2490612acf565b8015611d715780601f10611d4657610100808354040283529160200191611d71565b820191906000526020600020905b815481529060010190602001808311611d5457829003601f168201915b5050505050905093509350935093509193509193565b60026020528060005260406000206000915090508060000160009054906101000a900473ffffffffffffffffffffffffffffffffffffffff1690806001018054611dd090612acf565b80601f0160208091040260200160405190810160405280929190818152602001828054611dfc90612acf565b8015611e495780601f10611e1e57610100808354040283529160200191611e49565b820191906000526020600020905b815481529060010190602001808311611e2c57829003601f168201915b505050505090806002015490806003018054611e6490612acf565b80601f0160208091040260200160405190810160405280929190818152602001828054611e9090612acf565b8015611edd5780601f10611eb257610100808354040283529160200191611edd565b820191906000526020600020905b815481529060010190602001808311611ec057829003601f168201915b505050505090806004018054611ef290612acf565b80601f0160208091040260200160405190810160405280929190818152602001828054611f1e90612acf565b8015611f6b5780601f10611f4057610100808354040283529160200191611f6b565b820191906000526020600020905b815481529060010190602001808311611f4e57829003601f168201915b5050505050908060050160009054906101000a900460ff16905086565b60006001600083815260200190815260200160002060000160009054906101000a900473ffffffffffffffffffffffffffffffffffffffff169050919050565b600080829050600080806000600290505b602a8110156122895761010084611ff091906132e2565b935084818151811061200557612004613324565b5b602001015160f81c60f81b60f81c60ff1692508460018261202691906122cf565b8151811061203757612036613324565b5b602001015160f81c60f81b60f81c60ff16915060618373ffffffffffffffffffffffffffffffffffffffff1610158015612088575060668373ffffffffffffffffffffffffffffffffffffffff1611155b156120a15760578361209a9190613353565b925061214d565b60418373ffffffffffffffffffffffffffffffffffffffff16101580156120df575060468373ffffffffffffffffffffffffffffffffffffffff1611155b156120f8576037836120f19190613353565b925061214c565b60308373ffffffffffffffffffffffffffffffffffffffff1610158015612136575060398373ffffffffffffffffffffffffffffffffffffffff1611155b1561214b576030836121489190613353565b92505b5b5b60618273ffffffffffffffffffffffffffffffffffffffff161015801561218b575060668273ffffffffffffffffffffffffffffffffffffffff1611155b156121a45760578261219d9190613353565b9150612250565b60418273ffffffffffffffffffffffffffffffffffffffff16101580156121e2575060468273ffffffffffffffffffffffffffffffffffffffff1611155b156121fb576037826121f49190613353565b915061224f565b60308273ffffffffffffffffffffffffffffffffffffffff1610158015612239575060398273ffffffffffffffffffffffffffffffffffffffff1611155b1561224e5760308261224b9190613353565b91505b5b5b8160108461225e91906132e2565b612268919061339b565b84612273919061339b565b935060028161228291906122cf565b9050611fd9565b5082945050505050919050565b6000819050919050565b7f4e487b7100000000000000000000000000000000000000000000000000000000600052601160045260246000fd5b60006122da82612296565b91506122e583612296565b92508282019050808211156122fd576122fc6122a0565b5b92915050565b6000604051905090565b600080fd5b600080fd5b61232081612296565b811461232b57600080fd5b50565b60008135905061233d81612317565b92915050565b6000602082840312156123595761235861230d565b5b60006123678482850161232e565b91505092915050565b600081519050919050565b600082825260208201905092915050565b60005b838110156123aa57808201518184015260208101905061238f565b60008484015250505050565b6000601f19601f8301169050919050565b60006123d282612370565b6123dc818561237b565b93506123ec81856020860161238c565b6123f5816123b6565b840191505092915050565b6000602082019050818103600083015261241a81846123c7565b905092915050565b600080fd5b600080fd5b7f4e487b7100000000000000000000000000000000000000000000000000000000600052604160045260246000fd5b612464826123b6565b810181811067ffffffffffffffff821117156124835761248261242c565b5b80604052505050565b6000612496612303565b90506124a2828261245b565b919050565b600067ffffffffffffffff8211156124c2576124c161242c565b5b6124cb826123b6565b9050602081019050919050565b82818337600083830152505050565b60006124fa6124f5846124a7565b61248c565b90508281526020810184848401111561251657612515612427565b5b6125218482856124d8565b509392505050565b600082601f83011261253e5761253d612422565b5b813561254e8482602086016124e7565b91505092915050565b600080600080600060a086880312156125735761257261230d565b5b600086013567ffffffffffffffff81111561259157612590612312565b5b61259d88828901612529565b955050602086013567ffffffffffffffff8111156125be576125bd612312565b5b6125ca88828901612529565b94505060406125db8882890161232e565b935050606086013567ffffffffffffffff8111156125fc576125fb612312565b5b61260888828901612529565b925050608086013567ffffffffffffffff81111561262957612628612312565b5b61263588828901612529565b9150509295509295909350565b600073ffffffffffffffffffffffffffffffffffffffff82169050919050565b600061266d82612642565b9050919050565b61267d81612662565b811461268857600080fd5b50565b60008135905061269a81612674565b92915050565b6000602082840312156126b6576126b561230d565b5b60006126c48482850161268b565b91505092915050565b6126d681612296565b82525050565b60006020820190506126f160008301846126cd565b92915050565b6000608082019050818103600083015261271181876123c7565b905061272060208301866126cd565b818103604083015261273281856123c7565b9050818103606083015261274681846123c7565b905095945050505050565b600061275c82612642565b9050919050565b61276c81612751565b82525050565b60008115159050919050565b61278781612772565b82525050565b6000610140820190506127a3600083018d612763565b6127b0602083018c6126cd565b81810360408301526127c2818b6123c7565b905081810360608301526127d6818a6123c7565b90506127e560808301896126cd565b81810360a08301526127f781886123c7565b905081810360c083015261280b81876123c7565b905061281a60e08301866126cd565b6128286101008301856126cd565b61283661012083018461277e565b9b9a5050505050505050505050565b61284e81612751565b811461285957600080fd5b50565b60008135905061286b81612845565b92915050565b6000806000806000806000806000806101408b8d0312156128955761289461230d565b5b60006128a38d828e0161232e565b9a505060206128b48d828e0161285c565b99505060406128c58d828e0161232e565b98505060608b013567ffffffffffffffff8111156128e6576128e5612312565b5b6128f28d828e01612529565b97505060808b013567ffffffffffffffff81111561291357612912612312565b5b61291f8d828e01612529565b96505060a06129308d828e0161232e565b95505060c08b013567ffffffffffffffff81111561295157612950612312565b5b61295d8d828e01612529565b94505060e08b013567ffffffffffffffff81111561297e5761297d612312565b5b61298a8d828e01612529565b93505061010061299c8d828e0161232e565b9250506101206129ae8d828e0161232e565b9150509295989b9194979a5092959850565b600080604083850312156129d7576129d661230d565b5b60006129e58582860161232e565b92505060206129f68582860161285c565b9150509250929050565b612a0981612662565b82525050565b600060c082019050612a246000830189612a00565b8181036020830152612a3681886123c7565b9050612a4560408301876126cd565b8181036060830152612a5781866123c7565b90508181036080830152612a6b81856123c7565b9050612a7a60a083018461277e565b979650505050505050565b6000602082019050612a9a6000830184612a00565b92915050565b7f4e487b7100000000000000000000000000000000000000000000000000000000600052602260045260246000fd5b60006002820490506001821680612ae757607f821691505b602082108103612afa57612af9612aa0565b5b50919050565b7f54686973206164647265737320697320616c726561647920726567697374657260008201527f6564000000000000000000000000000000000000000000000000000000000000602082015250565b6000612b5c60228361237b565b9150612b6782612b00565b604082019050919050565b60006020820190508181036000830152612b8b81612b4f565b9050919050565b60008190508160005260206000209050919050565b60006020601f8301049050919050565b600082821b905092915050565b600060088302612bf47fffffffffffffffffffffffffffffffffffffffffffffffffffffffffffffffff82612bb7565b612bfe8683612bb7565b95508019841693508086168417925050509392505050565b6000819050919050565b6000612c3b612c36612c3184612296565b612c16565b612296565b9050919050565b6000819050919050565b612c5583612c20565b612c69612c6182612c42565b848454612bc4565b825550505050565b600090565b612c7e612c71565b612c89818484612c4c565b505050565b5b81811015612cad57612ca2600082612c76565b600181019050612c8f565b5050565b601f821115612cf257612cc381612b92565b612ccc84612ba7565b81016020851015612cdb578190505b612cef612ce785612ba7565b830182612c8e565b50505b505050565b600082821c905092915050565b6000612d1560001984600802612cf7565b1980831691505092915050565b6000612d2e8383612d04565b9150826002028217905092915050565b612d4782612370565b67ffffffffffffffff811115612d6057612d5f61242c565b5b612d6a8254612acf565b612d75828285612cb1565b600060209050601f831160018114612da85760008415612d96578287015190505b612da08582612d22565b865550612e08565b601f198416612db686612b92565b60005b82811015612dde57848901518255600182019150602085019450602081019050612db9565b86831015612dfb5784890151612df7601f891682612d04565b8355505b6001600288020188555050505b505050505050565b600060a082019050612e256000830188612a00565b8181036020830152612e3781876123c7565b9050612e4660408301866126cd565b8181036060830152612e5881856123c7565b90508181036080830152612e6c81846123c7565b90509695505050505050565b7f4f6e6c7920627579657220697320616c6c6f77656420746f206275792050726f60008201527f7065727479000000000000000000000000000000000000000000000000000000602082015250565b6000612ed460258361237b565b9150612edf82612e78565b604082019050919050565b60006020820190508181036000830152612f0381612ec7565b9050919050565b7f204e6f7420656e6f7567682065746865722c206974206d75737420626520657160008201527f75616c20746f2050726f70657274795072696365200000000000000000000000602082015250565b6000612f6660358361237b565b9150612f7182612f0a565b604082019050919050565b60006020820190508181036000830152612f9581612f59565b9050919050565b7f54686973206164647265737320697320616c726561647920726567697374657260008201527f65642061732073656c6c6572206f722062757965720000000000000000000000602082015250565b6000612ff860358361237b565b915061300382612f9c565b604082019050919050565b6000602082019050818103600083015261302781612feb565b9050919050565b7f53656c6c65722061646472657373206d75737420626520746865204f776e657260008201527f4164647265737300000000000000000000000000000000000000000000000000602082015250565b600061308a60278361237b565b91506130958261302e565b604082019050919050565b600060208201905081810360008301526130b98161307d565b9050919050565b7f54686973206164647265737320697320616c726561647920726567697374657260008201527f656420617320616e6f746865722053656c6c6572206f72204275796572000000602082015250565b600061311c603d8361237b565b9150613127826130c0565b604082019050919050565b6000602082019050818103600083015261314b8161310f565b9050919050565b7f50726f7065727479206d7573742062652076657269666965642062792050726f60008201527f7065727479696e73706563746f72000000000000000000000000000000000000602082015250565b60006131ae602e8361237b565b91506131b982613152565b604082019050919050565b600060208201905081810360008301526131dd816131a1565b9050919050565b7f594f5520415245204e4f5420544845204f574e4552204f46205448495320505260008201527f4f50455254590000000000000000000000000000000000000000000000000000602082015250565b600061324060268361237b565b915061324b826131e4565b604082019050919050565b6000602082019050818103600083015261326f81613233565b9050919050565b7f4e65774f776e65722061646472657373206d75737420626520756e6971756500600082015250565b60006132ac601f8361237b565b91506132b782613276565b602082019050919050565b600060208201905081810360008301526132db8161329f565b9050919050565b60006132ed82612642565b91506132f883612642565b925082820261330681612642565b9150828204841483151761331d5761331c6122a0565b5b5092915050565b7f4e487b7100000000000000000000000000000000000000000000000000000000600052603260045260246000fd5b600061335e82612642565b915061336983612642565b9250828203905073ffffffffffffffffffffffffffffffffffffffff811115613395576133946122a0565b5b92915050565b60006133a682612642565b91506133b183612642565b9250828201905073ffffffffffffffffffffffffffffffffffffffff8111156133dd576133dc6122a0565b5b9291505056fea26469706673582212209fdaa88307212f7f532bf73646317d48e570d71e88d255f7431810054fbf094f64736f6c63430008110033",
  "immutableReferences": {},
  "source": "// SPDX-License-Identifier: GPL-3.0\r\npragma solidity ^0.8.10;\r\n\r\n\r\ncontract PropertyRegistration {\r\n\r\n    mapping(address => uint) _balance;\r\n\r\n    fallback() payable external {\r\n        _balance[msg.sender] += msg.value;\r\n    }\r\n\r\n    receive() payable external {\r\n        _balance[msg.sender] += msg.value;\r\n    }\r\n\r\n    struct PropertyRegistry{   \r\n        \r\n        address payable OwnerAddress;\r\n        uint Rooms;\r\n        string Furnished;\r\n        string RentOrSale;\r\n        uint Area; \r\n        string City; \r\n        string State; \r\n        uint PropertyPrice; \r\n        uint PropertyPID;\r\n        bool IsPropertyVerified;\r\n    \r\n    }\r\n\r\n    struct BuyerDetails{\r\n        \r\n        address BuyerAddress;\r\n        string Name;\r\n        uint Age; \r\n        string City;  \r\n        string Email;\r\n        bool IsBuyerVerified;\r\n        \r\n    }\r\n    \r\n    struct SellerDetails{\r\n\r\n        address SellerAddress;\r\n        string Name;\r\n        uint Age; \r\n        string City;\r\n        string Email;\r\n        bool IsSellerVerified;\r\n    \r\n    }\r\n\r\n    mapping(uint => PropertyRegistry) public PropertyMapping; \r\n    mapping(address => SellerDetails) public SellerMapping;\r\n    mapping(address => BuyerDetails) public BuyerMapping; \r\n\r\n\r\n    event SellerRegistration(\r\n        address _SellerRegistered,\r\n        string Name, \r\n        uint Age,\r\n        string City,\r\n        string Email);\r\n    \r\n    event BuyerRegistration(\r\n        address _BuyerRegistered,\r\n        string Name, \r\n        uint Age,\r\n        string City,\r\n        string Email);\r\n    \r\n    // event Verified(address _Id);\r\n    \r\n    // event Rejected(address _Id);\r\n\r\n    /*\r\n\r\n    /////////////////// Register Seller ///////////////\r\n    /////// Seller will register with his details\r\n    /////// PropertyInspector can either verify that seller or reject that seller\r\n    /////// We can also update the seller details\r\n    /////// We can check if seller is verified or not\r\n\r\n\r\n    */   \r\n\r\n    function parseAddr(string memory _a) internal pure returns (address _parsedAddress) {\r\n    bytes memory tmp = bytes(_a);\r\n    uint160 iaddr = 0;\r\n    uint160 b1;\r\n    uint160 b2;\r\n    for (uint i = 2; i < 2 + 2 * 20; i += 2) {\r\n        iaddr *= 256;\r\n        b1 = uint160(uint8(tmp[i]));\r\n        b2 = uint160(uint8(tmp[i + 1]));\r\n        if ((b1 >= 97) && (b1 <= 102)) {\r\n            b1 -= 87;\r\n        } else if ((b1 >= 65) && (b1 <= 70)) {\r\n            b1 -= 55;\r\n        } else if ((b1 >= 48) && (b1 <= 57)) {\r\n            b1 -= 48;\r\n        }\r\n        if ((b2 >= 97) && (b2 <= 102)) {\r\n            b2 -= 87;\r\n        } else if ((b2 >= 65) && (b2 <= 70)) {\r\n            b2 -= 55;\r\n        } else if ((b2 >= 48) && (b2 <= 57)) {\r\n            b2 -= 48;\r\n        }\r\n        iaddr += (b1 * 16 + b2);\r\n    }\r\n    return address(iaddr);\r\n} \r\n\r\n\r\n    function RegisterSeller(\r\n\r\n        string memory SellerAddress,\r\n        string memory Name, \r\n        uint Age,\r\n        string memory City,\r\n        string memory Email)  \r\n        external\r\n    {\r\n \r\n    \r\n\r\n    address a= parseAddr(SellerAddress);\r\n    require(a==msg.sender,\r\n        \"This address is already registered as another Seller or Buyer\");\r\n\r\n        SellerMapping[a]=SellerDetails(\r\n        msg.sender,\r\n        Name,\r\n        Age,\r\n        City, \r\n        Email,\r\n        false);\r\n     \r\n    emit SellerRegistration(\r\n        msg.sender,\r\n        Name, \r\n        Age,\r\n        City,\r\n        Email);\r\n\r\n    }\r\n\r\n    function GetSellerDetails(address SellerAddress) \r\n        \r\n        public view returns(\r\n        string memory, \r\n        uint,\r\n        string memory,\r\n        string memory) \r\n    { \r\n        return(\r\n        SellerMapping[SellerAddress].Name,\r\n        SellerMapping[SellerAddress].Age,\r\n        SellerMapping[SellerAddress].City,\r\n        SellerMapping[SellerAddress].Email);\r\n        \r\n        \r\n    }\r\n\r\n    function UpdateSellerDetails(\r\n\r\n        string memory SellerAddress, \r\n        string memory _Name, \r\n        uint _Age, \r\n        string memory _City, \r\n        string memory _Email) external \r\n    {\r\n\r\n    address b= parseAddr(SellerAddress);\r\n    require(b==msg.sender,\r\n        \"This address is already registered as another Seller or Buyer\");\r\n   \r\n        SellerMapping[b].Name = _Name;\r\n        SellerMapping[b].Age = _Age;\r\n        SellerMapping[b].City = _City;\r\n        SellerMapping[b].Email = _Email;\r\n\r\n    }\r\n\r\n   \r\n    /*\r\n\r\n    /////////////////// Register Buyer ////////////////\r\n    //////// we will register Buyer with Buyer details\r\n    //////// If Buyer is registered then PropertyInpector either verify that Buyer \r\n    //////// or reject that buyer\r\n    //////// We can also update the Buyer details \r\n    //////// We can check if Buyer is verified or not\r\n    \r\n    \r\n    */  \r\n    \r\n   function RegisterBuyer(\r\n\r\n        string memory BuyerAddress,\r\n        string memory Name,\r\n        uint Age,\r\n        string memory City,\r\n        string memory Email) \r\n        external \r\n    {\r\n    \r\n    address c= parseAddr(BuyerAddress);\r\n    require(c==msg.sender,\r\n        \"This address is already registered\");\r\n    \r\n        BuyerMapping[c]=BuyerDetails(\r\n        msg.sender,\r\n        Name,\r\n        Age,\r\n        City, \r\n        Email,\r\n        false);\r\n\r\n    emit BuyerRegistration(\r\n        msg.sender,\r\n        Name, \r\n        Age,\r\n        City,\r\n        Email);\r\n        \r\n    }\r\n\r\n    function GetBuyerDetails(address BuyerAddress)\r\n        \r\n        external view returns(\r\n        string memory, \r\n        uint,\r\n        string memory,\r\n        string memory) \r\n    { \r\n        return(\r\n        BuyerMapping[BuyerAddress].Name,\r\n        BuyerMapping[BuyerAddress].Age,\r\n        BuyerMapping[BuyerAddress].City,\r\n        BuyerMapping[BuyerAddress].Email);\r\n\r\n    }\r\n\r\n    function UpdateBuyerDetails(\r\n        \r\n        string memory BuyerAddress, \r\n        string memory _Name, \r\n        uint _Age, \r\n        string memory _City, \r\n        string memory _Email) \r\n        external \r\n    {\r\n    \r\n    address d= parseAddr(BuyerAddress);\r\n    require(d==msg.sender,\r\n        \"This address is already registered as seller or buyer\");\r\n\r\n        BuyerMapping[d].Name = _Name;\r\n        BuyerMapping[d].Age = _Age;\r\n        BuyerMapping[d].City = _City;\r\n        BuyerMapping[d].Email = _Email;\r\n\r\n    }\r\n   \r\n    /*\r\n     \r\n    ///////////////////////// Add Property Details //////////////////\r\n    /////// If seller is verified then seller upload Property details\r\n    /////// if seller is not verified by PropertyInspector they cannot add the Property details.  \r\n    /////// PropertyInspector will also verify the Property added by seller by PropertyID \r\n    /////// We can get Property details by PropertyID\r\n    /////// We can check who is the owner of this Property by PropertyID \r\n    //////// We can check who is the current owner of this Property. \r\n    \r\n    */\r\n     \r\n    function RegisterProperty(\r\n        \r\n        uint PropertyId,\r\n        address payable OwnerAddress,\r\n        uint Rooms,\r\n        string memory Furnished,\r\n        string memory RentOrSale,\r\n        uint Area,\r\n        string memory City,\r\n        string memory State,\r\n        uint PropertyPrice,\r\n        uint PropertyPID) \r\n        external  \r\n    {\r\n \r\n    require(OwnerAddress==msg.sender,\r\n        \"Seller address must be the OwnerAddress\");\r\n    \r\n   \r\n        PropertyMapping[PropertyId]= PropertyRegistry( \r\n        OwnerAddress, \r\n        Rooms,\r\n        Furnished,\r\n        RentOrSale,\r\n        Area, \r\n        City, \r\n        State, \r\n        PropertyPrice, \r\n        PropertyPID, \r\n        false);\r\n\r\n    }\r\n\r\n    function GetPropertyDetails(uint PropertyId) \r\n        \r\n        internal view returns(\r\n        address,\r\n        uint,\r\n        string memory, \r\n        string memory,\r\n        uint,\r\n        string memory, \r\n        string memory,\r\n        uint,\r\n        uint)\r\n    {\r\n        return(\r\n\r\n        PropertyMapping[PropertyId].OwnerAddress,\r\n        PropertyMapping[PropertyId].Rooms,\r\n        PropertyMapping[PropertyId].Furnished,\r\n        PropertyMapping[PropertyId].RentOrSale,\r\n        PropertyMapping[PropertyId].Area,\r\n        PropertyMapping[PropertyId].City,\r\n        PropertyMapping[PropertyId].State,\r\n        PropertyMapping[PropertyId].PropertyPrice,\r\n        PropertyMapping[PropertyId].PropertyPID);\r\n    \r\n    }\r\n   \r\n    function GetPropertyCity(uint  _GetPropertyCity)\r\n        public view returns(\r\n        string memory)\r\n    {\r\n        return \r\n        PropertyMapping[_GetPropertyCity].City;\r\n\r\n    }\r\n\r\n    function GetPropertyPrice(uint  _GetPropertyPrice) \r\n        public view returns(uint)\r\n    {\r\n        return \r\n        PropertyMapping[_GetPropertyPrice].PropertyPrice;\r\n\r\n    }\r\n\r\n    function GetPropertyArea(uint  _GetPropertyArea)\r\n        public view returns(uint)\r\n    {\r\n        return \r\n        PropertyMapping[_GetPropertyArea].Area;\r\n\r\n    }\r\n\r\n    function CurrentPropertyOwner(uint PropertyId)\r\n        public view returns(\r\n        address)\r\n    {\r\n        return \r\n        PropertyMapping[PropertyId].OwnerAddress;\r\n    \r\n    }\r\n\r\n    /*\r\n\r\n    ////////////////////////////////// Buy Property //////////////////////\r\n    //////// Buyer can buy the Property only if buyer and Property both is verified\r\n    //////// buyer need to give the  amount and Propertyid that they wants to buy \r\n    \r\n    */\r\n\r\n    function BuyProperty(\r\n         \r\n        uint PropertyId) \r\n        public payable returns(uint)\r\n    {\r\n    // require(PropertyMapping[PropertyId].IsPropertyVerified=true, \r\n    //     \"Property is not verified by PropertyInspector\");\r\n\r\n    require(BuyerMapping[msg.sender].BuyerAddress == msg.sender,\r\n        \"Only buyer is allowed to buy Property\");\r\n\r\n    require(msg.value == PropertyMapping[PropertyId].PropertyPrice,\r\n        \" Not enough ether, it must be equal to PropertyPrice \");\r\n    \r\n        PropertyMapping[PropertyId].OwnerAddress.transfer(msg.value);\r\n    return\r\n    msg.value;\r\n    }\r\n\r\n    /*\r\n    \r\n    ////////////////////// TransferOwnership /////////////////////\r\n    //////// Owenrship will change to current owner to newOnwer.\r\n    //////// Owner of the Property can transfer their Property to any address if \r\n    //////// the is Property is verified by  PropertyInspector \r\n\r\n    */\r\n    \r\n    function TransferOwnerShip(\r\n        \r\n        uint PropertyId, \r\n        address payable NewOwnerAddress) \r\n        public \r\n    {\r\n    \r\n    require(PropertyMapping[PropertyId].IsPropertyVerified=true,\r\n        \"Property must be verified by Propertyinspector\");\r\n   \r\n    require(PropertyMapping[PropertyId].OwnerAddress == msg.sender,\r\n        \"YOU ARE NOT THE OWNER OF THIS PROPERTY\");\r\n   \r\n    require(PropertyMapping[PropertyId].OwnerAddress != NewOwnerAddress,\r\n        \"NewOwner address must be unique\"); \r\n   \r\n        PropertyMapping[PropertyId].OwnerAddress=NewOwnerAddress;\r\n    }\r\n\r\n    /*\r\n    ////////////// Check buyer and seller account balance to \r\n    ////////////// confirm transaction\r\n    */\r\n    \r\n    function ShowBalance(\r\n        \r\n        address _address) \r\n        external view returns(uint)\r\n    {\r\n        return address(_address).balance;\r\n    }\r\n}",
  "sourcePath": "D:\\CryptoEstate\\contracts\\Sample.sol",
  "compiler": {
    "name": "solc",
    "version": "0.8.17+commit.8df45f5f.Emscripten.clang"
  },
  "schemaVersion": "3.4.11",
  "updatedAt": "2023-01-23T18:07:31.949Z",
  "devdoc": {
    "kind": "dev",
    "methods": {},
    "version": 1
  },
  "userdoc": {
    "kind": "user",
    "methods": {},
    "version": 1
  }
}